:020000040000FA
:1000000060020020F9020000010300000303000069
:1000100005030000070300000903000000000000C2
:100020000000000000000000000000000B030000C2
:100030000D030000000000000F030000110300008A
:10004000130300001503000017030000190300004C
:100050001B0300001D0300001F030000210300001C
:1000600023030000250300002703000029030000EC
:100070002B0300002D0300002F03000031030000BC
:10008000330300003503000037030000390300008C
:100090003B0300003D0300003F030000410300005C
:1000A000430300004503000047030000490300002C
:1000B0004B0300004D0300004F03000051030000FC
:1000C00053030000550300005703000059030000CC
:1000D0005B0300005D0300005F030000610300009C
:1000E00063030000650300000000000067030000D8
:1000F000690300006B0300006D0300006F03000044
:100100007103000073030000750300007703000013
:100110000000000000000000790300007B030000E5
:100120007D0300007F0300008103000083030000C3
:100130008503000087030000890300008B03000093
:1001400000000000000000000000000000000000AF
:100150008D0300008F030000910300009303000053
:10016000000000000000000000000000000000008F
:10017000000000000000000000000000000000007F
:10018000000000000000000000000000000000006F
:10019000000000000000000000000000000000005F
:1001A000000000000000000000000000000000004F
:1001B0009503000097030000990300009B030000D3
:1001C0009D0300009F030000A1030000A3030000A3
:1001D000A5030000A7030000A9030000AB03000073
:1001E000AD030000AF030000B103000000000000F9
:1001F00000000000B3030000B5030000B7030000D7
:10020000B9030000BB030000000000000000000074
:10021000BD030000BF030000C1030000C3030000D2
:10022000C5030000C7030000C9030000CB030000A2
:10023000CD030000CF030000D1030000D303000072
:10024000D5030000D7030000D9030000DB03000042
:10025000DD030000DF030000E1030000E303000012
:10026000E5030000E7030000E903000000F002F8E6
:1002700000F02EF80AA090E8000C82448344AAF112
:100280000107DA4501D100F023F8AFF2090EBAE810
:100290000F0013F0010F18BFFB1A43F001031847BA
:1002A000180A0000280A0000002300240025002668
:1002B000103A28BF78C1FBD8520728BF30C148BFC9
:1002C0000B6070471FB500F0C7FB1FBD10B510BD18
:1002D00000F09FF81146FFF7F5FF00F08BFB00F0F0
:1002E000BDF803B4FFF7F2FF03BC00F0C5F800004F
:1002F0000138FDD1704700003F4880473F48004724
:10030000FEE7FEE7FEE7FEE7FEE7FEE7FEE7FEE7C5
:10031000FEE7FEE7FEE7FEE7FEE7FEE7FEE7FEE7B5
:10032000FEE7FEE7FEE7FEE7FEE7FEE7FEE7FEE7A5
:10033000FEE7FEE7FEE7FEE7FEE7FEE7FEE7FEE795
:10034000FEE7FEE7FEE7FEE7FEE7FEE7FEE7FEE785
:10035000FEE7FEE7FEE7FEE7FEE7FEE7FEE7FEE775
:10036000FEE7FEE7FEE7FEE7FEE7FEE7FEE7FEE765
:10037000FEE7FEE7FEE7FEE7FEE7FEE7FEE7FEE755
:10038000FEE7FEE7FEE7FEE7FEE7FEE7FEE7FEE745
:10039000FEE7FEE7FEE7FEE7FEE7FEE7FEE7FEE735
:1003A000FEE7FEE7FEE7FEE7FEE7FEE7FEE7FEE725
:1003B000FEE7FEE7FEE7FEE7FEE7FEE7FEE7FEE715
:1003C000FEE7FEE7FEE7FEE7FEE7FEE7FEE7FEE705
:1003D000FEE7FEE7FEE7FEE7FEE7FEE7FEE7FEE7F5
:1003E000FEE7FEE7FEE7FEE7FEE7000004480549FA
:1003F000034A054B70470000390900006D020000F8
:1004000060000020600200206000002070477047FC
:100410007047754600F02CF8AE4605006946534615
:1004200020F00700854618B020B5FFF7DFFFBDE8D4
:1004300020404FF000064FF000074FF000084FF04B
:10044000000B21F00701AC46ACE8C009ACE8C009DC
:10045000ACE8C009ACE8C0098D46704710B5044649
:10046000AFF300802046BDE81040FFF73ABF000020
:10047000004870470000002001491820ABBEFEE78D
:1004800026000200704702F001031BB1D0F80034CF
:100490000B4302E0D0F800348B43C0F8003402F084
:1004A00002031BB1D0F820340B4302E0D0F8203413
:1004B0008B43C0F820347047F0B55F4D2D685F4E18
:1004C00035405F4EB5421AD0002416E00125A54004
:1004D0000D4085B1D0F8C45F67000326BE40B54328
:1004E000C0F8C45FD0F8C45F6700C2F34116BE40D5
:1004F0003543C0F8C45F651CECB2082CE6DB02F0A3
:1005000001051DB1D0F800550D4302E0D0F80055AB
:100510008D43C0F8005502F002051DB1D0F8045516
:100520000D4302E0D0F804558D43C0F8045502F0A5
:1005300004051DB1D0F808550D4302E0D0F8085568
:100540008D43C0F8085502F008051DB1D0F81855C4
:100550000D4302E0D0F818558D43C0F81855364DBC
:100560002D68364E3540364EB5420BD002F01005A0
:100570001DB1D0F83C550D4302E0D0F83C558D43F9
:10058000C0F83C5503F001051DB1D0F80C550D43E2
:1005900002E0D0F80C558D43C0F80C5503F002056D
:1005A0001DB1D0F810550D4302E0D0F810558D4321
:1005B000C0F8105503F004051DB1D0F814550D43D3
:1005C00002E0D0F814558D43C0F8145503F0080527
:1005D0001DB1D0F81C550D4302E0D0F81C558D43D9
:1005E000C0F81C55144D2D68144E3540144EB542BC
:1005F00017D003F400751DB1D0F844550D4302E047
:10060000D0F844558D43C0F8445503F440751DB1EE
:10061000D0F840550D4302E0D0F840558D43C0F866
:1006200040551BB9D0F828550D4302E0D0F82855A5
:100630008D43C0F82855F0BD00E00F400000FF706A
:100640000000051030B504460D4608230122294656
:100650002046FFF731FF012229462046FFF713FF0E
:1006600030BD002303EB8103C2507047F0B5504802
:10067000036E026F02F0004010B102F0700001E062
:1006800003F03000202811D003DC38B1102815D138
:100690000AE030280CD0702810D10CE04548C3F394
:1006A000841750F827100BE0434909E0434907E05D
:1006B00047F2305104E04FF4004101E00020F0BD6A
:1006C00000BF4FF0FF3402F0004010B102F40060B0
:1006D00028B102F0004090BB03F4006078BB3848BA
:1006E00005683348D0F8646106F01F00401CC6F36B
:1006F00004277F1C10FB07F04000B1FBF0F1C5F3AD
:1007000009004843C5F389274F4300EB972143F481
:1007100080032748006900F47040B0F5804F13D083
:1007200006DCB0F5005F0BD0B0F5405F12D109E0F8
:10073000B0F5E04F0AD0B0F5104F0BD108E00BE058
:10074000204C08E0204C06E0204C04E0204C02E065
:10075000204C00E000BF00BF03F4800018B302F09B
:100760000040D8B102F0804090B102F0004010B1DA
:1007700002F4006028B102F0004048B903F40060C0
:1007800030B94F00C2F38650401CB7FBF0F10AE0CD
:10079000C2F3C550401CB1FBF0F104E0C3F3C350F9
:1007A000401CB1FBF0F18C4200D22146084686E79E
:1007B00000E00F40640A00000024F40000093D003E
:1007C00060E10F4000B4C40480F0FA02005A6202F3
:1007D00040787D01002D31012DE9F0410646444865
:1007E000046E056F44F4006424F4800445F400654D
:1007F0000466056704F00100D8B106F00100C0B935
:1008000066F0010004404FF480703949886508465D
:1008100004664FF4002702E07F1E07B905E0344864
:10082000006D00F480700028F6D000BF0FB9BDE85D
:10083000F08124F4FE6406F4FE6004432D48054074
:100840002C49A13106EA0100054306F0080045EAFB
:10085000C00527480466056724F4005406F40050D8
:10086000044325F4005506F4005005434020204978
:10087000886505F0004018B108460567046602E087
:100880001B48046605671C480440C14306EA010092
:10089000044325F0FC5506F0FC50054306F080406B
:1008A00040B144F4800425F48005144906EA0100AF
:1008B000054301E025F0804506F4006080B94FF45F
:1008C000004706E00E48006800F0010000B102E0B9
:1008D0007F1E002FF6D100BF24F4006425F40065CC
:1008E0000348046605671020FFF702FD00BF9EE77E
:1008F00000E00F408FFFFF7FFEFF3FF80000404009
:1009000068E10F4010B50121C0F30722094B1A44DA
:1009100002F0704242F00072C0F30723054C2344FA
:10092000C3F3130342EA4312C3B242EA83021160E3
:1009300010BD000000E60F401B49096841F470013A
:10094000194A116019491A4A11671A4911661A4958
:1009500011661A491167002000E0401CB0F57A7F4B
:10096000FBD31749124A116616491167002000E0AF
:10097000401CB0F57A7FFBD313490D4A116600BFC6
:100980000B49096D01F040014029F9D10F49084A8E
:1009900011664FF0C0711167002000E0401C42F268
:1009A00010718842FAD3704788ED00E01028800764
:1009B00000E00F40D13A8E07422D9E0100288001B1
:1009C000420D9E0100088001420DDE014205DE015C
:1009D00010B5FFF74BFE0321B0FBF1F04FF47A7135
:1009E000B0FBF1F0491000FB01F42046FFF780FC5A
:1009F00010BD00001548FFF7EFFE1548FFF782FF16
:100A00000320FFF775FC30211248FFF71BFE1BE0A7
:100A1000102211460F48FFF724FEFFF7D9FF2022CE
:100A200011460C48FFF71DFEFFF7D2FF00221021F0
:100A30000848FFF716FEFFF7CBFF002220210548EC
:100A4000FFF70FFEFFF7C4FFE2E70000400500C11B
:100A5000020800F0006000404FF04070E1EE100A24
:100A60007047000040420F0000201C0080841E00E0
:100A700000802500999E36000040380000093D00A6
:100A800000803E0000004B00404B4C0000204E0018
:100A9000808D5B0000C05D000080700000127A0055
:100AA00000007D0080969800001BB7000080BB000E
:100AB000C0E8CE00647ADA000024F4000000FA00F6
:100AC00080A81201002D310100366E0140787D01B1
:100AD0004000000000000000000100003E0008008F
:100AE0000000000000010000A00000000200000063
:100AF000000100003454010000000000000100006B
:100B00002B7006000000000000010000280000001B
:100B100000000000000100002700010000000000AC
:100B200000010000200000000000000000010000A3
:100B30005000000002000000000100001AAC00009C
:100B400000000000000100001794090000000000F0
:100B500000010000169805000000000000010000E0
:100B600014000000000000000001000013800800D5
:100B70000000000000010000A000000008000000CC
:100B80000001000010000000000000000001000053
:100B900028000000020000000001000040000000EA
:100BA00004000000000100006000000000000000E0
:100BB000000100005D000C000000000000010000CA
:100BC0005000000000000000000100004E00020084
:100BD000000000000001000041AC01000000000026
:100BE000000100003C0000000000000000010000C7
:100BF0003A80090000000000000100003000000001
:100C000000000000000100002800000000000000BB
:100C100000010000270001000000000000010000AA
:100C200023600600000000000001000021600800B1
:100C300000000000000100001E0000000000000095
:100C4000000100001DC004000000000000010000C1
:100C50005000000002000000000100001800000029
:100C6000000000000001000014000000000000006F
:100C7000000100006000000004000000000100000E
:100C80000024F40030003000005A6202910091000C
:100C900000879303D200D20000B4C40413011301EF
:100CA00000E1F50554015401000E27079501950157
:100CB00000688909001C4E0EC80C000000000020CE
:080CC00060020000A802000020
:04000005000002F9FC
:00000001FF
