:020000040000FA
:10000000F02F0020DD030000E5030000E7030000FF
:10001000E9030000EB030000ED0300000000000016
:100020000000000000000000000000001D030000B0
:10003000F10300000000000079030000150E00002D
:10004000F7030000F9030000FB030000FD030000BC
:10005000FF03000001040000030400000504000089
:1000600007040000090400000B0400000D04000058
:100070000F04000011040000130400001504000028
:1000800017040000190400001B0400001D040000F8
:100090001F040000210400002304000025040000C8
:1000A00027040000290400002B0400002D04000098
:1000B0002F04000031040000330400003504000068
:1000C00037040000390400003B0400003D04000038
:1000D0003F04000041040000430400004504000008
:1000E0004704000049040000000000004B04000029
:1000F0004D0400004F0400005104000053040000B0
:100100005504000057040000590400005B0400007F
:1001100000000000000000005D0400005F0400001B
:10012000610400006304000065040000670400002F
:10013000690400006B0400006D0400006F040000FF
:1001400000000000000000000000000000000000AF
:1001500071040000730400007504000077040000BF
:10016000000000000000000000000000000000008F
:10017000000000000000000000000000000000007F
:10018000000000000000000000000000000000006F
:10019000000000000000000000000000000000005F
:1001A000000000000000000000000000000000004F
:1001B000790400007B0400007D0400007F0400003F
:1001C000810400008304000085040000870400000F
:1001D000890400008B0400008D0400008F040000DF
:1001E000910400009304000095040000000000004A
:1001F0000000000097040000990400009B04000028
:100200009D0400009F0400000000000000000000AA
:10021000A1040000A3040000A5040000A70400003E
:10022000A9040000AB040000AD040000AF0400000E
:10023000B1040000B3040000B5040000B7040000DE
:10024000B9040000BB040000BD040000BF040000AE
:10025000C1040000C3040000C5040000C70400007E
:10026000C9040000CB040000CD04000000F002F837
:1002700000F03CF80AA090E8000C82448344AAF104
:100280000107DA4501D100F031F8AFF2090EBAE802
:100290000F0013F0010F18BFFB1A43F001031847BA
:1002A000DC2C0000FC2C0000103A24BF78C878C178
:1002B000FAD8520724BF30C830C144BF04680C606C
:1002C000704700000023002400250026103A28BFB4
:1002D00078C1FBD8520728BF30C148BF0B607047B8
:1002E0001FB502F0EFFB1FBD10B510BD00F0CBF93C
:1002F000114603B400F0ECFE03BCFFF7F1FF00F081
:10030000E9FE00F0E5F903B4FFF7EEFF03BC00F0EF
:10031000EDF900000138FDD1704700002C4B196841
:100320000868B0E8F04F80F30988BFF36F8F4FF093
:10033000000080F311887047000000000848006842
:10034000006880F308884FF0000080F3148862B6DC
:1003500061B6BFF34F8FBFF36F8F00DF00BF00BFE9
:1003600008ED00E0DFF80C00016841F47001016065
:10037000704700BF88ED00E0EFF30980BFF36F8F97
:10038000134B1A681EF0100F08BF20ED108A20E9E9
:10039000F04F106009B44FF0100080F31188BFF3E4
:1003A0004F8FBFF36F8F01F07FFD4FF0000080F3A0
:1003B000118809BC19680868B0E8F04F1EF0100FEA
:1003C00008BFB0EC108A80F30988BFF36F8F7047C5
:1003D00028000020EFF30580704700003F48804769
:1003E0003F480047FEE7FEE7FEE7FEE7FEE7FEE7E1
:1003F000FEE7FEE7FEE7FEE7FEE7FEE7FEE7FEE7D5
:10040000FEE7FEE7FEE7FEE7FEE7FEE7FEE7FEE7C4
:10041000FEE7FEE7FEE7FEE7FEE7FEE7FEE7FEE7B4
:10042000FEE7FEE7FEE7FEE7FEE7FEE7FEE7FEE7A4
:10043000FEE7FEE7FEE7FEE7FEE7FEE7FEE7FEE794
:10044000FEE7FEE7FEE7FEE7FEE7FEE7FEE7FEE784
:10045000FEE7FEE7FEE7FEE7FEE7FEE7FEE7FEE774
:10046000FEE7FEE7FEE7FEE7FEE7FEE7FEE7FEE764
:10047000FEE7FEE7FEE7FEE7FEE7FEE7FEE7FEE754
:10048000FEE7FEE7FEE7FEE7FEE7FEE7FEE7FEE744
:10049000FEE7FEE7FEE7FEE7FEE7FEE7FEE7FEE734
:1004A000FEE7FEE7FEE7FEE7FEE7FEE7FEE7FEE724
:1004B000FEE7FEE7FEE7FEE7FEE7FEE7FEE7FEE714
:1004C000FEE7FEE7FEE7FEE7FEE7FEE7FEE70000E9
:1004D00004480549034A054B704700002D0E0000F3
:1004E0006D020000F02D0020F02F0020F02D0020E4
:1004F000032A40F2308010F0030C00F0158011F850
:10050000013BBCF1020F624498BF11F801CB00F827
:10051000013B38BF11F8013BA2F1040298BF00F87B
:1005200001CB38BF00F8013B11F0030300F030802D
:10053000083AC0F0088051F8043B083A51F804CB5F
:10054000A0E80810F5E7121D5CBF51F8043B40F825
:10055000043BAFF30080D20724BF11F8013B11F830
:1005600001CB48BF11F8012B24BF00F8013B00F874
:1005700001CB48BF00F8012B704702F0FF0343EAAC
:10058000032242EA024200F037B8704770477047D2
:1005900010B5203AC0F00B80B1E81850203AA0E81E
:1005A0001850B1E81850A0E81850BFF4F5AF5FEA52
:1005B000027C24BFB1E81850A0E8185044BF18C905
:1005C00018C0BDE810405FEA827C24BF51F8043BAC
:1005D00040F8043B08BF7047D20728BF31F8023B00
:1005E00048BF11F8012B28BF20F8023B48BF00F894
:1005F000012B70474FF000020429C0F0128010F068
:10060000030C00F01B80CCF1040CBCF1020F18BFEE
:1006100000F8012BA8BF20F8022BA1EB0C0100F081
:100620000DB85FEAC17C24BF00F8012B00F8012B54
:1006300048BF00F8012B70474FF0000200B5134689
:1006400094469646203922BFA0E80C50A0E80C50F2
:10065000B1F12001BFF4F7AF090728BFA0E80C50A3
:1006600048BF0CC05DF804EB890028BF40F8042B9C
:1006700008BF704748BF20F8022B11F0804F18BF09
:1006800000F8012B7047754600F02CF8AE460500C7
:100690006946534620F00700854618B020B5FFF79D
:1006A00017FFBDE820404FF000064FF000074FF065
:1006B00000084FF0000B21F00701AC46ACE8C00980
:1006C000ACE8C009ACE8C009ACE8C0098D46704789
:1006D00010B50446AFF300802046BDE81040FFF798
:1006E00012BE000000487047902D002001491820DC
:1006F000ABBEFEE7260002007047000010B50848B8
:1007000000F0BCFA074800F04FFB074800F04CFB34
:100710000448401C00F048FB044800F045FB10BDB5
:100720004005C001000800F0001800F0002000F0B3
:1007300010B5154800F02CF9144800F029F90421EF
:10074000134800F06BF90821114800F058F91148DE
:1007500000F082F900F0DCF90446002221460D4841
:1007600000F088F901210B4800F0CBF9094800F0AE
:10077000B7F93C21074800F0BBF900223C210548AD
:1007800000F0A6F910BD000003080100030C0100F1
:10079000005000400000024010B5012000F0F8F8C1
:1007A00040F2014000F0F4F803214FF0402000F047
:1007B00044F90521044800F096FB044A4FF4165111
:1007C000002000F0D3FB10BD00C000400024F40066
:1007D00002F001031BB1D0F800340B4302E0D0F863
:1007E00000348B43C0F8003402F002031BB1D0F890
:1007F00020340B4302E0D0F820348B43C0F820347F
:1008000070470000F0B55F4D2D685F4E35405F4E7C
:10081000B5421AD0002416E00125A5400D4085B14F
:10082000D0F8C45F67000326BE40B543C0F8C45F7C
:10083000D0F8C45F6700C2F34116BE403543C0F82C
:10084000C45F651CECB2082CE6DB02F001051DB1AB
:10085000D0F800550D4302E0D0F800558D43C0F8A4
:10086000005502F002051DB1D0F804550D4302E019
:10087000D0F804558D43C0F8045502F004051DB1AD
:10088000D0F808550D4302E0D0F808558D43C0F864
:10089000085502F008051DB1D0F818550D4302E0C7
:1008A000D0F818558D43C0F81855364D2D68364E82
:1008B0003540364EB5420BD002F010051DB1D0F8D0
:1008C0003C550D4302E0D0F83C558D43C0F83C55F3
:1008D00003F001051DB1D0F80C550D4302E0D0F82E
:1008E0000C558D43C0F80C5503F002051DB1D0F82E
:1008F00010550D4302E0D0F810558D43C0F8105547
:1009000003F004051DB1D0F814550D4302E0D0F8F2
:1009100014558D43C0F8145503F008051DB1D0F8E7
:100920001C550D4302E0D0F81C558D43C0F81C55F2
:10093000144D2D68144E3540144EB54217D003F4B3
:1009400000751DB1D0F844550D4302E0D0F8445570
:100950008D43C0F8445503F440751DB1D0F840559F
:100960000D4302E0D0F840558D43C0F840551BB907
:10097000D0F828550D4302E0D0F828558D43C0F833
:100980002855F0BD00E00F400000FF70000005108A
:1009900010B50146C1F307400F4BDB6E01248440C4
:1009A000234033B1012303EB40030C4C54F82300E4
:1009B00003E04300094C54F82300C1F30722D0F8A8
:1009C0002C350F249440A34301F00F04944023439B
:1009D000C0F82C3510BD000000E00F40682C00006E
:1009E00030B504460D460823012229462046FFF76C
:1009F00009FF012229462046FFF7EAFE30BD30B547
:100A000004460D46022229462046FFF7E1FE09234F
:100A1000012229462046FFF7F5FE30BD30B50446D9
:100A20000D46022229462046FFF7D2FE0823012266
:100A300029462046FFF7E6FE30BD30B504460D4698
:100A4000022229462046FFF7C3FE08230122294639
:100A50002046FFF7D7FE30BD016A41F00101016277
:100A600070474160704781607047016A41F0100132
:100A70000162704770B503460C4616461846FFF7EC
:100A8000F4FF012E01D10F4A00E00F4A142000FBB1
:100A90000240401E02EB82018900B0FBF1F0451ECE
:100AA000DD60D3F8C00F00F0010048B107482044D2
:100AB000401E0649B0FBF1F0451E45F08000D860AD
:100AC00070BD0000801A0600A08601008047370133
:100AD00042EA4103036070470146D1F808087047B5
:100AE000016A41F0200101620121C0F80418704739
:100AF00000B502460B461046FFF7F2FFC2F8003879
:100B000000BDD0F80C280A43C0F80C28704700003C
:100B1000F0B55048036E026F02F0004010B102F0D1
:100B2000700001E003F03000202811D003DC38B160
:100B3000102815D10AE030280CD0702810D10CE014
:100B40004548C3F3841750F827100BE0434909E0E8
:100B5000434907E047F2305104E04FF4004101E01F
:100B60000020F0BD00BF4FF0FF3402F0004010B194
:100B700002F4006028B102F0004090BB03F4006072
:100B800078BB384805683348D0F8646106F01F0028
:100B9000401CC6F304277F1C10FB07F04000B1FB8C
:100BA000F0F1C5F309004843C5F389274F4300EB33
:100BB000972143F480032748006900F47040B0F5A2
:100BC000804F13D006DCB0F5005F0BD0B0F5405F6E
:100BD00012D109E0B0F5E04F0AD0B0F5104F0BD1BB
:100BE00008E00BE0204C08E0204C06E0204C04E03C
:100BF000204C02E0204C00E000BF00BF03F4800066
:100C000018B302F00040D8B102F0804090B102F079
:100C1000004010B102F4006028B102F0004048B971
:100C200003F4006030B94F00C2F38650401CB7FB9C
:100C3000F0F10AE0C2F3C550401CB1FBF0F104E052
:100C4000C3F3C350401CB1FBF0F18C4200D22146EB
:100C5000084686E700E00F40F82C00000024F4006E
:100C600000093D0060E10F4000B4C40480F0FA02C6
:100C7000005A620240787D01002D31012DE9F041DA
:100C800006464448046E056F44F4006424F480046E
:100C900045F400650466056704F00100D8B106F06C
:100CA0000100C0B966F0010004404FF4807039497A
:100CB0008865084604664FF4002702E07F1E07B9E6
:100CC00005E03448006D00F480700028F6D000BFC5
:100CD0000FB9BDE8F08124F4FE6406F4FE6004431D
:100CE0002D4805402C49A13106EA0100054306F0D4
:100CF000080045EAC00527480466056724F4005447
:100D000006F40050044325F4005506F40050054352
:100D100040202049886505F0004018B10846056765
:100D2000046602E01B48046605671C480440C14392
:100D300006EA0100044325F0FC5506F0FC5005438B
:100D400006F0804040B144F4800425F48005144945
:100D500006EA0100054301E025F0804506F4006045
:100D600080B94FF4004706E00E48006800F001002B
:100D700000B102E07F1E002FF6D100BF24F4006412
:100D800025F400650348046605671020FFF7C2FAE2
:100D900000BF9EE700E00F408FFFFF7FFEFF3FF8A0
:100DA0000000404068E10F4010B50121C0F3072268
:100DB000094B1A4402F0704242F00072C0F307235C
:100DC000054C2344C3F3130342EA4312C3B242EA7D
:100DD0008302116010BD000000E60F400146C1F320
:100DE00007200B4A104400F0704040F00070C1F33F
:100DF0000722074B1A44C2F3130240EA4210CAB258
:100E000040EA8200006808B1012070470020FCE73A
:100E100000E30F4010B54FF0E020006901F014FC32
:100E2000012801D001F0E8F810BD00001B49096855
:100E300041F47001194A116019491A4A11671A4997
:100E400011661A4911661A491167002000E0401C1A
:100E5000B0F57A7FFBD31749124A1166164911671C
:100E6000002000E0401CB0F57A7FFBD313490D4A07
:100E7000116600BF0B49096D01F040014029F9D10D
:100E80000F49084A11664FF0C0711167002000E059
:100E9000401C42F210718842FAD3704788ED00E09E
:100EA0001028800700E00F40D13A8E07422D9E01A6
:100EB00000288001420D9E0100088001420DDE01E4
:100EC0004205DE01014600BF886900F010000028DD
:100ED000FAD10868704700BF826902F02002002A38
:100EE000FAD101607047C0F8C81F7047F0B50446DA
:100EF0000E4615461F46204600F01EF8B6EB051FAD
:100F000005D2206B40F0200020636D0803E0206BC9
:100F100020F020002063F000B0FBF5F0401C4308F7
:100F20009809606203F03F00A062E7620020A061C0
:100F3000204600F011F8F0BD00BF816901F0080102
:100F40000029FAD1C16A21F01001C162016B40F29F
:100F50000132914301637047C16A41F01001C162DF
:100F6000016B40F2013211430163704770B50446D2
:100F70000D4616460E4951F82400FFF72FFF00B921
:100F800070BD0C4850F824000B490860084951F81E
:100F90002400FFF709FF60232A463146064800680F
:100FA000FFF7A4FF04480068FFF7D6FF00BFE7E79C
:100FB0005C2F0000502F00000000002010B50348F7
:100FC0000068FFF77FFFC0B210BD000000000020E6
:100FD00070B505460E46002411E0285D0A2805D1AB
:100FE0000D2109480068FFF776FF02E0285D00B98F
:100FF00007E0295D04480068FFF76DFF641CB442F8
:10100000EBD300BF204670BD0000002010B50446A1
:1010100000F0E6F820B14FF0FF31206801F0F4F95C
:1010200010BD000070B50546286800F03FFE0024A2
:101030000BE0084951F824102868884204D10020A8
:10104000044941F8240002E0641C052CF1D300BFE0
:1010500070BD0000F803002070B505460020286030
:10106000002415E0124850F8240080B904EB8400F5
:10107000104A02EB0011012000F0E9FF0C4941F891
:101080002400084650F824002860012070BD641C2C
:10109000052CE7D300F0A4F818B1012000F0C6FF3A
:1010A0002860286808B90020F0E70120EEE700007A
:1010B000F80300206802002010B5044600F090F804
:1010C00028B100231A461946206801F049F810BDDE
:1010D000704700001CB52C48FFF7D0FD2B48FFF7E8
:1010E00063FE0320FFF716F930212948FFF778FC4B
:1010F000FFF704FBFFF750FBFFF71AFB002002216C
:1011000003468022CDE9001022A1264801F042FAD0
:10111000012801D000BFFEE7002002210346802203
:10112000CDE9001020A1234801F034FA012801D0B4
:1011300000BFFEE70020022103468022CDE9001017
:101140001DA1204801F026FA012801D000BFFEE7CA
:101150000020022103468022CDE900101AA11D487B
:1011600001F018FA012801D000BFFEE7012000F0CD
:101170005DFF19490860012000F058FF1749086019
:1011800000F040FE00BFFEE7400500C1020800F08D
:1011900000600040554152545472616E736D697421
:1011A00000000000851F00005541525452656369DC
:1011B00065766500591F00004932435472616E73B1
:1011C0006D697400A11B0000493243526563696573
:1011D00076650000791B00000C0000201000002044
:1011E00010B50748007848B901F02EFA012803D05D
:1011F00001200349087010BD0020FCE70120FAE738
:10120000140000202DE9F04105460E4616480768F7
:1012100016480068001D00F081FC681C38B936B122
:1012200012480168091D124800F0FCFC1AE07C1904
:101230000E4800684460BC4207D20C480168091D92
:101240000C48006800F0D4FC0CE008480168091D57
:101250000948006800F0CCFC08480068844201D2CC
:1012600006480460BDE8F0813C0000202800002012
:10127000B42C0020300000202C000020580000205A
:1012800010B5044600F0DAFC24480068401C2349ED
:1012900008602348006840B9214804600846006897
:1012A00001280DD100F0A6F90AE01E48006838B9FF
:1012B0001B480068C06AE16A884201D81848046087
:1012C00019480068401C18490860084600686064B6
:1012D0001649E06A0968884202D91449E06A086040
:1012E000E16A01EB8101124A02EB8100211D00F04D
:1012F00099FC00F0B5FC0B48006868B1084800682C
:10130000C06AE16A884207D24FF0805009490860FC
:10131000BFF34F8FBFF36F8F10BD00003800002068
:10132000280000204400002054000020400000203D
:101330000428002004ED00E008B500F07FFC0E4812
:101340000068A8B90D4800F043FC0D4800F040FCCF
:101350000A480C4908600A480B49086000200B4BFA
:101360000B4A10210090052000F0A3FE02490860FE
:1013700000F076FC08BD00006C000020C82C0020A6
:10138000DC2C00206400002068000020F02C0020ED
:10139000402D002010B516E000F050FC0C48C0684D
:1013A000C468201D00F0BAFB0A480068401E0949C5
:1013B000086009480068401E0749086000F050FCBA
:1013C000204600F05FF8044800680028E4D110BD12
:1013D000A02C0020380000203400002070B5044606
:1013E0000D46206C70B1216CE0680144E160D4E9E5
:1013F0000210884201D32168E1602846226CE1682E
:10140000FFF776F870BD2DE9F04104460F4615460A
:101410004FF00008A66B206C48B9206800282CD13A
:10142000A06801F0B3F980460020A06025E07DB9F6
:101430003946226C6068FFF75BF8216C60680844ED
:101440006060D4E90101884217D32068606014E02D
:101450003946226CE068FFF74BF8216CE068411ACE
:10146000E1602168E068884203D2216CA068411ADB
:10147000E160022D01D106B1761E701CA0634046CA
:10148000BDE8F08110B5044694F8590030B9206BDE
:1014900000F0F6FB204600F0F3FB06E094F859005C
:1014A000012802D1204600F0EBFB10BD01464A6A3C
:1014B00022B10A6B1268C2F1380000E000207047C8
:1014C0000146084A126812680AB9012200E00022A7
:1014D0000A600A6822B9034A1268D268106800E0FC
:1014E000002070476400002000BFFFF753FF06484C
:1014F00000680128F9D94FF0805004490860BFF313
:101500004F8FBFF36F8FF0E70428002004ED00E059
:1015100010B5044654B10020A06020600021E160B5
:1015200000231A461946204600F01AFE10BD2DE988
:10153000F04106460D4617469846069C0DB92460B4
:1015400000E02760E66325640121204600F0C8FD25
:1015500084F84C80BDE8F0812DE9F05F81460E46AD
:1015600090469A460A9F0C9C4FEA8801A522206B60
:10157000FFF703F8A8F10100216B01EB800B2BF0C2
:10158000070B86B1002507E0715D04F13400415579
:10159000705D00B902E06D1C102DF5D300BF002175
:1015A0004320015502E0002084F83400382F00D396
:1015B0003727E762E76400202065201D00F015FB57
:1015C00004F1180000F011FB2461C7F13800A0619C
:1015D00064620020606584F85800524649465846C7
:1015E00000F086FA20600B9808B10B980460BDE803
:1015F000F09F000010B5002407E004EB84010F4ABF
:1016000002EB810000F0E4FA641C382CF5D30C489E
:1016100000F0DEFA0B4800F0DBFA0B4800F0D8FAD5
:101620000A4800F0D5FA0A4800F0D2FA04480949FD
:10163000086004480849086010BD00000428002024
:10164000642C0020782C00208C2C0020A02C002062
:10165000B42C00202C000020300000202DE9F041A7
:1016600004460D4616461F464FF00008656024618B
:10167000B5420CD8F01BA169884202D34FF0010893
:1016800011E0211D0948006800F0B2FA0BE0BE42EB
:1016900004D2BD4202D34FF0010804E0211D0448EA
:1016A000006800F0A5FA4046BDE8F081680000201F
:1016B0006400002070B5054600F0C0FAA86B08B9B8
:1016C000012400E0002400F0CBFA204670BD70B584
:1016D000054600F0B3FAA86BE96B884201D10124FA
:1016E00000E0002400F0BCFA204670BDF8B50546C5
:1016F0000E4614480068C068C468201D00F00EFA49
:1017000094F8280000F0040088B1A06941192B4624
:1017100032462046FFF7A2FF78B1002003462A4652
:1017200001460090204601F097F9074605E094F83D
:10173000280020F0010084F828002046216A88470C
:10174000F8BD000064000020F0B587B076E0039893
:10175000002805DA04AED6E90020B168904700BF42
:10176000039800286ADB059C606908B9012000E045
:10177000002010B9201D00F0D1F902A800F0BEF839
:10178000054603980A2857D2DFE800F00905072D1F
:10179000354606082E3600BF00BF00BF00BF94F8D4
:1017A000280040F0010084F828000498A2698118FC
:1017B00003462A462046FFF751FF98B12046216A8A
:1017C000884794F8280000F0040058B100200090E9
:1017D0000498A169421800231946204601F03CF9FB
:1017E000074600BF29E000BF94F8280020F0010060
:1017F00084F8280021E000BF94F8280040F00100A0
:1018000084F828000498A061A06941192B462A4653
:101810002046FFF723FF10E094F8280000F00200B4
:1018200018B9204600F02CFA05E094F8280020F0C2
:10183000010084F8280000E000BF00BF002203A9D7
:101840000348006800F05EFD002880D107B0F0BDBD
:101850006C000020F8B505460C4600F01DFB6846FC
:1018600000F04CF80646009820BB44B9B54206D8B3
:1018700001F04EF831462846FFF738FF1CE03CB136
:101880000E480068006808B9012000E00020044606
:10189000A91B22460A48006800F012FA01F038F845
:1018A00050B94FF0805007490860BFF34F8FBFF326
:1018B0006F8F01E001F02CF8F8BD000068000020F7
:1018C0006C00002004ED00E00A490968096809B9C4
:1018D000012100E0002121B14FF0FF31064A1160E3
:1018E00006E004490968C968C868034A416811608C
:1018F000704700002C0000205800002070B50446FE
:1019000000F0B2FE054607480068854204D200F0A8
:101910000BF80120206001E00020206001480560F4
:10192000284670BD740000202DE9F84328E01E48C9
:101930000068C06805681C480068C068C468201D4D
:1019400000F0ECF82046216A884794F8280000F05F
:101950000400A8B1A0694619AE4207D966602461A7
:10196000211D1148006800F043F909E000200346FA
:101970002A4601460090204601F06EF8804600BFDE
:1019800009480068006808B9012000E0002000282C
:10199000CDD005480768054800680349086003483A
:1019A0000760BDE8F88300006400002068000020A4
:1019B00000BF102080F31188BFF34F8FBFF36F8FEC
:1019C00000BF00BFFEE708B500BF6846FFF778FD1F
:1019D000044620460099FFF73DFFFFF7B5FEF4E708
:1019E00070B5044600F02AF994F9455010E0606A99
:1019F00008B9012000E0002038B904F1240000F00B
:101A000047FF18B100F08EF900E003E0681E45B210
:101A1000002DECDC00BFFF2084F8450000F020F929
:101A200000F00CF994F9445010E0206908B9012045
:101A300000E0002048B904F1100000F029FF08B1CF
:101A400000F070F9681E45B200E001E0002DECDC0A
:101A500000BFFF2084F8440000F002F970BD0000D0
:101A600070B50446002504F0070020B104F007001B
:101A7000C0F10800044400F00FFA1248006820B9D1
:101A8000114820F007000F49086010480068204402
:101A900041F6F871884210D20C48006820440B4986
:101AA0000968884209D90748006808490968451843
:101AB0000648006820440549086000F029FF2846D0
:101AC00070BD0000200000200C0800201C00002039
:101AD0000648006830B10549096801F15000096DF8
:101AE000491C016001480068704700002800002080
:101AF000001F4FF080730360001F21F0010303609B
:101B0000001F054B036014380260001F6FF00203D2
:101B10000360203870470000B119000001460A69CF
:101B2000D1E901309860D1E90103586050688842DA
:101B300001D188685060002008611068401E106064
:101B400010687047034B0360034B0B6080231360E6
:101B5000704700000C04002068040020034B036061
:101B6000034B0B6050231360704700006806002091
:101B7000C4060020704700000AE04FF0FF3105481E
:101B8000006800F041FC0448FEF7A6FF0349087016
:101B9000F3E700000C0000200000024009000020D4
:101BA0000FE0084801780848FEF75DFF0721064866
:101BB000FEF757FF00231A4619460448006800F054
:101BC000CFFAEEE7080000200000024010000020DD
:101BD00000F1080141604FF0FF31816000F1080120
:101BE000C1600161002101607047002101617047FF
:101BF00010B502460B685C1C0CB9106907E002F1D5
:101C0000080000E04068446824689C42FAD94468AF
:101C10004C604C68A160886041600A611468641C73
:101C2000146010BD42684A6093688B609368596085
:101C30009160086103685B1C0360704700BF10205F
:101C400080F31188BFF34F8FBFF36F8F00BF03483E
:101C50000068401C01490860704700002400002013
:101C600006480068401E054908600846006820B91B
:101C7000002080F3118800BF00BF704724000020BF
:101C80007047000000204FF0E0210861886106489D
:101C900000684FF47A71B0FBF1F0401E4FF0E02184
:101CA00048610720086170471800002070B504469D
:101CB000254695F8460010B92846FFF7E1FF70BDAC
:101CC0002DE9F04105460E4617462C46FFF7B6FFB4
:101CD00094F94400401C10B9002084F8440094F9A1
:101CE0004500401C10B9002084F84500FFF7B8FFFC
:101CF000A06B28B93A46314604F1240000F028F8D8
:101D00002046FFF76DFEBDE8F08100000349096839
:101D100001600349096841607047000050000020DD
:101D20003C00002001200149086070474C00002061
:101D300070B505460C460548016818312846FFF77E
:101D400057FF01212046FFF75DFA70BD28000020F3
:101D500070B506460D4614460648016818313046EF
:101D6000FFF760FF0CB14FF0FF3521462846FFF723
:101D700049FA70BD280000202DE9F04706460F46BD
:101D800034464FF00109002E35D0E06CB84201D244
:101D90003D4600E0E56CE06AA8422CD0206D0128A9
:101DA00029D1D4F82C80E562A06900F0004010B978
:101DB000C5F13800A06108EB8801104A02EB8101EF
:101DC0006069884201D1012000E0002098B1201D07
:101DD000FFF7A4FE0A49E06A0968884202D9084967
:101DE000E06A0860E16A01EB8101044A02EB8100CC
:101DF000211DFFF717FFBDE8F08700000428002031
:101E00004000002010B586B000200590049003AA81
:101E100004A905A8FFF796FE0022DDE90410134689
:101E2000CDE90021029015A11648039A00F0E4FBC9
:101E3000154908600846006808B1012400E0002444
:101E4000012C02D100F0D8FD0446012C14D100BFB2
:101E5000102080F31188BFF34F8FBFF36F8F00BF47
:101E60004FF0FF300949086001200949086000204F
:101E70000849086000F09CF806B010BD49444C4584
:101E800000000000E91400005C0000205800002061
:101E9000440000203C00002002480068401C01492A
:101EA000086070476000002070B52648006818B1CF
:101EB00001202549086043E00020234908602348A9
:101EC0000068046B4FF0A5352068B0F1A53F0BD139
:101ED0006068B0F1A53F07D1A068B0F1A53F03D17C
:101EE000E068B0F1A53F05D01848016834310068BA
:101EF000FFF740FE1648016800E0491E01EB810033
:101F0000144A52F8200008B9012000E000200028FF
:101F1000F3D101EB81020F4B03EB82004268526860
:101F2000426000F108024368934202D1426852685D
:101F300042604268D268054B1A600548016000BFE4
:101F400070BD0000600000204C0000202800002030
:101F500040000020042800200EE0FFF72FF807497A
:101F6000087001210548FFF733F800231A46194687
:101F70000348006800F0F4F8EFE7000008000020D4
:101F80000C0000200DE04FF0FF310648006800F023
:101F90003BFA01210448FFF71BF801210348FFF732
:101FA00017F8F0E7100000200800002009000020CA
:101FB00010B50E48006840F47F000C4908600846E0
:101FC000006840F07F400860FFF75CFE0020084991
:101FD0000860FEF7C7F90748006840F0404005492F
:101FE0000860FEF7ABF9002010BD000020ED00E016
:101FF0002400002034EF00E010B500BF102080F373
:102000001188BFF34F8FBFF36F8F00BF00F032FB1B
:1020100018B14FF080500449086000BF002080F3E1
:10202000118800BF10BD000004ED00E02DE9F04173
:1020300004460126002722460021012000F01CF85A
:1020400005462846FFF764FA2846BDE8F0812DE9E9
:10205000F84304460D4601274FF000082B460022A6
:1020600011460120009400F024F806463046FFF7A0
:102070004FFA3046BDE8F8832DE9F84305460E4691
:10208000174605FB06F909F15000FFF7E9FC044685
:1020900064B1A04608F15008002084F846003B4691
:1020A0004246314628460094FFF741FA2046BDE8F3
:1020B000F8832DE9F84306460F4690461D46DDF8A5
:1020C00020902C464CB1012084F846004B464246F5
:1020D000394630460094FFF72AFA2046BDE8F883D7
:1020E00070B505460E462C46FFF7A8FDD4E90F1241
:1020F000206801FB0200A0600020A06320686060EF
:10210000E06B401E226C216800FB0211E160FF20A1
:1021100084F8440084F845009EB9206908B901207C
:1021200000E00020A8B904F1100000F0B1FB80B17C
:102130004FF0805009490860BFF34F8FBFF36F8F96
:1021400007E004F11000FFF743FD04F12400FFF75E
:102150003FFDFFF785FD012070BD000004ED00E0AC
:102160002DE9FF4383B0074688461D464FF000091E
:102170003C4600BFFFF762FDA06BE16B884201D3D4
:10218000022D28D12A4641462046FFF73CF9064653
:10219000606A08B9012000E0002068B904F1240059
:1021A00000F076FB88B14FF0805032490860BFF3F1
:1021B0004F8FBFF36F8F08E03EB14FF080502D4935
:1021C0000860BFF34F8FBFF36F8FFFF749FD01200A
:1021D00007B0BDE8F083059818B9FFF741FD00206E
:1021E000F6E7B9F1000F04D101A8FFF78FFD4FF01A
:1021F0000109FFF735FDFFF74FFEFFF71FFD94F9CB
:102200004400401C10B9002084F8440094F94500B3
:10221000401C10B9002084F84500FFF721FD05A9F6
:1022200001A800F089F9F0B92046FFF750FAA0B1F3
:1022300004F110000599FFF77BFD2046FFF7D0FB66
:1022400000F066FB002895D14FF0805009490860E6
:10225000BFF34F8FBFF36F8F8CE72046FFF7C0FBB4
:1022600000F056FB86E72046FFF7BAFB00F050FB74
:102270000020ADE704ED00E02DE9F84F05468A4661
:1022800016461F462C4600BF1021EFF3118081F344
:102290001188BFF34F8FBFF36F8F00BF8146A06BD4
:1022A000E16B884201D3022F22D194F945B0A06B93
:1022B00000903A4651462046FFF7A5F80BF1010081
:1022C00070B9606A08B9012000E0002038B904F153
:1022D000240000F0DDFA10B10EB10120306004E0FE
:1022E0000BF1010040B284F845004FF0010801E015
:1022F0004FF0000800BF89F3118800BF4046BDE8D9
:10230000F88F00002DE9F74183B005460F464FF0E6
:1023100000082C4600BFFFF791FCA66BF6B13946CA
:102320002046FFF75BF8701EA063206908B9012002
:1023300000E0002060B904F1100000F0A9FA38B103
:102340004FF080502F490860BFF34F8FBFF36F8F5E
:10235000FFF786FC012006B0BDE8F081059818B9AA
:10236000FFF77EFC0020F6E7B8F1000F04D101A8CA
:10237000FFF7CCFC4FF00108FFF772FCFFF78CFD74
:10238000FFF75CFC94F94400401C10B9002084F86D
:10239000440094F94500401C10B9002084F8450021
:1023A000FFF75EFC05A901A800F0C6F8F0B92046C9
:1023B000FFF780F9A0B104F124000599FFF7B8FCFC
:1023C0002046FFF70DFB00F0A3FA0028A3D14FF041
:1023D00080500C490860BFF34F8FBFF36F8F9AE7AF
:1023E0002046FFF7FDFA00F093FA94E72046FFF746
:1023F000F7FA00F08DFA2046FFF75CF900288AD042
:102400000020A8E704ED00E02DE9F34182B0054685
:1024100000272C46B84600BFFFF710FCA66BFEB1A4
:10242000701EA063206810B9FFF752FBA0602069FE
:1024300008B9012000E0002060B904F1100000F0AC
:1024400027FA38B14FF080503A490860BFF34F8FF8
:10245000BFF36F8FFFF704FC012004B0BDE8F081EB
:10246000039818B9FFF7FCFB0020F6E71FB9684690
:10247000FFF74CFC0127FFF7F3FBFFF70DFDFFF71C
:10248000DDFB94F94400401C10B9002084F844009E
:1024900094F94500401C10B9002084F84500FFF76E
:1024A000DFFB03A9684600F047F840BB2046FFF772
:1024B00001F9F0B1206838B9FFF7C0FBA06800F05F
:1024C00095F98046FFF7CCFB04F124000399FFF750
:1024D0002FFC2046FFF784FA00F01AFA00289BD15F
:1024E0004FF0805013490860BFF34F8FBFF36F8FD9
:1024F00092E72046FFF774FA00F00AFA8CE72046CC
:10250000FFF76EFA00F004FA2046FFF7D3F8002830
:1025100082D0B8F1000F0BD0FFF790FB2046FEF7FA
:10252000C5FF06463146A068FFF726FCFFF798FB7B
:10253000002092E704ED00E070B506460C46FFF778
:102540007DFB124802687068131A2068401C08B9A5
:10255000002517E00E4930680968884204D0706889
:10256000904201D801250DE02068984207D92068E3
:10257000C01A20603046FFF7C9FB002502E00020AA
:1025800020600125FFF76CFB284670BD3C00002051
:10259000500000202DE9FF4F85B080468946174640
:1025A000DDE912ABB800FFF75BFA064656B15C20D6
:1025B000FFF756FA04460CB1266304E03046FFF7F5
:1025C0005FFB00E000248CB1002084F85900CDE9C5
:1025D00000ABCDE902403A4649464046089BFEF72B
:1025E000BBFF2046FEF74CFE012501E04FF0FF3512
:1025F000284609B0BDE8F08F2DE9F04F85B00746B9
:10260000884691469A46DDE90EB6109CACB1A6B15B
:1026100025462E63022085F85900002004A9534660
:102620004A46CDE900B1CDE9025041463846FEF7B1
:1026300093FF2846FEF724FE01E000200490049852
:1026400005B0BDE8F08F00000549096809B901200F
:1026500005E00449096809B9022000E0002070473C
:102660004400002060000020014908687047000015
:102670003C0000202DE9F04100273948006800287F
:1026800066D138480068451C364805608DB9364823
:10269000D0F8008035480068334908603348C0F8F6
:1026A000008033480068401C31490860FFF70CF98E
:1026B00000BF3048006885423AD300BF2A4800680E
:1026C000006808B9012000E0002020B14FF0FF3081
:1026D000284908602BE024480068C068C468666820
:1026E000B54202D22348066021E0201DFFF716FA0A
:1026F000A06A18B104F11800FFF710FA1E49E06A49
:102700000968884202D91C49E06A0860E16A01EB65
:1027100081011A4A02EB8100211DFFF783FA184953
:10272000E06A0968C96A8842C8D30127C6E700BFC2
:1027300013480068C06A00EB8000104951F820007F
:10274000012800D901270F48006800B1012704E0E3
:102750000D480068401C0C4908603846BDE8F0810F
:10276000600000203C0000202C00002030000020F1
:1027700050000020580000204000002004280020C5
:10278000280000204C0000204800002070B50546BD
:102790002C4600261DB3206D401E2065E16CE06ACA
:1027A00088421CD0206DD0B9201DFFF7B7F9E06C2E
:1027B000E062E06AC0F13800A0610A49E06A096895
:1027C000884202D90749E06A0860E16A01EB8101A9
:1027D000054A02EB8100211DFFF724FA012630464D
:1027E00070BD0000400000200428002070B50546A0
:1027F0002C460026002D42D02249E06A0968C96AA9
:10280000884235D2A06900F0004028B91D48006810
:10281000C06AC0F13800A061E16A01EB81011A4A87
:1028200002EB81016069884201D1012000E00020B3
:10283000C0B1201DFFF772F912480068C06AE0625B
:102840001249E06A0968884202D91049E06A0860C2
:10285000E16A01EB81010C4A02EB8100211DFFF7C7
:10286000E1F903E007480068C06AE062012606E07B
:102870000449E06C0968C96A884200D201263046E2
:1028800070BD000028000020042800204000002027
:1028900070B50646F068C46804F11800FFF73EF909
:1028A00015480068A0B9201DFFF738F91349E06A00
:1028B0000968884202D91149E06A0860E16A01EBBF
:1028C00081010F4A02EB8100211DFFF7ABF904E003
:1028D00004F118010B48FFF7A5F90B49E06A0968F4
:1028E000C96A884204D9012501200849086000E02E
:1028F0000025284670BD0000600000204000002038
:10290000042800208C2C0020280000204C000020EF
:1029100070B500240026FFF791F92E480068401E8C
:102920002C4908600846006800284ED12A480068F3
:1029300000284AD023E02948C068C46804F1180080
:10294000FFF7ECF8201DFFF7E9F82549E06A096870
:10295000884202D92249E06A0860E16A01EB8101FC
:10296000204A02EB8100211DFFF75CF91E49E06A55
:102970000968C96A884202D301201C4908601748C7
:10298000006808B9012000E000200028D3D00CB175
:10299000FEF79AFF1648056865B100BFFFF76AFEAB
:1029A00010B10120114908606D1E002DF6D10020E4
:1029B0000F4908600D48006838B1012630070D49FD
:1029C0000860BFF34F8FBFF36F8FFFF749F93046B1
:1029D00070BD000060000020380000208C2C00201A
:1029E0004000002004280020280000204C00002087
:1029F0004800002004ED00E010B586B00024FEF78A
:102A00009BFC10480068D0B100200590049003AAF8
:102A100004A905A8FFF7A2F82822DDE90410002385
:102A2000CDE90021029008A10948039AFFF7E4FDCF
:102A3000084908600846006800B1012400BF20462C
:102A400006B010BD6C000020546D722053766300F8
:102A5000C7190000700000202DE9FF4705460C460D
:102A600016461F46DDF830804FF000091448006814
:102A700010B3009401960295062C15DAFFF7E4FDD9
:102A8000022808D10023424669460D480068FFF736
:102A900067FB814610E000231A4669460848006833
:102AA000FFF75EFB814607E000233A46694604488B
:102AB0000068FFF7E1FB8146484604B0BDE8F087B7
:102AC0006C0000204FF04070E1EE100A70470000EB
:102AD0000040004010000000008005401000000091
:102AE000005000401100000000900540110000005F
:102AF000006000401200000000A00540120000002D
:102B0000007000401300000000B0054013000000FA
:102B1000004002401400000000C005401400000006
:102B2000005002402E00000000D005402E000000A2
:102B3000006002402F00000000E005402F00000070
:102B4000007002403000000000F00540300000003E
:102B500000D0034046000000000006404600000090
:102B6000001006404700000000200640480000001A
:102B7000003006407F00000000400640800000005A
:102B80000050064084000000006006408C000000F9
:102B900000400040100000000080054010000000D0
:102BA000005000401100000000900540110000009E
:102BB000006000401200000000A00540120000006C
:102BC000007000401300000000B00540130000003A
:102BD000004002401400000000C005401400000046
:102BE000005002402E00000000D005402E000000E2
:102BF000006002402F00000000E005402F000000B0
:102C0000007002403000000000F00540300000007D
:102C100000D00340430000000000064043000000D5
:102C2000001006404400000000200640450000005F
:102C300000300640580000000040064059000000E7
:102C4000005006405C000000006006406400000088
:102C5000007006406C000000008006406D0000001F
:102C6000009006407F0000000040004000800540CA
:102C700000500040009005400060004000A005406A
:102C80000070004000B005400040024000C0054018
:102C90000050024000D005400060024000E00540C6
:102CA0000070024000F0054000D0034000000640E4
:102CB000001006400010064000200640002006409C
:102CC000003006400030064000400640004006400C
:102CD000005006400050064000600640006006407C
:102CE00000700640007006400080064000800640EC
:102CF000009006400090064040420F0000201C005B
:102D000080841E0000802500999E36000040380017
:102D100000093D0000803E0000004B00404B4C008D
:102D200000204E00808D5B0000C05D0000807000C0
:102D300000127A0000007D0080969800001BB7000A
:102D40000080BB00C0E8CE00647ADA000024F40002
:102D50000000FA0080A81201002D310100366E013A
:102D600040787D01400000000000000000010000EC
:102D70003E0008000000000000010000A00000006C
:102D800002000000000100003454010000000000B7
:102D9000000100002B700600000000000001000090
:102DA00028000000000000000001000027000100D2
:102DB00000000000000100002000000000000000F2
:102DC00000010000500000000200000000010000AF
:102DD0001AAC000000000000000100001794090078
:102DE000000000000001000016980500000000002F
:102DF00000010000140000000000000000010000BD
:102E0000138008000000000000010000A000000086
:102E10000800000000010000100000000000000099
:102E20000001000028000000020000000001000076
:102E300040000000040000000001000060000000ED
:102E400000000000000100005D000C000000000018
:102E50000001000050000000000000000001000020
:102E60004E000200000000000001000041AC010023
:102E700000000000000100003C0000000000000015
:102E8000000100003A80090000000000000100007D
:102E900030000000000000000001000028000000D9
:102EA00000000000000100002700010000000000F9
:102EB0000001000023600600000000000001000087
:102EC0002160080000000000000100001E0000005A
:102ED00000000000000100001DC004000000000010
:102EE000000100005000000002000000000100008E
:102EF00018000000000000000001000014000000A5
:102F0000000000000001000060000000040000005C
:102F1000000100000024F40030003000005A62027A
:102F20009100910000879303D200D20000B4C40442
:102F30001301130100E1F50554015401000E2707A8
:102F40009501950100688909001C4E0E682F00004C
:102F500000C0004000D0004000E00040001800F039
:102F6000011800F0021800F03031323334353637B2
:102F70003839616263646566000000009C2F0000C0
:102F80000000002078000000A802000014300000BB
:102F900078000020782F0000C4020000000000002C
:102FA0000000000000000000000000000000000021
:102FB0000000000080F0FA020000000000000000A5
:102FC000AAAAAAAA00000000000000000000000059
:102FD00000000000000000000000000000000000F1
:102FE00000000000000000000000000000000000E1
:102FF00000000000000000000000000000000000D1
:1030000000000000000000000000000000000000C0
:0430100000000000BC
:04000005000003DD17
:00000001FF
