:020000040000FA
:10000000E02F0020DD030000E5030000E70300000F
:10001000E9030000EB030000ED0300000000000016
:100020000000000000000000000000001D030000B0
:10003000F10300000000000079030000AD0B000098
:10004000F7030000F9030000FB030000FD030000BC
:10005000FF03000001040000030400000504000089
:1000600007040000090400000B0400000D04000058
:100070000F04000011040000130400001504000028
:1000800017040000190400001B0400001D040000F8
:100090001F040000210400002304000025040000C8
:1000A00027040000290400002B0400002D04000098
:1000B0002F04000031040000330400003504000068
:1000C00037040000390400003B0400003D04000038
:1000D0003F04000041040000430400004504000008
:1000E0004704000049040000000000004B04000029
:1000F0004D0400004F0400005104000053040000B0
:100100005504000057040000590400005B0400007F
:1001100000000000000000005D0400005F0400001B
:10012000610400006304000065040000670400002F
:10013000690400006B0400006D0400006F040000FF
:1001400000000000000000000000000000000000AF
:1001500071040000730400007504000077040000BF
:10016000000000000000000000000000000000008F
:10017000000000000000000000000000000000007F
:10018000000000000000000000000000000000006F
:10019000000000000000000000000000000000005F
:1001A000000000000000000000000000000000004F
:1001B000790400007B0400007D0400007F0400003F
:1001C000810400008304000085040000870400000F
:1001D000890400008B0400008D0400008F040000DF
:1001E000910400009304000095040000000000004A
:1001F0000000000097040000990400009B04000028
:100200009D0400009F0400000000000000000000AA
:10021000A1040000A3040000A5040000A70400003E
:10022000A9040000AB040000AD040000AF0400000E
:10023000B1040000B3040000B5040000B7040000DE
:10024000B9040000BB040000BD040000BF040000AE
:10025000C1040000C3040000C5040000C70400007E
:10026000C9040000CB040000CD04000000F002F837
:1002700000F03CF80AA090E8000C82448344AAF104
:100280000107DA4501D100F031F8AFF2090EBAE802
:100290000F0013F0010F18BFFB1A43F001031847BA
:1002A0005026000070260000103A24BF78C878C19C
:1002B000FAD8520724BF30C830C144BF04680C606C
:1002C000704700000023002400250026103A28BFB4
:1002D00078C1FBD8520728BF30C148BF0B607047B8
:1002E0001FB502F0D5F91FBD10B510BD00F0CBF958
:1002F000114603B400F024FD03BCFFF7F1FF00F04A
:1003000021FD00F0E5F903B4FFF7EEFF03BC00F0B8
:10031000EDF900000138FDD1704700002C4B196841
:100320000868B0E8F04F80F30988BFF36F8F4FF093
:10033000000080F311887047000000000848006842
:10034000006880F308884FF0000080F3148862B6DC
:1003500061B6BFF34F8FBFF36F8F00DF00BF00BFE9
:1003600008ED00E0DFF80C00016841F47001016065
:10037000704700BF88ED00E0EFF30980BFF36F8F97
:10038000134B1A681EF0100F08BF20ED108A20E9E9
:10039000F04F106009B44FF0100080F31188BFF3E4
:1003A0004F8FBFF36F8F01F091FB4FF0000080F390
:1003B000118809BC19680868B0E8F04F1EF0100FEA
:1003C00008BFB0EC108A80F30988BFF36F8F7047C5
:1003D00010000020EFF30580704700003F48804781
:1003E0003F480047FEE7FEE7FEE7FEE7FEE7FEE7E1
:1003F000FEE7FEE7FEE7FEE7FEE7FEE7FEE7FEE7D5
:10040000FEE7FEE7FEE7FEE7FEE7FEE7FEE7FEE7C4
:10041000FEE7FEE7FEE7FEE7FEE7FEE7FEE7FEE7B4
:10042000FEE7FEE7FEE7FEE7FEE7FEE7FEE7FEE7A4
:10043000FEE7FEE7FEE7FEE7FEE7FEE7FEE7FEE794
:10044000FEE7FEE7FEE7FEE7FEE7FEE7FEE7FEE784
:10045000FEE7FEE7FEE7FEE7FEE7FEE7FEE7FEE774
:10046000FEE7FEE7FEE7FEE7FEE7FEE7FEE7FEE764
:10047000FEE7FEE7FEE7FEE7FEE7FEE7FEE7FEE754
:10048000FEE7FEE7FEE7FEE7FEE7FEE7FEE7FEE744
:10049000FEE7FEE7FEE7FEE7FEE7FEE7FEE7FEE734
:1004A000FEE7FEE7FEE7FEE7FEE7FEE7FEE7FEE724
:1004B000FEE7FEE7FEE7FEE7FEE7FEE7FEE7FEE714
:1004C000FEE7FEE7FEE7FEE7FEE7FEE7FEE70000E9
:1004D00004480549034A054B70470000C50B00005E
:1004E0006D020000E02D0020E02F0020E02D002014
:1004F000032A40F2308010F0030C00F0158011F850
:10050000013BBCF1020F624498BF11F801CB00F827
:10051000013B38BF11F8013BA2F1040298BF00F87B
:1005200001CB38BF00F8013B11F0030300F030802D
:10053000083AC0F0088051F8043B083A51F804CB5F
:10054000A0E80810F5E7121D5CBF51F8043B40F825
:10055000043BAFF30080D20724BF11F8013B11F830
:1005600001CB48BF11F8012B24BF00F8013B00F874
:1005700001CB48BF00F8012B704702F0FF0343EAAC
:10058000032242EA024200F037B8704770477047D2
:1005900010B5203AC0F00B80B1E81850203AA0E81E
:1005A0001850B1E81850A0E81850BFF4F5AF5FEA52
:1005B000027C24BFB1E81850A0E8185044BF18C905
:1005C00018C0BDE810405FEA827C24BF51F8043BAC
:1005D00040F8043B08BF7047D20728BF31F8023B00
:1005E00048BF11F8012B28BF20F8023B48BF00F894
:1005F000012B70474FF000020429C0F0128010F068
:10060000030C00F01B80CCF1040CBCF1020F18BFEE
:1006100000F8012BA8BF20F8022BA1EB0C0100F081
:100620000DB85FEAC17C24BF00F8012B00F8012B54
:1006300048BF00F8012B70474FF0000200B5134689
:1006400094469646203922BFA0E80C50A0E80C50F2
:10065000B1F12001BFF4F7AF090728BFA0E80C50A3
:1006600048BF0CC05DF804EB890028BF40F8042B9C
:1006700008BF704748BF20F8022B11F0804F18BF09
:1006800000F8012B7047754600F02CF8AE460500C7
:100690006946534620F00700854618B020B5FFF79D
:1006A00017FFBDE820404FF000064FF000074FF065
:1006B00000084FF0000B21F00701AC46ACE8C00980
:1006C000ACE8C009ACE8C009ACE8C0098D46704789
:1006D00010B50446AFF300802046BDE81040FFF798
:1006E00012BE0000004870477C2D002001491820F0
:1006F000ABBEFEE726000200704702F001031BB10B
:10070000D0F800340B4302E0D0F800348B43C0F83B
:10071000003402F002031BB1D0F820340B4302E096
:10072000D0F820348B43C0F820347047F0B55F4DCB
:100730002D685F4E35405F4EB5421AD0002416E05A
:100740000125A5400D4085B1D0F8C45F67000326A0
:10075000BE40B543C0F8C45FD0F8C45F6700C2F3C1
:100760004116BE403543C0F8C45F651CECB2082C8E
:10077000E6DB02F001051DB1D0F800550D4302E0A3
:10078000D0F800558D43C0F8005502F002051DB1A8
:10079000D0F804550D4302E0D0F804558D43C0F85D
:1007A000045502F004051DB1D0F808550D4302E0D0
:1007B000D0F808558D43C0F8085502F008051DB162
:1007C000D0F818550D4302E0D0F818558D43C0F805
:1007D0001855364D2D68364E3540364EB5420BD045
:1007E00002F010051DB1D0F83C550D4302E0D0F8E1
:1007F0003C558D43C0F83C5503F001051DB1D0F8C0
:100800000C550D4302E0D0F80C558D43C0F80C5543
:1008100003F002051DB1D0F810550D4302E0D0F8E9
:1008200010558D43C0F8105503F004051DB1D0F8E4
:1008300014550D4302E0D0F814558D43C0F81455FB
:1008400003F008051DB1D0F81C550D4302E0D0F8A7
:100850001C558D43C0F81C55144D2D68144E354061
:10086000144EB54217D003F400751DB1D0F84455AD
:100870000D4302E0D0F844558D43C0F8445503F4CD
:1008800040751DB1D0F840550D4302E0D0F84055F9
:100890008D43C0F840551BB9D0F828550D4302E0F0
:1008A000D0F828558D43C0F82855F0BD00E00F4022
:1008B0000000FF700000051030B504460D46082307
:1008C000012229462046FFF731FF01222946204612
:1008D000FFF713FF30BD002303EB8103C2507047C5
:1008E000F0B55048036E026F02F0004010B102F004
:1008F000700001E003F03000202811D003DC38B193
:10090000102815D10AE030280CD0702810D10CE046
:100910004548C3F3841750F827100BE0434909E01A
:10092000434907E047F2305104E04FF4004101E051
:100930000020F0BD00BF4FF0FF3402F0004010B1C6
:1009400002F4006028B102F0004090BB03F40060A4
:1009500078BB384805683348D0F8646106F01F005A
:10096000401CC6F304277F1C10FB07F04000B1FBBE
:10097000F0F1C5F309004843C5F389274F4300EB65
:10098000972143F480032748006900F47040B0F5D4
:10099000804F13D006DCB0F5005F0BD0B0F5405FA0
:1009A00012D109E0B0F5E04F0AD0B0F5104F0BD1ED
:1009B00008E00BE0204C08E0204C06E0204C04E06E
:1009C000204C02E0204C00E000BF00BF03F4800098
:1009D00018B302F00040D8B102F0804090B102F0AC
:1009E000004010B102F4006028B102F0004048B9A4
:1009F00003F4006030B94F00C2F38650401CB7FBCF
:100A0000F0F10AE0C2F3C550401CB1FBF0F104E084
:100A1000C3F3C350401CB1FBF0F18C4200D221461D
:100A2000084686E700E00F409C2600000024F40002
:100A300000093D0060E10F4000B4C40480F0FA02F8
:100A4000005A620240787D01002D31012DE9F0410C
:100A500006464448046E056F44F4006424F48004A0
:100A600045F400650466056704F00100D8B106F09E
:100A70000100C0B966F0010004404FF480703949AC
:100A80008865084604664FF4002702E07F1E07B918
:100A900005E03448006D00F480700028F6D000BFF7
:100AA0000FB9BDE8F08124F4FE6406F4FE6004434F
:100AB0002D4805402C49A13106EA0100054306F006
:100AC000080045EAC00527480466056724F4005479
:100AD00006F40050044325F4005506F40050054385
:100AE00040202049886505F0004018B10846056798
:100AF000046602E01B48046605671C480440C143C5
:100B000006EA0100044325F0FC5506F0FC500543BD
:100B100006F0804040B144F4800425F48005144977
:100B200006EA0100054301E025F0804506F4006077
:100B300080B94FF4004706E00E48006800F001005D
:100B400000B102E07F1E002FF6D100BF24F4006444
:100B500025F400650348046605671020FFF7DAFBFB
:100B600000BF9EE700E00F408FFFFF7FFEFF3FF8D2
:100B70000000404068E10F4010B50121C0F307229A
:100B8000094B1A4402F0704242F00072C0F307238E
:100B9000054C2344C3F3130342EA4312C3B242EAAF
:100BA0008302116010BD000000E60F4010B54FF049
:100BB000E020006901F02EFB012801D001F002F8CD
:100BC00010BD00001B49096841F47001194A116009
:100BD00019491A4A11671A4911661A4911661A49C0
:100BE0001167002000E0401CB0F57A7FFBD3174965
:100BF000124A116616491167002000E0401CB0F54A
:100C00007A7FFBD313490D4A116600BF0B49096D6A
:100C100001F040014029F9D10F49084A11664FF00F
:100C2000C0711167002000E0401C42F21071884240
:100C3000FAD3704788ED00E01028800700E00F40ED
:100C4000D13A8E07422D9E0100288001420D9E015F
:100C500000088001420DDE014205DE0110B5FFF7FC
:100C60003FFE0321B0FBF1F04FF47A71B0FBF1F0DD
:100C7000491000FB01F42046FFF74CFB10BD10B5F6
:100C8000044600F087F820B14FF0FF31206801F0F2
:100C9000A1F910BD70B50546286800F0DFFD0024FD
:100CA0000BE0084951F824102868884204D100203C
:100CB000044941F8240002E0641C052CF1D300BF74
:100CC00070BD0000E403002070B5054600202860D8
:100CD000002415E0124850F8240080B904EB840089
:100CE000104A02EB0011012000F097FF0C4941F877
:100CF0002400084650F824002860012070BD641CC0
:100D0000052CE7D300F046F818B1012000F074FF7D
:100D10002860286808B90020F0E70120EEE700000D
:100D2000E40300205402002010B5044600F032F81D
:100D300028B100231A461946206800F0F7FF10BDBD
:100D4000704700001CB50D48FFF780FE0C48FFF708
:100D500013FF0320FFF7DEFA30210A48FFF7ACFD4E
:100D60000020012103460A02CDE9001006A108482F
:100D700001F0F6F900F058FE00BFFEE7400500C1A3
:100D8000020800F0006000404D79205461736B0050
:100D90009917000010B50748007848B901F03AFAF1
:100DA000012803D001200349087010BD0020FCE792
:100DB0000120FAE7000000202DE9F04105460E462B
:100DC0001648076816480068001D00F081FC681C82
:100DD00038B936B112480168091D124800F0CFFC3D
:100DE0001AE07C190E4800684460BC4207D20C48E7
:100DF0000168091D0C48006800F0A7FC0CE00848D9
:100E00000168091D0948006800F09FFC0848006857
:100E1000844201D206480460BDE8F081240000202D
:100E200010000020A02C002018000020140000203A
:100E30004000002010B5044600F0D8FC24480068AB
:100E4000401C234908602348006840B921480460D9
:100E50000846006801280DD100F0A6F90AE01E48F6
:100E6000006838B91B480068C06AE16A884201D846
:100E70001848046019480068401C18490860084672
:100E8000006860641649E06A0968884202D914491A
:100E9000E06A0860E16A01EB8101124A02EB81001D
:100EA000211D00F06CFC00F0B3FC0B48006868B139
:100EB00008480068C06AE16A884207D24FF0805053
:100EC00009490860BFF34F8FBFF36F8F10BD00005B
:100ED00020000020100000202C0000203C000020FA
:100EE00028000020F027002004ED00E008B500F005
:100EF0007DFC0E480068A8B90D4800F016FC0D48AE
:100F000000F013FC0A480C4908600A480B490860C5
:100F100000200B4B0B4A10210090052000F0AFFE83
:100F20000249086000F074FC08BD00005400002075
:100F3000B42C0020C82C00204C00002050000020C1
:100F4000DC2C00202C2D002010B516E000F04EFC0B
:100F50000C48C068C468201D00F0BAFB0A4800684D
:100F6000401E0949086009480068401E074908609A
:100F700000F04EFC204600F05FF8044800680028AE
:100F8000E4D110BD8C2C0020200000201C0000208B
:100F900070B504460D46206C70B1216CE0680144C8
:100FA000E160D4E90210884201D32168E16028465B
:100FB000226CE168FFF79CFA70BD2DE9F041044610
:100FC0000F4615464FF00008A66B206C48B9206804
:100FD00000282CD1A06801F0BFF980460020A06055
:100FE00025E07DB93946226C6068FFF781FA216CF3
:100FF000606808446060D4E90101884217D3206822
:10100000606014E03946226CE068FFF771FA216CE9
:10101000E068411AE1602168E068884203D2216CEF
:10102000A068411AE160022D01D106B1761E701C44
:10103000A0634046BDE8F08110B5044694F859001D
:1010400030B9206B00F0F4FB204600F0F1FB06E025
:1010500094F85900012802D1204600F0E9FB10BDA8
:1010600001464A6A22B10A6B1268C2F1380000E0F8
:10107000002070470146084A126812680AB9012226
:1010800000E000220A600A6822B9034A1268D268A6
:10109000106800E0002070474C00002000BFFFF700
:1010A00053FF064800680128F9D94FF080500449E1
:1010B0000860BFF34F8FBFF36F8FF0E7F02700207A
:1010C00004ED00E010B5044654B10020A06020609B
:1010D0000021E16000231A461946204600F026FE52
:1010E00010BD2DE9F04106460D4617469846069C70
:1010F0000DB9246000E02760E663256401212046E5
:1011000000F0D4FD84F84C80BDE8F0812DE9F05F5B
:1011100081460E4690469A460A9F0C9C4FEA8801EB
:10112000A522206BFFF729FAA8F10100216B01EB42
:10113000800B2BF0070B86B1002507E0715D04F1F1
:1011400034004155705D00B902E06D1C102DF5D3DF
:1011500000BF00214320015502E0002084F8340044
:10116000382F00D33727E762E76400202065201D71
:1011700000F0E8FA04F1180000F0E4FA2461C7F185
:101180003800A06164620020606584F8580052460F
:101190004946584600F086FA20600B9808B10B9833
:1011A0000460BDE8F09F000010B5002407E004EBE8
:1011B00084010F4A02EB810000F0B7FA641C382C5E
:1011C000F5D30C4800F0B1FA0B4800F0AEFA0B482A
:1011D00000F0ABFA0A4800F0A8FA0A4800F0A5FAB5
:1011E00004480949086004480849086010BD000027
:1011F000F0270020502C0020642C0020782C0020A8
:101200008C2C0020A02C00201400002018000020AE
:101210002DE9F04104460D4616461F464FF00008E2
:1012200065602461B5420CD8F01BA169884202D3E5
:101230004FF0010811E0211D0948006800F085FA0F
:101240000BE0BE4204D2BD4202D34FF0010804E0DD
:10125000211D0448006800F078FA4046BDE8F0819E
:10126000500000204C00002070B5054600F0BEFA8A
:10127000A86B08B9012400E0002400F0C9FA204658
:1012800070BD70B5054600F0B1FAA86BE96B8842F5
:1012900001D1012400E0002400F0BAFA204670BD1C
:1012A000F8B505460E4614480068C068C468201D9D
:1012B00000F00EFA94F8280000F0040088B1A0694C
:1012C00041192B4632462046FFF7A2FF78B1002095
:1012D00003462A4601460090204601F0A3F907463E
:1012E00005E094F8280020F0010084F8280020464A
:1012F000216A8847F8BD00004C000020F0B587B097
:1013000076E00398002805DA04AED6E90020B1683B
:10131000904700BF039800286ADB059C606908B904
:10132000012000E0002010B9201D00F0D1F902A832
:1013300000F0BEF8054603980A2857D2DFE800F00F
:101340000905072D354606082E3600BF00BF00BF31
:1013500000BF94F8280040F0010084F828000498A9
:10136000A269811803462A462046FFF751FF98B12B
:101370002046216A884794F8280000F0040058B1FC
:10138000002000900498A1694218002319462046C5
:1013900001F048F9074600BF29E000BF94F8280093
:1013A00020F0010084F8280021E000BF94F8280014
:1013B00040F0010084F828000498A061A069411958
:1013C0002B462A462046FFF723FF10E094F828001A
:1013D00000F0020018B9204600F02AFA05E094F85F
:1013E000280020F0010084F8280000E000BF00BFC2
:1013F000002203A90348006800F06AFD002880D19C
:1014000007B0F0BD54000020F8B505460C4600F0CA
:1014100055FB684600F04CF80646009820BB44B9DE
:10142000B54206D801F05AF831462846FFF738FF92
:101430001CE03CB10E480068006808B9012000E0DB
:1014400000200446A91B22460A48006800F010FA52
:1014500001F044F850B94FF0805007490860BFF3DD
:101460004F8FBFF36F8F01E001F038F8F8BD000037
:10147000500000205400002004ED00E00A490968F3
:10148000096809B9012100E0002121B14FF0FF31C5
:10149000064A116006E004490968C968C868034A39
:1014A00041681160704700001400002040000020D7
:1014B00070B5044600F0BEFE054607480068854248
:1014C00004D200F00BF80120206001E00020206031
:1014D00001480560284670BD5C0000202DE9F843F6
:1014E00028E01E480068C06805681C480068C0689D
:1014F000C468201D00F0ECF82046216A884794F863
:10150000280000F00400A8B1A0694619AE4207D92E
:1015100066602461211D1148006800F016F909E099
:10152000002003462A4601460090204601F07AF842
:10153000804600BF09480068006808B9012000E043
:1015400000200028CDD005480768054800680349F9
:10155000086003480760BDE8F88300004C000020E5
:101560005000002000BF102080F31188BFF34F8F80
:10157000BFF36F8F00BF00BFFEE708B500BF68462E
:10158000FFF778FD044620460099FFF73DFFFFF77F
:10159000B5FEF4E770B5044600F028F994F945501B
:1015A00010E0606A08B9012000E0002038B904F1B9
:1015B000240000F053FF18B100F0C6F900E003E08A
:1015C000681E45B2002DECDC00BFFF2084F845000A
:1015D00000F01EF900F00AF994F9445010E0206977
:1015E00008B9012000E0002048B904F1100000F023
:1015F00035FF08B100F0A8F9681E45B200E001E02F
:10160000002DECDC00BFFF2084F8440000F000F95E
:1016100070BD000070B50446002504F0070020B13D
:1016200004F00700C0F10800044400F047FA124833
:10163000006820B9114820F007000F4908601048E1
:101640000068204441F6F871884210D20C480068C6
:1016500020440B490968884209D9074800680849AD
:10166000096845180648006820440549086000F0EC
:1016700035FF284670BD00000C000020F807002050
:10168000080000200648006830B10549096801F1EA
:101690005000096D491C0160014800687047000056
:1016A00010000020001F4FF080730360001F21F026
:1016B00001030360001F054B036014380260001F24
:1016C0006FF00203036020387047000065150000CA
:1016D00001460A69D1E901309860D1E901035860F7
:1016E0005068884201D18868506000200861106805
:1016F000401E106010687047034B0360034B0B6083
:101700008023136070470000F80300205404002079
:10171000034B0360034B0B605023136070470000C2
:1017200054060020B0060020704700F10801416017
:101730004FF0FF31816000F10801C16001610021BB
:101740000160704700210161704710B502460B68C7
:101750005C1C0CB9106907E002F1080000E0406869
:10176000446824689C42FAD944684C604C68A16083
:10177000886041600A611468641C146010BD42688E
:101780004A6093688B609368596091600861036850
:101790005B1C03607047000008B500BF00F04AFD05
:1017A000009000BF102211460F48FFF794F8FFF792
:1017B00055FA202211460C48FFF78DF8FFF74EFA34
:1017C000002210210848FFF786F8FFF747FA0022A9
:1017D00020210548FFF77FF8FFF740FA4FF47A71B0
:1017E000684600F06BF8DDE70060004000BF1020A5
:1017F00080F31188BFF34F8FBFF36F8F00BF034893
:101800000068401C0149086070470000600000202B
:1018100006480068401E054908600846006820B96F
:10182000002080F3118800BF00BF704760000020D7
:101830007047000000204FF0E021086188610648F1
:1018400000684FF47A71B0FBF1F0401E4FF0E021D8
:1018500048610720086170470400002070B5044605
:10186000254695F8460010B92846FFF7E1FF70BD00
:101870002DE9F04105460E4617462C46FFF7B6FF08
:1018800094F94400401C10B9002084F8440094F9F5
:101890004500401C10B9002084F84500FFF7B8FF50
:1018A000A06B28B93A46314604F1240000F062F8F2
:1018B0002046FFF76FFEBDE8F08100002DE9F047FC
:1018C000044688464FF0000900F0F8F8164806680C
:1018D000206800EB08052068B04207D92068A842BC
:1018E0000BD9B54209D94FF0010906E02068A8429A
:1018F00001D8B54201D94FF001092560B9F1000FB7
:1019000003D0A81B0021FFF757FA00F0E7FD0746B8
:101910003FB94FF0805005490860BFF34F8FBFF3C8
:101920006F8FBDE8F08700002400002004ED00E088
:101930000349096801600349096841607047000074
:101940003800002024000020012001490860704771
:101950003400002070B505460C4605480168183172
:101960002846FFF7F2FE01212046FFF725FA70BD59
:101970001000002070B506460D4614460648016862
:1019800018313046FFF7FBFE0CB14FF0FF35214612
:101990002846FFF711FA70BD100000202DE9F0472E
:1019A00006460F4634464FF00109002E35D0E06C54
:1019B000B84201D23D4600E0E56CE06AA8422CD076
:1019C000206D012829D1D4F82C80E562A06900F0AF
:1019D000004010B9C5F13800A06108EB8801104A39
:1019E00002EB81016069884201D1012000E0002002
:1019F00098B1201DFFF76CFE0A49E06A0968884229
:101A000002D90849E06A0860E16A01EB8101044AF1
:101A100002EB8100211DFFF7B2FEBDE8F087000058
:101A2000F02700202800002010B586B00020059087
:101A3000049003AA04A905A8FFF75EFE0022DDE9D1
:101A400004101346CDE90021029015A11648039A0F
:101A500000F0B8FB154908600846006808B1012489
:101A600000E00024012C02D100F0ACFD0446012C62
:101A700014D100BF102080F31188BFF34F8FBFF344
:101A80006F8F00BF4FF0FF300949086001200949FE
:101A9000086000200849086000F070F806B010BD2A
:101AA00049444C45000000009D1000004400002007
:101AB000400000202C000020240000200248006884
:101AC000401C0149086070474800002070B5264856
:101AD000006818B101202549086043E0002023492F
:101AE000086023480068046B4FF0A5352068B0F10A
:101AF000A53F0BD16068B0F1A53F07D1A068B0F158
:101B0000A53F03D1E068B0F1A53F05D018480168B2
:101B100034310068FFF708FE1648016800E0491EEE
:101B200001EB8100144A52F8200008B9012000E0BE
:101B300000200028F3D101EB81020F4B03EB820060
:101B400042685268426000F108024368934202D141
:101B50004268526842604268D268054B1A60054884
:101B6000016000BF70BD000048000020340000206C
:101B70001000002028000020F027002010B50E489B
:101B8000006840F47F000C4908600846006840F097
:101B90007F400860FFF74EFE002008490860FEF70E
:101BA000E1FB0748006840F0404005490860FEF747
:101BB000C5FB002010BD000020ED00E0600000200B
:101BC00034EF00E010B500BF102080F31188BFF3A0
:101BD0004F8FBFF36F8F00BF00F032FB18B14FF093
:101BE00080500449086000BF002080F3118800BFC6
:101BF00010BD000004ED00E02DE9F041044601268F
:101C0000002722460021012000F01CF80546284646
:101C1000FFF758FA2846BDE8F0812DE9F84304465D
:101C20000D4601274FF000082B46002211460120E7
:101C3000009400F024F806463046FFF743FA304699
:101C4000BDE8F8832DE9F84305460E46174605FB27
:101C500006F909F15000FFF7DDFC044664B1A04627
:101C600008F15008002084F846003B4642463146C1
:101C700028460094FFF735FA2046BDE8F8832DE9A1
:101C8000F84306460F4690461D46DDF820902C4648
:101C90004CB1012084F846004B4642463946304656
:101CA0000094FFF71EFA2046BDE8F88370B505469C
:101CB0000E462C46FFF79AFDD4E90F12206801FB6F
:101CC0000200A0600020A06320686060E06B401EFE
:101CD000226C216800FB0211E160FF2084F84400BF
:101CE00084F845009EB9206908B9012000E0002071
:101CF000A8B904F1100000F0B1FB80B14FF08050A2
:101D000009490860BFF34F8FBFF36F8F07E004F1FD
:101D10001000FFF70AFD04F12400FFF706FDFFF7AE
:101D200077FD012070BD000004ED00E02DE9FF43C8
:101D300083B0074688461D464FF000093C4600BF69
:101D4000FFF754FDA06BE16B884201D3022D28D12F
:101D50002A4641462046FFF730F90646606A08B930
:101D6000012000E0002068B904F1240000F076FBB7
:101D700088B14FF0805032490860BFF34F8FBFF3F6
:101D80006F8F08E03EB14FF080502D490860BFF3DF
:101D90004F8FBFF36F8FFFF73BFD012007B0BDE80A
:101DA000F083059818B9FFF733FD0020F6E7B9F185
:101DB000000F04D101A8FFF7BBFD4FF00109FFF7A9
:101DC00027FDFFF77BFEFFF711FD94F94400401C4F
:101DD00010B9002084F8440094F94500401C10B963
:101DE000002084F84500FFF713FD05A901A800F0C5
:101DF00089F9F0B92046FFF744FAA0B104F11000C8
:101E00000599FFF7A7FD2046FFF7C4FB00F066FB2E
:101E1000002895D14FF0805009490860BFF34F8FDB
:101E2000BFF36F8F8CE72046FFF7B4FB00F056FB43
:101E300086E72046FFF7AEFB00F050FB0020ADE741
:101E400004ED00E02DE9F84F05468A4616461F4688
:101E50002C4600BF1021EFF3118081F31188BFF3EE
:101E60004F8FBFF36F8F00BF8146A06BE16B88423D
:101E700001D3022F22D194F945B0A06B00903A46CD
:101E800051462046FFF799F80BF1010070B9606ADE
:101E900008B9012000E0002038B904F1240000F066
:101EA000DDFA10B10EB10120306004E00BF1010049
:101EB00040B284F845004FF0010801E04FF00008FF
:101EC00000BF89F3118800BF4046BDE8F88F0000CD
:101ED0002DE9F74183B005460F464FF000082C4628
:101EE00000BFFFF783FCA66BF6B139462046FFF72B
:101EF0004FF8701EA063206908B9012000E000209F
:101F000060B904F1100000F0A9FA38B14FF0805028
:101F10002F490860BFF34F8FBFF36F8FFFF778FC37
:101F2000012006B0BDE8F081059818B9FFF770FCF4
:101F30000020F6E7B8F1000F04D101A8FFF7F8FC84
:101F40004FF00108FFF764FCFFF7B8FDFFF74EFC08
:101F500094F94400401C10B9002084F8440094F91E
:101F60004500401C10B9002084F84500FFF750FCE4
:101F700005A901A800F0C6F8F0B92046FFF774F9EA
:101F8000A0B104F124000599FFF7E4FC2046FFF717
:101F900001FB00F0A3FA0028A3D14FF080500C49B8
:101FA0000860BFF34F8FBFF36F8F9AE72046FFF7AC
:101FB000F1FA00F093FA94E72046FFF7EBFA00F00D
:101FC0008DFA2046FFF750F900288AD00020A8E7B4
:101FD00004ED00E02DE9F34182B0054600272C46D0
:101FE000B84600BFFFF702FCA66BFEB1701EA063EF
:101FF000206810B9FFF746FBA060206908B90120EE
:1020000000E0002060B904F1100000F027FA38B1B8
:102010004FF080503A490860BFF34F8FBFF36F8F86
:10202000FFF7F6FB012004B0BDE8F081039818B972
:10203000FFF7EEFB0020F6E71FB96846FFF778FCD4
:102040000127FFF7E5FBFFF739FDFFF7CFFB94F919
:102050004400401C10B9002084F8440094F9450065
:10206000401C10B9002084F84500FFF7D1FB03A9FC
:10207000684600F047F840BB2046FFF7F5F8F0B19E
:10208000206838B9FFF7B2FBA06800F095F98046E8
:10209000FFF7BEFB04F124000399FFF75BFC204629
:1020A000FFF778FA00F01AFA00289BD14FF0805021
:1020B00013490860BFF34F8FBFF36F8F92E720463D
:1020C000FFF768FA00F00AFA8CE72046FFF762FA99
:1020D00000F004FA2046FFF7C7F8002882D0B8F1D4
:1020E000000F0BD0FFF782FB2046FEF7B9FF064634
:1020F0003146A068FFF752FCFFF78AFB002092E709
:1021000004ED00E070B506460C46FFF76FFB124881
:1021100002687068131A2068401C08B9002517E08F
:102120000E4930680968884204D07068904201D82E
:1021300001250DE02068984207D92068C01A206068
:102140003046FFF7F5FB002502E000202060012566
:10215000FFF75EFB284670BD2400002038000020F9
:102160002DE9FF4F85B0804689461746DDE912AB61
:10217000B800FFF74FFA064656B15C20FFF74AFA5F
:1021800004460CB1266304E03046FFF751FB00E043
:1021900000248CB1002084F85900CDE900ABCDE9D2
:1021A00002403A4649464046089BFEF7AFFF2046AC
:1021B000FEF740FE012501E04FF0FF35284609B04B
:1021C000BDE8F08F2DE9F04F85B00746884691466F
:1021D0009A46DDE90EB6109CACB1A6B125462E6339
:1021E000022085F85900002004A953464A46CDE94B
:1021F00000B1CDE9025041463846FEF787FF284638
:10220000FEF718FE01E000200490049805B0BDE838
:10221000F08F00000549096809B9012005E004496B
:10222000096809B9022000E0002070472C00002056
:102230004800002001490868704700002400002081
:102240002DE9F041002739480068002866D1384858
:102250000068451C364805608DB93648D0F80080C6
:1022600035480068334908603348C0F80080334877
:102270000068401C31490860FFF700F900BF304892
:10228000006885423AD300BF2A480068006808B950
:10229000012000E0002020B14FF0FF302849086005
:1022A0002BE024480068C068C4686668B54202D262
:1022B0002348066021E0201DFFF70AFAA06A18B142
:1022C00004F11800FFF704FA1E49E06A0968884221
:1022D00002D91C49E06A0860E16A01EB81011A4AEF
:1022E00002EB8100211DFFF74AFA1849E06A0968EC
:1022F000C96A8842C8D30127C6E700BF13480068EF
:10230000C06A00EB8000104951F82000012800D974
:1023100001270F48006800B1012704E00D4800685C
:10232000401C0C4908603846BDE8F0814800002098
:102330002400002014000020180000203800002095
:102340004000002028000020F0270020100000207E
:10235000340000203000002070B505462C460026D1
:102360001DB3206D401E2065E16CE06A88421CD0E0
:10237000206DD0B9201DFFF7ABF9E06CE062E06A98
:10238000C0F13800A0610A49E06A0968884202D9B0
:102390000749E06A0860E16A01EB8101054A02EB46
:1023A0008100211DFFF7EBF90126304670BD0000CA
:1023B00028000020F027002070B505462C46002696
:1023C000002D42D02249E06A0968C96A884235D2A4
:1023D000A06900F0004028B91D480068C06AC0F13B
:1023E0003800A061E16A01EB81011A4A02EB810128
:1023F0006069884201D1012000E00020C0B1201DA9
:10240000FFF766F912480068C06AE0621249E06AA4
:102410000968884202D91049E06A0860E16A01EB64
:1024200081010C4A02EB8100211DFFF7A8F903E0AE
:1024300007480068C06AE062012606E00449E06CD3
:102440000968C96A884200D20126304670BD000082
:1024500010000020F02700202800002070B506465C
:10246000F068C46804F11800FFF732F915480068F5
:10247000A0B9201DFFF72CF91349E06A09688842CA
:1024800002D91149E06A0860E16A01EB81010F4A53
:1024900002EB8100211DFFF772F904E004F118013D
:1024A0000B48FFF76CF90B49E06A0968C96A884272
:1024B00004D9012501200849086000E000252846CC
:1024C00070BD00004800002028000020F0270020F8
:1024D000782C0020100000203400002070B500246B
:1024E0000026FFF783F92E480068401E2C4908603B
:1024F0000846006800284ED12A48006800284AD0C3
:1025000023E02948C068C46804F11800FFF7E0F828
:10251000201DFFF7DDF82549E06A0968884202D9E5
:102520002249E06A0860E16A01EB8101204A02EB7E
:102530008100211DFFF723F91E49E06A0968C96A75
:10254000884202D301201C4908601748006808B976
:10255000012000E000200028D3D00CB1FEF78EFF50
:102560001648056865B100BFFFF76AFE10B101208B
:10257000114908606D1E002DF6D100200F4908603A
:102580000D48006838B1012630070D490860BFF3D7
:102590004F8FBFF36F8FFFF73BF9304670BD0000E0
:1025A0004800002020000020782C00202800002077
:1025B000F027002010000020340000203000002010
:1025C00004ED00E010B586B00024FEF78FFC104843
:1025D0000068D0B100200590049003AA04A905A8C2
:1025E000FFF796F82822DDE904100023CDE9002149
:1025F000029008A10948039AFFF7E4FD0849086022
:102600000846006800B1012400BF204606B010BD96
:1026100054000020546D7220537663007B15000037
:10262000580000202DE9FF4705460C4616461F4678
:10263000DDF830804FF000091448006810B30094B2
:1026400001960295062C15DAFFF7E4FD022808D161
:102650000023424669460D480068FFF767FB814644
:1026600010E000231A46694608480068FFF75EFB41
:10267000814607E000233A46694604480068FFF7B0
:10268000E1FB8146484604B0BDE8F08754000020D5
:102690004FF04070E1EE100A7047000040420F001A
:1026A00000201C0080841E0000802500999E3600BA
:1026B0000040380000093D0000803E0000004B0053
:1026C000404B4C0000204E00808D5B0000C05D0040
:1026D0000080700000127A0000007D008096980053
:1026E000001BB7000080BB00C0E8CE00647ADA00AF
:1026F0000024F4000000FA0080A81201002D31012E
:1027000000366E0140787D014000000000000000AE
:10271000000100003E000800000000000001000071
:10272000A00000000200000000010000345401007D
:1027300000000000000100002B70060000000000F7
:10274000000100002800000000000000000100005F
:102750002700010000000000000100002000000030
:102760000000000000010000500000000200000016
:10277000000100001AAC0000000000000001000091
:1027800017940900000000000001000016980500E1
:102790000000000000010000140000000000000024
:1027A000000100001380080000000000000100008C
:1027B000A000000008000000000100001000000060
:1027C00000000000000100002800000002000000DE
:1027D00000010000400000000400000000010000B3
:1027E0006000000000000000000100005D000C001F
:1027F0000000000000010000500000000000000088
:10280000000100004E000200000000000001000076
:1028100041AC010000000000000100003C0000008D
:1028200000000000000100003A80090000000000E4
:102830000001000030000000000000000001000066
:102840002800000000000000000100002700010037
:1028500000000000000100002360060000000000EE
:1028600000010000216008000000000000010000DD
:102870001E00000000000000000100001DC0040058
:1028800000000000000100005000000002000000F5
:10289000000100001800000000000000000100001E
:1028A00014000000000000000001000060000000B3
:1028B00004000000000100000024F400300030009B
:1028C000005A62029100910000879303D200D20067
:1028D00000B4C4041301130100E1F50554015401CF
:1028E000000E27079501950100688909001C4E0E0E
:1028F000102900000000002064000000A802000071
:1029000074290000640000207C2F0000C402000035
:102910000000000080F0FA0200000000000000004B
:1029200000000000000000000000000000000000A7
:102930000000000000000000000000000000000097
:102940000000000000000000000000000000000087
:102950000000000000000000000000000000000077
:102960000000000000000000000000000000000067
:04297000AAAAAAAABB
:04000005000003DD17
:00000001FF
