:020000040000FA
:1000000020300020DD030000E5030000E7030000CE
:10001000E9030000EB030000ED0300000000000016
:100020000000000000000000000000001D030000B0
:10003000F1030000000000007903000061100000DF
:10004000F7030000F9030000FB030000FD030000BC
:10005000FF03000075130000030400000504000006
:1000600007040000090400000B0400000D04000058
:100070000F04000011040000130400001504000028
:1000800017040000190400001B0400001D040000F8
:100090001F040000210400002304000025040000C8
:1000A00027040000290400002B0400002D04000098
:1000B0002F04000031040000330400003504000068
:1000C00037040000390400003B0400003D04000038
:1000D0003F04000041040000430400004504000008
:1000E0004704000049040000000000004B04000029
:1000F0004D0400004F0400005104000053040000B0
:100100005504000057040000590400005B0400007F
:1001100000000000000000005D0400005F0400001B
:10012000610400006304000065040000670400002F
:10013000690400006B0400006D0400006F040000FF
:1001400000000000000000000000000000000000AF
:1001500071040000730400007504000077040000BF
:10016000000000000000000000000000000000008F
:10017000000000000000000000000000000000007F
:10018000000000000000000000000000000000006F
:10019000000000000000000000000000000000005F
:1001A000000000000000000000000000000000004F
:1001B000790400007B0400007D0400007F0400003F
:1001C000810400008304000085040000870400000F
:1001D000890400008B0400008D0400008F040000DF
:1001E000910400009304000095040000000000004A
:1001F0000000000097040000990400009B04000028
:100200009D0400009F0400000000000000000000AA
:10021000A1040000A3040000A5040000A70400003E
:10022000A9040000AB040000AD040000AF0400000E
:10023000B1040000B3040000B5040000B7040000DE
:10024000B9040000BB040000BD040000BF040000AE
:10025000C1040000C3040000C5040000C70400007E
:10026000C9040000CB040000CD04000000F002F837
:1002700000F03CF80AA090E8000C82448344AAF104
:100280000107DA4501D100F031F8AFF2090EBAE802
:100290000F0013F0010F18BFFB1A43F001031847BA
:1002A000B83F0000D83F0000103A24BF78C878C19A
:1002B000FAD8520724BF30C830C144BF04680C606C
:1002C000704700000023002400250026103A28BFB4
:1002D00078C1FBD8520728BF30C148BF0B607047B8
:1002E0001FB503F0D7FC1FBD10B510BD00F0CBF952
:1002F000114603B401F0C0F903BCFFF7F1FF01F0B0
:10030000BDF900F0E5F903B4FFF7EEFF03BC00F020
:10031000EDF900000138FDD1704700002C4B196841
:100320000868B0E8F04F80F30988BFF36F8F4FF093
:10033000000080F311887047000000000848006842
:10034000006880F308884FF0000080F3148862B6DC
:1003500061B6BFF34F8FBFF36F8F00DF00BF00BFE9
:1003600008ED00E0DFF80C00016841F47001016065
:10037000704700BF88ED00E0EFF30980BFF36F8F97
:10038000134B1A681EF0100F08BF20ED108A20E9E9
:10039000F04F106009B44FF0100080F31188BFF3E4
:1003A0004F8FBFF36F8F02F021FD4FF0000080F3FD
:1003B000118809BC19680868B0E8F04F1EF0100FEA
:1003C00008BFB0EC108A80F30988BFF36F8F7047C5
:1003D00054000020EFF30580704700003F4880473D
:1003E0003F480047FEE7FEE7FEE7FEE7FEE7FEE7E1
:1003F000FEE7FEE7FEE7FEE7FEE7FEE7FEE7FEE7D5
:10040000FEE7FEE7FEE7FEE7FEE7FEE7FEE7FEE7C4
:10041000FEE7FEE7FEE7FEE7FEE7FEE7FEE7FEE7B4
:10042000FEE7FEE7FEE7FEE7FEE7FEE7FEE7FEE7A4
:10043000FEE7FEE7FEE7FEE7FEE7FEE7FEE7FEE794
:10044000FEE7FEE7FEE7FEE7FEE7FEE7FEE7FEE784
:10045000FEE7FEE7FEE7FEE7FEE7FEE7FEE7FEE774
:10046000FEE7FEE7FEE7FEE7FEE7FEE7FEE7FEE764
:10047000FEE7FEE7FEE7FEE7FEE7FEE7FEE7FEE754
:10048000FEE7FEE7FEE7FEE7FEE7FEE7FEE7FEE744
:10049000FEE7FEE7FEE7FEE7FEE7FEE7FEE7FEE734
:1004A000FEE7FEE7FEE7FEE7FEE7FEE7FEE7FEE724
:1004B000FEE7FEE7FEE7FEE7FEE7FEE7FEE7FEE714
:1004C000FEE7FEE7FEE7FEE7FEE7FEE7FEE70000E9
:1004D00004480549034A054B7047000079100000A5
:1004E0006D020000202E002020300020202E002051
:1004F000032A40F2308010F0030C00F0158011F850
:10050000013BBCF1020F624498BF11F801CB00F827
:10051000013B38BF11F8013BA2F1040298BF00F87B
:1005200001CB38BF00F8013B11F0030300F030802D
:10053000083AC0F0088051F8043B083A51F804CB5F
:10054000A0E80810F5E7121D5CBF51F8043B40F825
:10055000043BAFF30080D20724BF11F8013B11F830
:1005600001CB48BF11F8012B24BF00F8013B00F874
:1005700001CB48BF00F8012B704702F0FF0343EAAC
:10058000032242EA024200F037B8704770477047D2
:1005900010B5203AC0F00B80B1E81850203AA0E81E
:1005A0001850B1E81850A0E81850BFF4F5AF5FEA52
:1005B000027C24BFB1E81850A0E8185044BF18C905
:1005C00018C0BDE810405FEA827C24BF51F8043BAC
:1005D00040F8043B08BF7047D20728BF31F8023B00
:1005E00048BF11F8012B28BF20F8023B48BF00F894
:1005F000012B70474FF000020429C0F0128010F068
:10060000030C00F01B80CCF1040CBCF1020F18BFEE
:1006100000F8012BA8BF20F8022BA1EB0C0100F081
:100620000DB85FEAC17C24BF00F8012B00F8012B54
:1006300048BF00F8012B70474FF0000200B5134689
:1006400094469646203922BFA0E80C50A0E80C50F2
:10065000B1F12001BFF4F7AF090728BFA0E80C50A3
:1006600048BF0CC05DF804EB890028BF40F8042B9C
:1006700008BF704748BF20F8022B11F0804F18BF09
:1006800000F8012B7047754600F02CF8AE460500C7
:100690006946534620F00700854618B020B5FFF79D
:1006A00017FFBDE820404FF000064FF000074FF065
:1006B00000084FF0000B21F00701AC46ACE8C00980
:1006C000ACE8C009ACE8C009ACE8C0098D46704789
:1006D00010B50446AFF300802046BDE81040FFF798
:1006E00012BE000000487047BC2D002001491820B0
:1006F000ABBEFEE7260002007047000010B51148AF
:1007000000F078FC104800F075FC104800F062F929
:100710000F4800F05FF904210E4800F0A7F9082106
:100720000C4800F094F90C48006A40F001000A49B6
:10073000086200F013FB044600222146064800F040
:10074000C1F910BD010800F0002000F0030801000D
:10075000030C0100005000400000024010B50548A5
:1007600000F048FC0320FFF7D5FD3021024800F0DF
:100770005FF910BD020800F00060004010B511489C
:1007800000F038FC104800F035FC012000F022F9A0
:1007900040F2014000F01EF903214FF0402000F02C
:1007A00074F90521094800F052FE094A4FF4165128
:1007B000002000F09FFE00221146044800F08AFE4F
:1007C00010BD0000000800F0001800F000C000405C
:1007D0000024F40010B50121074800F0BAF90648DA
:1007E00000F0A6F93C21044800F0AAF900223C21BF
:1007F000014800F095F910BD0000024010B5152029
:1008000000F0AEF91021024800F06AFE10BD0000B1
:1008100000C0004002F001031BB1D0F800340B43CC
:1008200002E0D0F800348B43C0F8003402F0020339
:100830001BB1D0F820340B4302E0D0F820348B43B6
:10084000C0F8203470470000F0B55F4D2D685F4E52
:1008500035405F4EB5421AD0002416E00125A54070
:100860000D4085B1D0F8C45F67000326BE40B54394
:10087000C0F8C45FD0F8C45F6700C2F34116BE4041
:100880003543C0F8C45F651CECB2082CE6DB02F00F
:1008900001051DB1D0F800550D4302E0D0F8005518
:1008A0008D43C0F8005502F002051DB1D0F8045583
:1008B0000D4302E0D0F804558D43C0F8045502F012
:1008C00004051DB1D0F808550D4302E0D0F80855D5
:1008D0008D43C0F8085502F008051DB1D0F8185531
:1008E0000D4302E0D0F818558D43C0F81855364D29
:1008F0002D68364E3540364EB5420BD002F010050D
:100900001DB1D0F83C550D4302E0D0F83C558D4365
:10091000C0F83C5503F001051DB1D0F80C550D434E
:1009200002E0D0F80C558D43C0F80C5503F00205D9
:100930001DB1D0F810550D4302E0D0F810558D438D
:10094000C0F8105503F004051DB1D0F814550D433F
:1009500002E0D0F814558D43C0F8145503F0080593
:100960001DB1D0F81C550D4302E0D0F81C558D4345
:10097000C0F81C55144D2D68144E3540144EB54228
:1009800017D003F400751DB1D0F844550D4302E0B3
:10099000D0F844558D43C0F8445503F440751DB15B
:1009A000D0F840550D4302E0D0F840558D43C0F8D3
:1009B00040551BB9D0F828550D4302E0D0F8285512
:1009C0008D43C0F82855F0BD00E00F400000FF70D7
:1009D0000000051010B50146C1F307400F4BDB6E58
:1009E00001248440234033B1012303EB40030C4C2A
:1009F00054F8230003E04300094C54F82300C1F3EA
:100A00000722D0F82C350F249440A34301F00F04A3
:100A100094402343C0F82C3510BD000000E00F4087
:100A2000383E00000246002000EB8100105870475D
:100A300030B504460D460823012229462046FFF71B
:100A400003FF012229462046FFF7E4FE30BD30B502
:100A500004460D46022229462046FFF7DBFE092305
:100A6000012229462046FFF7EFFE30BD30B504468F
:100A70000D46022229462046FFF7CCFE082301221C
:100A800029462046FFF7E0FE30BD30B504460D464E
:100A9000022229462046FFF7BDFE082301222946EF
:100AA0002046FFF7D1FE30BD002303EB8103C25087
:100AB00070474160704781607047016A41F01001E2
:100AC0000162704770B503460C4616461846FFF79C
:100AD000F4FF012E01D10F4A00E00F4A142000FB61
:100AE0000240401E02EB82018900B0FBF1F0451E7E
:100AF000DD60D3F8C00F00F0010048B10748204482
:100B0000401E0649B0FBF1F0451E45F08000D8605C
:100B100070BD0000801A0600A086010080473701E2
:100B200042EA4103036070470146D1F80808704764
:100B3000016A41F0200101620121C0F804187047E8
:100B400000B502460B461046FFF7F2FFC2F8003828
:100B500000BDD0F80C280A43C0F80C2870470000EC
:100B6000042806D11949096841F48031174A1160F7
:100B70002BE0052806D11549096841F40031134AD4
:100B8000116022E0062806D11049096841F480214D
:100B90000E4A116019E00F2808D14FF0E0210969D1
:100BA00041F002014FF0E02211610EE010280CD359
:100BB000A0F1100101F01F0201219140A0F11002EB
:100BC0005209034B53F822201160704724ED00E0D6
:100BD000843F000010B50021084600F03FF8642073
:100BE00000F0CEFC0121002000F038F8642000F075
:100BF000C7FC0021012000F031F8642000F0C0FCA7
:100C00000121084600F02AF8642000F0B9FC002118
:100C1000084600F023F810BD10B50021084600F08A
:100C20001DF8642000F0ACFC0121084600F016F825
:100C3000642000F0A5FC0021084600F00FF86420B5
:100C400000F09EFC0121084600F008F8642000F046
:100C500097FC0021084600F001F810BD70B505466C
:100C60000C462DB1102211460A48FFF71DFF04E083
:100C7000002210210748FFF717FF2CB12022114650
:100C80000448FFF711FF04E0002220210148FFF78C
:100C90000BFF70BD0060004010B52E2109A000F0D0
:100CA00051FC1A2113A000F04DFC1B2118A000F0EC
:100CB00049FC2F211DA000F045FC2E2101A000F0D1
:100CC00041FC10BD2A2A2A2A2A2A2A2A2A2A2A2A22
:100CD0002A2A2A2A2A2A2A2A2A2A2A2A2A2A2A2A74
:100CE0002A2A2A2A2A2A2A2A2A2A2A2A2A2A2A2A64
:100CF0000A00000050726F6772616D3A2053776985
:100D00007065206465746563746F720A000000008A
:100D1000417574686F723A2055726F732043766A1A
:100D20006574696E6F7669630A00000048617264D9
:100D3000776172653A20544D344331323347483637
:100D4000504D20616E642050726F78696D697479BE
:100D5000436C69636B31330A00000000F0B5504802
:100D6000036E026F02F0004010B102F0700001E06B
:100D700003F03000202811D003DC38B1102815D141
:100D80000AE030280CD0702810D10CE04548C3F39D
:100D9000841750F827100BE0434909E0434907E066
:100DA00047F2305104E04FF4004101E00020F0BD73
:100DB00000BF4FF0FF3402F0004010B102F40060B9
:100DC00028B102F0004090BB03F4006078BB3848C3
:100DD00005683348D0F8646106F01F00401CC6F374
:100DE00004277F1C10FB07F04000B1FBF0F1C5F3B6
:100DF00009004843C5F389274F4300EB972143F48B
:100E000080032748006900F47040B0F5804F13D08C
:100E100006DCB0F5005F0BD0B0F5405F12D109E001
:100E2000B0F5E04F0AD0B0F5104F0BD108E00BE061
:100E3000204C08E0204C06E0204C04E0204C02E06E
:100E4000204C00E000BF00BF03F4800018B302F0A4
:100E50000040D8B102F0804090B102F0004010B1E3
:100E600002F4006028B102F0004048B903F40060C9
:100E700030B94F00C2F38650401CB7FBF0F10AE0D6
:100E8000C2F3C550401CB1FBF0F104E0C3F3C35002
:100E9000401CB1FBF0F18C4200D22146084686E7A7
:100EA00000E00F40D43F00000024F40000093D00A2
:100EB00060E10F4000B4C40480F0FA02005A6202FC
:100EC00040787D01002D31012DE9F041064644486E
:100ED000046E056F44F4006424F4800445F4006556
:100EE0000466056704F00100D8B106F00100C0B93E
:100EF00066F0010004404FF4807039498865084667
:100F000004664FF4002702E07F1E07B905E034486D
:100F1000006D00F480700028F6D000BF0FB9BDE866
:100F2000F08124F4FE6406F4FE6004432D4805407D
:100F30002C49A13106EA0100054306F0080045EA04
:100F4000C00527480466056724F4005406F40050E1
:100F5000044325F4005506F4005005434020204981
:100F6000886505F0004018B108460567046602E090
:100F70001B48046605671C480440C14306EA01009B
:100F8000044325F0FC5506F0FC50054306F0804074
:100F900040B144F4800425F48005144906EA0100B8
:100FA000054301E025F0804506F4006080B94FF468
:100FB000004706E00E48006800F0010000B102E0C2
:100FC0007F1E002FF6D100BF24F4006425F40065D5
:100FD0000348046605671020FFF79CF900BF9EE7F1
:100FE00000E00F408FFFFF7FFEFF3FF80000404012
:100FF00068E10F4010B50121C0F30722094B1A44E4
:1010000002F0704242F00072C0F30723054C234403
:10101000C3F3130342EA4312C3B242EA83021160EC
:1010200010BD000000E60F400146C1F307200B4A47
:10103000104400F0704040F00070C1F30722074BED
:101040001A44C2F3130240EA4210CAB240EA8200D4
:10105000006808B1012070470020FCE700E30F4062
:1010600010B54FF0E020006902F086FB012801D0A6
:1010700001F038FF10BD00001B49096841F4700100
:10108000194A116019491A4A11671A4911661A4911
:1010900011661A491167002000E0401CB0F57A7F04
:1010A000FBD31749124A116616491167002000E068
:1010B000401CB0F57A7FFBD313490D4A116600BF7F
:1010C0000B49096D01F040014029F9D10F49084A47
:1010D00011664FF0C0711167002000E0401C42F221
:1010E00010718842FAD3704788ED00E0102880071D
:1010F00000E00F40D13A8E07422D9E01002880016A
:10110000420D9E0100088001420DDE014205DE0114
:1011100008B51EE001F0DAFB12210EA000F012FA71
:101120004FF0FF320021012000F030FD19210EA008
:1011300000F008FA1248FFF7F7FCC0B200904FF039
:10114000FF33002269460F48006800F085FC00F07C
:1011500035FEDFE7456E74657265642049324320D1
:101160005258200A000000005061737365642049E2
:10117000324320525820626C6F636B200A000000DB
:10118000000002400C00002008B527E001F0AEFB93
:10119000122113A000F0D6F94FF0FF330022694668
:1011A0001448006800F0C0FB0446192112A000F0AA
:1011B000C9F98CB9192116A000F0C4F99DF80010E6
:1011C0001948FFF778FC07211748FFF772FC012147
:1011D0001648006800F08EFC00F0F0FDD6E7000035
:1011E000456E746572656420493243205458200A64
:1011F00000000000080000205061737365642049FE
:10120000324320545820626C6F636B200A00000048
:101210005061737365643220493243205458206210
:101220006C6F636B200A0000000002402000002069
:1012300008B521E001F05AFB132110A000F082F95B
:101240004FF0FF33002269461148006800F06CFB44
:10125000044619210FA000F075F95CB9192113A0FB
:1012600000F070F94FF0FF3300226946154800681E
:1012700000F0F2FB00F0A2FDDCE70000456E7465B3
:101280007265642055415254205258200A000000D3
:101290001000002050617373656420554152542042
:1012A000525820626C6F636B200A000050617373A8
:1012B000656432205541525420525820626C6F634D
:1012C0006B200A000800002008B525E001F0FEFAB6
:1012D000132112A000F036F94FF0FF3300226946C7
:1012E0001348006800F020FB0446192111A000F00B
:1012F00029F97CB9192115A000F024F90E2119A0B3
:1013000000F020F90121684600F01CF9032107A034
:1013100000F018F900F052FDD8E70000456E746542
:101320007265642055415254205458200A00000030
:101330000C000020506173736564205541525420A5
:10134000545820626C6F636B200A00005061737305
:10135000656432205541525420545820626C6F63AA
:101360006B200A0046726F6D546872656164733A4F
:101370002000000038B501211C4800F0B5F80446F3
:1013800021461A4800F0AAF804F0100000282BD0DB
:10139000164800F056F838B30E2115A000F0D2F828
:1013A000124800F033F8C0B200900121684600F006
:1013B000C9F80E4800F02AF8C0B200900121684632
:1013C00000F0C0F803210EA000F0BCF800231A467C
:1013D00069460C48006800F03FFB0B48006800F0CD
:1013E000A5FC024800F01BF838BD000000C000401A
:1013F00046726F6D496E746572727570743A200032
:101400000A0000001000002018000020014600BF64
:10141000886900F010000028FAD10868704701467A
:10142000886900F0100008B9086870474FF0FF3075
:10143000FBE700BF826902F02002002AFAD10160B6
:10144000704701468869012222EA10107047C0F8EF
:10145000C81F7047F0B504460E4615461F46204685
:1014600000F01EF8B6EB051F05D2206B40F02000FF
:1014700020636D0803E0206B20F020002063F00063
:10148000B0FBF5F0401C43089809606203F03F0090
:10149000A062E7620020A061204600F011F8F0BDD4
:1014A00000BF816901F008010029FAD1C16A21F069
:1014B0001001C162016B40F2013291430163704738
:1014C000C16A41F01001C162016B40F20132114367
:1014D0000163704741EA0203436370474164704708
:1014E000826B0A4382637047024609B1106C7047F1
:1014F000D06BFCE770B504460D4616460E4951F810
:101500002400FFF791FD00B970BD0C4850F824008D
:101510000B490860084951F82400FFF76BFD602370
:101520002A46314606480068FFF794FF04480068E1
:10153000FFF7C6FF00BFE7E7384200002C4200007B
:101540000000002070B505460E46002411E0285D1D
:101550000A2805D10D2109480068FFF76AFF02E05B
:10156000285D00B907E0295D04480068FFF761FFC6
:10157000641CB442EBD300BF204670BD00000020C5
:1015800070B50446FFF7EAFB0321B0FBF1F04FF41E
:101590007A71B0FBF1F000FB04F52846FEF7BAFEC5
:1015A00070BDEFF311807047EFF305807047EFF3E4
:1015B0001080704710B5044600F020FC20B14FF0B9
:1015C000FF31206801F0D8FE10BD000070B505465F
:1015D000286801F061FA00240BE0084951F8241052
:1015E0002868884204D10020044941F8240002E020
:1015F000641C052CF1D300BF70BD00002404002042
:1016000070B5054600202860002415E0124850F807
:10161000240080B904EB8400104A02EB0011012081
:1016200001F08BFC0C4941F82400084650F82400D6
:101630002860012070BD641C052CE7D300F0DEFBA0
:1016400018B1012001F068FC2860286808B9002062
:10165000F0E70120EEE700002404002094020020BF
:1016600010B5044600F0CAFB28B100231A461946FB
:10167000206801F0EBFC10BD704700001048FFF738
:1016800023FCFFF76BF8FFF7C7FAFFF777F8FFF7D0
:10169000B5F8FFF79FFA17210AA0FFF753FFFFF7EE
:1016A000FBFAFFF72BF8FFF795F8FFF793FA1621EF
:1016B0000AA0FFF747FF00F01BF800BFFEE700009D
:1016C000400500C15541525420697320636F6E6616
:1016D000696775726564200A000000004932432082
:1016E000697320636F6E66696775726564200A00AE
:1016F00010B500F0BFF800221146484800F0ACFADF
:10170000474908600846006810B94FF0FF3010BD27
:1017100000221146434800F09FFA434908600846FA
:10172000006810B94FF0FF30F1E7002211463F4842
:1017300000F092FA3E4908600846006810B94FF080
:10174000FF30E4E7002211463A4800F085FA3A49B2
:1017500008600846006810B94FF0FF30D7E718213D
:101760002F48006800F002FB044614B14FF0FF3030
:10177000CDE708212C48006800F0F8FA044614B1BF
:101780004FF0FF30C3E710212948006800F0EEFA5F
:10179000044614B14FF0FF30B9E720212648006815
:1017A00000F0E4FA044614B14FF0FF30AFE7FFF762
:1017B00011FA112121A0FFF7C5FE002201211020FE
:1017C00000F0FEF8224908600846006810B94FF0A2
:1017D000FF309CE700220121102000F0F1F81D49A4
:1017E00008600846006810B94FF0FF308FE700220C
:1017F0000121102000F0E4F817490860084600684D
:1018000010B94FF0FF3082E7FFF7E4F9172113A07A
:10181000FFF798FE00F04EF800BF78E7C91200000D
:10182000140000203112000018000020891100006F
:101830001C00002011110000200000205468726577
:1018400061647320637265617465640A000000005E
:10185000100000200C0000200800002052544F53BC
:10186000206F626A65637473206372656174656476
:101870000A00000010B5FFF797FE48B9FFF797FE82
:1018800010B9FFF78EFE30B109480068022802D176
:101890006FF0050409E00648006820B901200449FA
:1018A0000860002401E04FF0FF34204610BD000026
:1018B0002800002070B5FFF777FE48B9FFF777FEE4
:1018C00010B9FFF76EFE30B114480068022802D14B
:1018D0006FF005041FE011480068012819D100BF0E
:1018E000801F0021002804DB4A07130E0C4A135402
:1018F00006E04A07150E0B4A00F00F031B1FD554D4
:1019000000BF00BF02200549086001F01DFA002455
:1019100001E04FF0FF34204670BD00002800002099
:1019200000E400E018ED00E02DE9F84307460D461D
:1019300091461C463E464FF00008FFF735FE48B979
:10194000FFF735FE10B9FFF72CFE00B31A48006808
:1019500002281CD10EB105B114B16FF0030828E0C4
:10196000002000906A462946304601F0C3FC012859
:1019700002D06FF002081CE00098D0B14FF0805008
:101980000E490860BFF34F8FBFF36F8F11E006B1B0
:1019900015B96FF003080CE022462946304601F0E5
:1019A00027FC012805D014B16FF0010801E06FF0A9
:1019B00002084046BDE8F8832800002004ED00E05E
:1019C0002DE9F84305460E4614464FF00008FFF790
:1019D000EBFD00283AD1FFF7EAFD10B9FFF7E1FD72
:1019E00018B11C480068022830D03DB336B34FF020
:1019F000FF37BCB1A06858B1E068502808D320690F
:101A000030B105FB06F06169814201D301270AE08C
:101A1000A06840B9E06830B9206920B9606910B9A0
:101A2000002700E00027012F09D100200090314657
:101A30002846A368226901F0B2FA804606E02FB971
:101A400000223146284601F08DFA80464046BDE826
:101A5000F8830000280000202DE9F84307460D46D2
:101A600091461C463E464FF00008FFF79DFD48B9E1
:101A7000FFF79DFD10B9FFF794FD08B31B48006800
:101A800002281DD10EB105B114B16FF003082AE090
:101A90000020009000236A462946304601F062FB90
:101AA000012802D06FF002081DE00098D8B14FF075
:101AB00080500F490860BFF34F8FBFF36F8F12E064
:101AC00006B115B96FF003080DE000232246294640
:101AD000304601F0BBFA012805D014B16FF00108BF
:101AE00001E06FF002084046BDE8F88328000020BE
:101AF00004ED00E0FEB504460D46264616B105F09D
:101B0000004018B16FF00300029038E04FF0FF3052
:101B10000290FFF749FD48B9FFF749FD10B9FFF7FB
:101B200040FD00B31748006802281CD10020019036
:101B300001A80023012229460090304601F09EFDB5
:101B4000002002AB024601460090304601F096FDAF
:101B50000198A0B14FF080500B490860BFF34F8F40
:101B6000BFF36F8F0BE0002301222946304601F0BE
:101B700023FD02AB00221146304601F01DFD029804
:101B8000FEBD00002800002004ED00E02DE9FC5F10
:101B9000054689461646FFF707FD48B9FFF707FDDA
:101BA00010B9FFF7FEFC30B12A480068022802D1C4
:101BB0006FF005044AE005F0004010B16FF0030437
:101BC00044E009F00200022802D14FF0000A00E0D0
:101BD000AA460024374601F0DFFD009000BF3B46D7
:101BE00001AA5146002001F069FE8046B8F1010FBC
:101BF00022D12C400198044309F0010040B105EACC
:101C00000400A84200D120E056B96FF002041CE0A5
:101C100005EA040000B118E016B96FF0020414E000
:101C200001F0BAFD0099A0EB010BBB4501D90027DB
:101C300008E0A7EB0B0705E016B96FF0020401E01E
:101C40006FF00104B8F1000FC9D100BF2046BDE814
:101C5000FC9F0000280000202DE9FF4780468946B0
:101C6000144600200390FFF79FFC00285AD1FFF78D
:101C70009EFC10B9FFF795FC18B12B4800680228AC
:101C800050D0B8F1000F4DD0802618254FF0000A33
:101C90004FF0FF3744B3206808B1D4F800A0A06922
:101CA00000B1A5692DB1382D03D8207900F00100CD
:101CB00018B1002004B0BDE8F087606908B1606920
:101CC0008608A06840B1E0685C2805D3206918B197
:101CD000606908B1012708E0A06830B9E06820B960
:101CE000206910B9002700E00027012F0CD12169DD
:101CF000A0684B463246CDE900510290514640461D
:101D000001F032FC03900DE067B903A8B2B24B4674
:101D10005146CDE90050404601F0F4FB012801D0C6
:101D2000002003900398C5E72800002070B5054601
:101D30002E46FFF739FC48B9FFF739FC10B9FFF719
:101D400030FC30B108480068022802D16FF0050469
:101D500007E016B96FF0030403E00024304600F0FA
:101D6000B7FF204670BD0000280000202DE9F0419B
:101D700006460D463746FFF717FC48B9FFF717FC34
:101D800010B9FFF70EFC30B10B480068022802D1F1
:101D90006FF005040CE01FB1012D01DB382D02DDD1
:101DA0006FF0030404E000242946384600F020FFC9
:101DB0002046BDE8F08100002800002010B5FFF7A4
:101DC000F3FB48B9FFF7F3FB10B9FFF7EAFB30B1BB
:101DD00008480068022802D16FF0050408E00024DA
:101DE0004FF0805004490860BFF34F8FBFF36F8FEF
:101DF000204610BD2800002004ED00E010B5074883
:101E0000007848B901F0B8FC012803D0012003494B
:101E1000087010BD0020FCE70120FAE72400002034
:101E20002DE9F04105460E46164807681648006839
:101E3000001D00F06BFD681C38B936B1124801680E
:101E4000091D124800F0B9FD1AE07C190E4800681F
:101E50004460BC4207D20C480168091D0C48006868
:101E600000F091FD0CE008480168091D0948006870
:101E700000F089FD08480068844201D206480460E9
:101E8000BDE8F0816800002054000020E02C002014
:101E90005C000020580000208400002010B504469B
:101EA00000F098FD24480068401C2349086023483E
:101EB000006840B9214804600846006801280DD137
:101EC00000F0E4F90AE01E48006838B91B480068D1
:101ED000C06AE16A884201D818480460194800685D
:101EE000401C184908600846006860641649E06AAA
:101EF0000968884202D91449E06A0860E16A01EB86
:101F00008101124A02EB8100211D00F056FD00F014
:101F100073FD0B48006868B108480068C06AE16A50
:101F2000884207D24FF0805009490860BFF34F8FB5
:101F3000BFF36F8F10BD000064000020540000202C
:101F400070000020800000206C000020302800205D
:101F500004ED00E008B500F03DFD0E480068A8B9AA
:101F60000D4800F000FD0D4800F0FDFC0A480C494A
:101F700008600A480B49086000200B4B0B4A1021EF
:101F80000090052001F00BF80249086000F034FDD4
:101F900008BD000098000020F42C0020082D00202F
:101FA00090000020940000201C2D00206C2D0020AB
:101FB00010B516E000F00EFD0C48C068C468201D86
:101FC00000F0A4FC0A480068401E0949086009485E
:101FD0000068401E0749086000F00EFD204600F032
:101FE0005FF8044800680028E4D110BDCC2C002024
:101FF000640000206000002070B504460D46206C8F
:1020000070B1216CE0680144E160D4E902108842BB
:1020100001D32168E1602846226CE168FEF768FA86
:1020200070BD2DE9F04104460F4615464FF00008FB
:10203000A66B206C48B9206800282CD1A06801F05C
:102040008DFC80460020A06025E07DB93946226CD9
:102050006068FEF74DFA216C606808446060D4E95E
:102060000101884217D32068606014E03946226C71
:10207000E068FEF73DFA216CE068411AE1602168F2
:10208000E068884203D2216CA068411AE160022D09
:1020900001D106B1761E701CA0634046BDE8F081F8
:1020A00010B5044694F8590030B9206B00F0B4FC28
:1020B000204600F0B1FC06E094F85900012802D156
:1020C000204600F0A9FC10BD01464A6A22B10A6B05
:1020D0001268C2F1380000E0002070470146084A4B
:1020E000126812680AB9012200E000220A600A6838
:1020F00022B9034A1268D268106800E000207047D5
:102100009000002030B54FF40053174800F007044A
:102110002CB1C01D20F00700134C041B1B1B0246F2
:10212000124C22600024114D6C60D018083820F049
:1021300007000F4C206000240D4D2D686C600C4D85
:102140002D682C601146441A4C60094C24680C60C0
:10215000084D4C682C60084D4C682C604FF00044D2
:10216000064D2C6030BD00003008002030000020FB
:1021700038000020400000203C0000204C000020DF
:1021800000BFFFF715FF064800680128F9D94FF096
:10219000805004490860BFF34F8FBFF36F8FF0E7A3
:1021A0003028002004ED00E010B5044654B10020B2
:1021B000A06020600021E16000231A4619462046F5
:1021C00000F044FF10BD2DE9F04106460D461746CC
:1021D0009846069C0DB9246000E02760E6632564FC
:1021E0000121204600F0F2FE84F84C80BDE8F08129
:1021F0002DE9F05F81460E4690469A460A9F0C9C58
:102200004FEA8801A522206BFEF7B7F9A8F101007B
:10221000216B01EB800B2BF0070B86B1002507E04B
:10222000715D04F134004155705D00B902E06D1C30
:10223000102DF5D300BF00214320015502E00020FE
:1022400084F83400382F00D33727E762E764002092
:102250002065201D00F094FB04F1180000F090FBB5
:102260002461C7F13800A06164620020606584F8D1
:10227000580052464946584600F012FB20600B9821
:1022800008B10B980460BDE8F09F000010B5002471
:1022900007E004EB84010F4A02EB810000F063FBCE
:1022A000641C382CF5D30C4800F05DFB0B4800F0A3
:1022B0005AFB0B4800F057FB0A4800F054FB0A4851
:1022C00000F051FB044809490860044808490860C7
:1022D00010BD000030280020902C0020A42C0020ED
:1022E000B82C0020CC2C0020E02C0020580000202E
:1022F0005C00002010B50146164800E00068036845
:102300008B42FBD30246436813448B4204D143689B
:102310004C682344436001460A464B6813440468F2
:10232000A34211D10C4C03682468A34208D04B6827
:102330000468646823444B6003681B680B6005E015
:10234000054B1B680B6001E003680B60884200D0FE
:10235000016010BD30000020380000202DE9F04160
:1023600004460D4616461F464FF00008656024617E
:10237000B5420CD8F01BA169884202D34FF0010886
:1023800011E0211D0948006800F0FDFA0BE0BE4293
:1023900004D2BD4202D34FF0010804E0211D0448DD
:1023A000006800F0F0FA4046BDE8F081940000209B
:1023B0009000002070B5054600F00CFBA86B08B932
:1023C000012400E0002400F017FB204670BD70B52A
:1023D000054600F0FFFAA86BE96B884201D10124A1
:1023E00000E0002400F008FB204670BDF8B505466B
:1023F0000E4614480068C068C468201D00F086FAC4
:1024000094F8280000F0040088B1A06941192B4617
:1024100032462046FFF7A2FF78B1002003462A4645
:1024200001460090204601F0FFFB074605E094F8C6
:10243000280020F0010084F828002046216A8847FF
:10244000F8BD000090000020F0B587B076E003985A
:10245000002805DA04AED6E90020B168904700BF35
:10246000039800286ADB059C606908B9012000E038
:10247000002010B9201D00F049FA02A800F0BEF8B3
:10248000054603980A2857D2DFE800F00905072D12
:10249000354606082E3600BF00BF00BF00BF94F8C7
:1024A000280040F0010084F828000498A2698118EF
:1024B00003462A462046FFF751FF98B12046216A7D
:1024C000884794F8280000F0040058B100200090DC
:1024D0000498A169421800231946204601F0A4FB84
:1024E000074600BF29E000BF94F8280020F0010053
:1024F00084F8280021E000BF94F8280040F0010093
:1025000084F828000498A061A06941192B462A4646
:102510002046FFF723FF10E094F8280000F00200A7
:1025200018B9204600F078FA05E094F8280020F069
:10253000010084F8280000E000BF00BF002203A9CA
:102540000348006800F054FE002880D107B0F0BDB9
:1025500098000020F8B505460C4600F03FFC6846A0
:1025600000F04CF80646009820BB44B9B54206D8A6
:1025700001F0B6FA31462846FFF738FF1CE03CB1BF
:102580000E480068006808B9012000E000200446F9
:10259000A91B22460A48006800F088FA01F0A0FA58
:1025A00050B94FF0805007490860BFF34F8FBFF319
:1025B0006F8F01E001F094FAF8BD00009400002054
:1025C0009800002004ED00E00A490968096809B98B
:1025D000012100E0002121B14FF0FF31064A1160D6
:1025E00006E004490968C968C868034A416811607F
:1025F00070470000580000208400002070B5044699
:1026000001F0CAF8054607480068854204D200F088
:102610000BF80120206001E00020206001480560E7
:10262000284670BDA00000202DE9F84328E01E4890
:102630000068C06805681C480068C068C468201D40
:1026400000F064F92046216A884794F8280000F0D9
:102650000400A8B1A0694619AE4207D9666024619A
:10266000211D1148006800F08EF909E000200346A2
:102670002A4601460090204601F0D6FA804600BF67
:1026800009480068006808B9012000E0002000281F
:10269000CDD005480768054800680349086003482D
:1026A0000760BDE8F883000090000020940000203F
:1026B00000BF102080F31188BFF34F8FBFF36F8FDF
:1026C00000BF00BFFEE7000010B5014600200A462B
:1026D0000B4C5369A34201D1012300E0002373B1E5
:1026E000084C936AA34201D1012300E0002333B9CF
:1026F000936A0BB9012300E0002303B1012010BD50
:10270000E02C0020B82C002008B500BF6846FFF779
:10271000E5FC044620460099FFF71CFFFFF794FEF6
:10272000F4E770B5044600F055F994F9455010E00F
:10273000606A08B9012000E0002038B904F12400E3
:1027400001F08EF918B100F0E3F900E003E0681E33
:1027500045B2002DECDC00BFFF2084F8450000F0FE
:102760004BF900F037F994F9445010E0206908B9AA
:10277000012000E0002048B904F1100001F070F9D8
:1027800008B100F0C5F9681E45B200E001E0002D77
:10279000ECDC00BFFF2084F8440000F02DF970BD90
:1027A0002DE9F04105464FF0000800F017FB2E48D8
:1027B000006808B9FFF7A6FC2C48006828400028EC
:1027C0004CD145B1083505F0070020B105F00700F0
:1027D000C0F108000544002D40D02548006885421E
:1027E0003CD8244E3046046801E0264624686068E0
:1027F000A84202D220680028F7D11B480068844212
:102800002CD0306800F10808206830606068401BF8
:10281000102807D967196068401B786065603846E2
:10282000FFF768FD124960680968081A10490860D6
:102830000846006810490968884203D20C480068BD
:102840000D49086009496068096808436060002014
:1028500020600A480068401C0849086001F040F9FF
:102860004046BDE8F0810000380000204C00002008
:102870003C000020300000204000002044000020E8
:102880000648006830B10549096801F15000096D3A
:10289000491C016001480068704700005400002096
:1028A000001F4FF080730360001F21F001030360DD
:1028B000001F054B036014380260001F6FF0020315
:1028C0000360203870470000B126000010B52021B9
:1028D0000548FEF7A7F8C4B2202020EA040201460A
:1028E0000148FEF7E1F810BD0060004010B510216E
:1028F0000548FEF797F8C4B2102020EA040201460A
:102900000148FEF7D1F810BD0060004001460A6999
:10291000D1E901309860D1E90103586050688842DC
:1029200001D188685060002008611068401E106066
:1029300010687047034B0360034B0B6080231360E8
:10294000704700003804002094040020034B03600B
:10295000034B0B6050231360704700009406002067
:10296000F0060020704700F1080141604FF0FF3190
:10297000816000F10801C1600161002101607047C0
:1029800000210161704710B502460B685C1C0CB950
:10299000106907E002F1080000E04068446824681C
:1029A0009C42FAD944684C604C68A16088604160E0
:1029B0000A611468641C146010BD42684A60936820
:1029C0008B60936859609160086103685B1C0360C9
:1029D0007047000000BF102080F31188BFF34F8FB5
:1029E000BFF36F8F00BF03480068401C01490860B7
:1029F000704700005000002006480068401E05494E
:102A000008600846006820B9002080F3118800BFE4
:102A100000BF70475000002070B506463546FEB135
:102A2000083D2C460F49606809680840C0B120681D
:102A3000B0B90C49606809688843606000F0CEF95D
:102A40000949606809680844074908602046FFF79B
:102A500051FC06480068401C0449086001F040F839
:102A600070BD00004C0000203C0000204800002009
:102A700000204FF0E02108618861064800684FF4AB
:102A80007A71B0FBF1F0401E4FF0E0214861072061
:102A9000086170472C00002070B50446254695F863
:102AA000460010B92846FFF7B7FF70BD2DE9F04189
:102AB00005460E4617462C46FFF78CFF94F9440056
:102AC000401C10B9002084F8440094F94500401CD3
:102AD00010B9002084F84500FFF78EFFA06B28B9DD
:102AE0003A46314604F1240000F028F82046FFF76A
:102AF00018FEBDE8F0810000034909680160034940
:102B000009684160704700007C00002068000020D8
:102B100001200149086070477800002070B5054623
:102B20000C460548016818312846FFF72CFF0121A3
:102B30002046FFF775F970BD5400002070B50646B9
:102B40000D4614460648016818313046FFF735FF38
:102B50000CB14FF0FF3521462846FFF761F970BDF3
:102B6000540000202DE9F04706460F4634464FF04A
:102B70000109002E35D0E06CB84201D23D4600E09C
:102B8000E56CE06AA8422CD0206D012829D1D4F848
:102B90002C80E562A06900F0004010B9C5F1380052
:102BA000A06108EB8801104A02EB8101606988424C
:102BB00001D1012000E0002098B1201DFFF7A6FE02
:102BC0000A49E06A0968884202D90849E06A08604F
:102BD000E16A01EB8101044A02EB8100211DFFF74C
:102BE000ECFEBDE8F0870000302800206C000020DB
:102BF0002DE9F04707460D464FF00009382D00D368
:102C00003725FFF7E7FE17B92D48006800E0384682
:102C10000446E66CAE424ED0B5420BD92848006857
:102C200084420DD026480068C06AA84208D84FF0F8
:102C3000010905E022480068844201D14FF00109F2
:102C4000D4F82C80E16AE06C884200D1E562E5644A
:102C5000A06900F0004010B9C5F13800A06108EB90
:102C60008801184A02EB81016069884201D1012084
:102C700000E0002098B1201DFFF748FE1249E06AED
:102C80000968884202D91049E06A0860E16A01EBEC
:102C900081010C4A02EB8100211DFFF78EFEB9F184
:102CA000000F07D04FF0805008490860BFF34F8FE6
:102CB000BFF36F8F00BFFFF79FFEBDE8F0870000F6
:102CC00054000020302800206C00002004ED00E0BB
:102CD00070B505462C461848006884422AD04CB38B
:102CE000FFF778FE2046FFF7EFFC08B3201DFFF743
:102CF0000DFE1249E06A0968884202D90F49E06A6C
:102D00000860E16A01EB81010D4A02EB8100211D9F
:102D1000FFF753FE0849E06A0968C96A884207D389
:102D20004FF0805007490860BFF34F8FBFF36F8F9C
:102D3000FFF762FE70BD0000540000206C00002010
:102D40003028002004ED00E010B586B0002005908A
:102D5000049003AA04A905A8FFF7ECFD0022DDE911
:102D600004101346CDE90021029015A11648039ADC
:102D700000F0FAFB154908600846006808B1012414
:102D800000E00024012C02D100F01EFF0446012CBB
:102D900014D100BF102080F31188BFF34F8FBFF311
:102DA0006F8F00BF4FF0FF300949086001200949CB
:102DB000086000200849086000F070F806B010BDF7
:102DC00049444C450000000081210000880000209B
:102DD0008400002070000020680000200248006885
:102DE000401C0149086070478C00002070B52648DF
:102DF000006818B101202549086043E000202349FC
:102E0000086023480068046B4FF0A5352068B0F1D6
:102E1000A53F0BD16068B0F1A53F07D1A068B0F124
:102E2000A53F03D1E068B0F1A53F05D0184801687F
:102E300034310068FFF796FD1648016800E0491E2E
:102E400001EB8100144A52F8200008B9012000E08B
:102E500000200028F3D101EB81020F4B03EB82002D
:102E600042685268426000F108024368934202D10E
:102E70004268526842604268D268054B1A60054851
:102E8000016000BF70BD00008C00002078000020B1
:102E9000540000206C0000203028002010B50E489F
:102EA000006840F47F000C4908600846006840F064
:102EB0007F400860FFF7DCFD002008490860FDF74F
:102EC00051FA0748006840F0404005490860FDF7A6
:102ED00035FA002010BD000020ED00E05000002079
:102EE00034EF00E010B500BF102080F31188BFF36D
:102EF0004F8FBFF36F8F00BF00F054FC18B14FF03D
:102F000080500449086000BF002080F3118800BF92
:102F100010BD000004ED00E02DE9F041044601265B
:102F2000002722460021012000F01CF80546284613
:102F3000FFF73AF92846BDE8F0812DE9F843044649
:102F40000D4601274FF000082B46002211460120B4
:102F5000009400F024F806463046FFF725F9304685
:102F6000BDE8F8832DE9F84305460E46174605FBF4
:102F700006F909F15000FFF713FC044664B1A046BE
:102F800008F15008002084F846003B46424631468E
:102F900028460094FFF717F92046BDE8F8832DE98D
:102FA000F84306460F4690461D46DDF820902C4615
:102FB0004CB1012084F846004B4642463946304623
:102FC0000094FFF700F92046BDE8F88370B5054688
:102FD0000E462C46FFF7FEFCD4E90F12206801FBD9
:102FE0000200A0600020A06320686060E06B401ECB
:102FF000226C216800FB0211E160FF2084F844008C
:1030000084F845009EB9206908B9012000E000203D
:10301000A8B904F1100000F023FD80B14FF08050FA
:1030200009490860BFF34F8FBFF36F8F07E004F1CA
:103030001000FFF798FC04F12400FFF794FCFFF761
:10304000DBFC012070BD000004ED00E02DE9FF4332
:1030500083B0074688461D464FF000093C4600BF36
:10306000FFF7B8FCA06BE16B884201D3022D28D199
:103070002A4641462046FEF7D4FF0646606A08B954
:10308000012000E0002068B904F1240000F0E8FC11
:1030900088B14FF0805032490860BFF34F8FBFF3C3
:1030A0006F8F08E03EB14FF080502D490860BFF3AC
:1030B0004F8FBFF36F8FFFF79FFC012007B0BDE874
:1030C000F083059818B9FFF797FC0020F6E7B9F1EF
:1030D000000F04D101A8FFF70FFD4FF00109FFF722
:1030E0008BFCFFF77BFEFFF775FC94F94400401C56
:1030F00010B9002084F8440094F94500401C10B930
:10310000002084F84500FFF777FC05A901A800F02E
:10311000CBF9F0B92046FFF75AF9A0B104F110003D
:103120000599FFF7FBFC2046FFF7FBFA00F0D8FCFF
:10313000002895D14FF0805009490860BFF34F8FA8
:10314000BFF36F8F8CE72046FFF7EBFA00F0C8FC67
:1031500086E72046FFF7E5FA00F0C2FC0020ADE765
:1031600004ED00E02DE9F84F05468A4616461F4655
:103170002C4600BF1021EFF3118081F31188BFF3BB
:103180004F8FBFF36F8F00BF8146A06BE16B88420A
:1031900001D3022F22D194F945B0A06B00903A469A
:1031A00051462046FEF73DFF0BF1010070B9606A01
:1031B00008B9012000E0002038B904F1240000F033
:1031C0004FFC10B10EB10120306004E00BF10100A2
:1031D00040B284F845004FF0010801E04FF00008CC
:1031E00000BF89F3118800BF4046BDE8F88F00009A
:1031F0002DE9F74183B005460F464FF000082C46F5
:1032000000BFFFF7E7FBA66BF6B139462046FEF795
:10321000F3FE701EA063206908B9012000E00020C1
:1032200060B904F1100000F01BFC38B14FF0805081
:103230002F490860BFF34F8FBFF36F8FFFF7DCFBA1
:10324000012006B0BDE8F081059818B9FFF7D4FB5E
:103250000020F6E7B8F1000F04D101A8FFF74CFCFD
:103260004FF00108FFF7C8FBFFF7B8FDFFF7B2FB0F
:1032700094F94400401C10B9002084F8440094F9EB
:103280004500401C10B9002084F84500FFF7B4FB4E
:1032900005A901A800F008F9F0B92046FFF78AF85F
:1032A000A0B104F124000599FFF738FC2046FFF790
:1032B00038FA00F015FC0028A3D14FF080500C49DB
:1032C0000860BFF34F8FBFF36F8F9AE72046FFF779
:1032D00028FA00F005FC94E72046FFF722FA00F0F8
:1032E000FFFB2046FFF766F800288AD00020A8E7F9
:1032F00004ED00E02DE9F05F05468A4616462C46AF
:1033000000BF1021EFF3118081F31188BFF34F8FBD
:10331000BFF36F8F00BF8046D4F83890B9F1000F2B
:1033200021D094F944B051462046FEF765FEA9F13C
:103330000100A0630BF1010070B9206908B90120F8
:1033400000E0002068B904F1100000F089FB40B1F2
:103350003EB10120306004E00BF1010040B284F87E
:103360004400012700E0002700BF88F3118800BF58
:103370003846BDE8F09F00002DE9F34182B00546D4
:1033800000272C46B84600BFFFF724FBA66BFEB112
:10339000701EA063206810B9FFF772FAA060206960
:1033A00008B9012000E0002060B904F1100000F02D
:1033B00057FB38B14FF080503A490860BFF34F8F48
:1033C000BFF36F8FFFF718FB012004B0BDE8F08159
:1033D000039818B9FFF710FB0020F6E71FB96846FD
:1033E000FFF78AFB0127FFF707FBFFF7F7FCFFF763
:1033F000F1FA94F94400401C10B9002084F844000C
:1034000094F94500401C10B9002084F84500FFF7EE
:10341000F3FA03A9684600F047F840BB2046FEF7E0
:10342000C9FFF0B1206838B9FFF7D4FAA06800F0FE
:10343000C5FA8046FFF7E0FA04F124000399FFF78C
:103440006DFB2046FFF76DF900F04AFB00289BD189
:103450004FF0805013490860BFF34F8FBFF36F8F59
:1034600092E72046FFF75DF900F03AFB8CE7204633
:10347000FFF757F900F034FB2046FEF79BFF0028CA
:1034800082D0B8F1000F0BD0FFF7A4FA2046FEF768
:103490001BFE06463146A068FFF764FBFFF7ACFA57
:1034A000002092E704ED00E070B506460C46FFF7F9
:1034B00091FA124802687068131A2068401C08B913
:1034C000002517E00E4930680968884204D070680A
:1034D000904201D801250DE02068984207D9206864
:1034E000C01A20603046FFF707FB002502E00020ED
:1034F00020600125FFF780FA284670BD6800002093
:103500007C0000202DE9FF4F85B080468946174694
:10351000DDE912ABB800FFF743F9064656B15C206F
:10352000FFF73EF904460CB1266304E03046FFF78E
:1035300073FA00E000248CB1002084F85900CDE932
:1035400000ABCDE902403A4649464046089BFEF7AB
:103550004FFE2046FEF7A2FC012501E04FF0FF35AB
:10356000284609B0BDE8F08F2DE9F04F85B0074639
:10357000884691469A46DDE90EB6109CACB1A6B1DC
:1035800025462E63022085F85900002004A95346E1
:103590004A46CDE900B1CDE9025041463846FEF732
:1035A00027FE2846FEF77AFC01E0002004900498EC
:1035B00005B0BDE8F08F00002DE9F04781460D46CB
:1035C00016461F464FF0010A4C46FFF703FA0FB1AB
:1035D000606D386094F85880022084F85800052EF9
:1035E00017D2DFE806F01503070B0D00606D2843C6
:1035F00060650FE0606D401C60650BE0656509E08B
:10360000B8F1020F01D0656501E04FF0000A01E05A
:1036100000E000BF00BFB8F1010F21D1201DFFF76E
:1036200075F91249E06A0968884202D90F49E06ACF
:103630000860E16A01EB81010D4A02EB8100211D66
:10364000FFF7BBF90B49E06A0968C96A884207D9E4
:103650004FF0805008490860BFF34F8FBFF36F8F62
:10366000FFF7CAF95046BDE8F08700006C00002063
:10367000302800205400002004ED00E02DE9F84F30
:1036800082460D4616461F46DDF828B00120009000
:10369000544600BF1021EFF3118081F31188BFF36E
:1036A0004F8FBFF36F8F00BF81460FB1606D3860E1
:1036B00094F85880022084F85800052E17D2DFE8CD
:1036C00006F01503070B0D00606D284360650FE0E1
:1036D000606D401C60650BE0656509E0B8F1020FA4
:1036E00001D0656501E00020009001E000E000BF2E
:1036F00000BFB8F1010F2BD119480068A0B9201DF7
:10370000FFF704F91749E06A0968884202D91549A8
:10371000E06A0860E16A01EB8101134A02EB810073
:10372000211DFFF74AF904E004F118010F48FFF7E3
:1037300044F90F49E06A0968C96A884208D9BBF1AF
:10374000000F02D00120CBF80000012009490860D9
:1037500000BF89F3118800BF0098BDE8F88F000012
:103760008C0000206C00002030280020B82C0020A5
:1037700054000020780000200549096809B901209B
:1037800005E00449096809B9022000E000207047FB
:10379000700000208C00002001490868704700007C
:1037A000680000202DE9F041002739480068002812
:1037B00066D138480068451C364805608DB93648E2
:1037C000D0F8008035480068334908603348C0F8B5
:1037D000008033480068401C31490860FEF7F4FE61
:1037E00000BF3048006885423AD300BF2A480068CD
:1037F000006808B9012000E0002020B14FF0FF3040
:10380000284908602BE024480068C068C4686668DE
:10381000B54202D22348066021E0201DFFF776F86A
:10382000A06A18B104F11800FFF770F81E49E06AA9
:103830000968884202D91C49E06A0860E16A01EB24
:1038400081011A4A02EB8100211DFFF7B6F81849E1
:10385000E06A0968C96A8842C8D30127C6E700BF81
:1038600013480068C06A00EB8000104951F820003E
:10387000012800D901270F48006800B1012704E0A2
:103880000D480068401C0C4908603846BDE8F081CE
:103890008C00002068000020580000205C00002000
:1038A0007C000020840000206C00002030280020D4
:1038B0005400002078000020740000202DE9F04121
:1038C0000746884614461D46FFF784F821480068DD
:1038D00090F85800022818D01E49096801F15400D8
:1038E000496DB943016001201A49096881F85800FF
:1038F0005DB101212846FEF793FA4FF0805016493A
:103900000860BFF34F8FBFF36F8FFFF775F8FFF7B6
:1039100061F81CB10F480068406D20600D480068D8
:1039200090F85800022801D0002608E009490968EB
:1039300001F15400496D21EA0801016001260020CF
:103940000449096881F85800FFF756F83046BDE889
:10395000F08100005400002004ED00E070B5054641
:103960002C4600261DB3206D401E2065E16CE06AE8
:1039700088421CD0206DD0B9201DFEF7C7FFE06C37
:10398000E062E06AC0F13800A0610A49E06A0968B3
:10399000884202D90749E06A0860E16A01EB8101C7
:1039A000054A02EB8100211DFFF707F8012630468A
:1039B00070BD00006C0000203028002070B5054666
:1039C0002C460026002D42D02249E06A0968C96AC7
:1039D000884235D2A06900F0004028B91D4800682F
:1039E000C06AC0F13800A061E16A01EB81011A4AA6
:1039F00002EB81016069884201D1012000E00020D2
:103A0000C0B1201DFEF782FF12480068C06AE06264
:103A10001249E06A0968884202D91049E06A0860E0
:103A2000E16A01EB81010C4A02EB8100211DFEF7E6
:103A3000C4FF03E007480068C06AE062012606E0B0
:103A40000449E06C0968C96A884200D20126304600
:103A500070BD000054000020302800206C000020C1
:103A600070B50646F068C46804F11800FEF74EFF12
:103A700015480068A0B9201DFEF748FF1349E06A09
:103A80000968884202D91149E06A0860E16A01EBDD
:103A900081010F4A02EB8100211DFEF78EFF04E039
:103AA00004F118010B48FEF788FF0B49E06A09682A
:103AB000C96A884204D9012501200849086000E04C
:103AC0000025284670BD00008C0000206C000020FE
:103AD00030280020B82C002054000020780000205E
:103AE00070B500240026FEF775FF2E480068401EC2
:103AF0002C4908600846006800284ED12A48006812
:103B000000284AD023E02948C068C46804F118009E
:103B1000FEF7FCFE201DFEF7F9FE2549E06A096864
:103B2000884202D92249E06A0860E16A01EB81011A
:103B3000204A02EB8100211DFEF73FFF1E49E06A8B
:103B40000968C96A884202D301201C4908601748E5
:103B5000006808B9012000E000200028D3D00CB193
:103B6000FEF732FD1648056865B100BFFFF71AFE83
:103B700010B10120114908606D1E002DF6D1002002
:103B80000F4908600D48006838B1012630070D491B
:103B90000860BFF34F8FBFF36F8FFEF72DFF3046E6
:103BA00070BD00008C00002064000020B82C0020B4
:103BB0006C000020302800205400002078000020F5
:103BC0007400002004ED00E010B586B00024FEF77C
:103BD000C1F910480068D0B100200590049003AAF4
:103BE00004A905A8FEF7B2FE2822DDE9041000238F
:103BF000CDE90021029008A10948039AFFF7B4FC1F
:103C0000084908600846006800B1012400BF20464A
:103C100006B010BD98000020546D722053766300EA
:103C2000092700009C0000202DE9FF4705460C46AF
:103C300016461F46DDF830804FF000091448006832
:103C400010B3009401960295062C15DAFFF794FD47
:103C5000022808D10023424669460D480068FFF754
:103C6000F5F9814610E000231A46694608480068C5
:103C7000FFF7ECF9814607E000233A46694604481D
:103C80000068FFF76FFA8146484604B0BDE8F08748
:103C9000980000204FF04070E1EE100A70470000DD
:103CA00000400040100000000080054010000000AF
:103CB000005000401100000000900540110000007D
:103CC000006000401200000000A00540120000004B
:103CD000007000401300000000B005401300000019
:103CE000004002401400000000C005401400000025
:103CF000005002402E00000000D005402E000000C1
:103D0000006002402F00000000E005402F0000008E
:103D1000007002403000000000F00540300000005C
:103D200000D00340460000000000064046000000AE
:103D30000010064047000000002006404800000038
:103D4000003006407F000000004006408000000078
:103D50000050064084000000006006408C00000017
:103D600000400040100000000080054010000000EE
:103D700000500040110000000090054011000000BC
:103D8000006000401200000000A00540120000008A
:103D9000007000401300000000B005401300000058
:103DA000004002401400000000C005401400000064
:103DB000005002402E00000000D005402E00000000
:103DC000006002402F00000000E005402F000000CE
:103DD000007002403000000000F00540300000009C
:103DE00000D00340430000000000064043000000F4
:103DF000001006404400000000200640450000007E
:103E00000030064058000000004006405900000005
:103E1000005006405C0000000060064064000000A6
:103E2000007006406C000000008006406D0000003D
:103E3000009006407F0000000040004000800540E8
:103E400000500040009005400060004000A0054088
:103E50000070004000B005400040024000C0054036
:103E60000050024000D005400060024000E00540E4
:103E70000070024000F0054000D003400000064002
:103E800000100640001006400020064000200640BA
:103E9000003006400030064000400640004006402A
:103EA000005006400050064000600640006006409A
:103EB000007006400070064000800640008006400A
:103EC0000090064000900640000700000006000039
:103ED00000050000000400000003000000020000D4
:103EE00000010000000000000000000018ED00E0EC
:103EF0001CED00E020ED00E000E400E004E400E060
:103F000008E400E00CE400E010E400E014E400E069
:103F100018E400E01CE400E020E400E024E400E019
:103F200028E400E02CE400E030E400E034E400E0C9
:103F300038E400E03CE400E040E400E044E400E079
:103F400048E400E04CE400E050E400E054E400E029
:103F500058E400E05CE400E060E400E064E400E0D9
:103F600068E400E06CE400E070E400E074E400E089
:103F700078E400E07CE400E080E400E084E400E039
:103F800088E400E000E100E004E100E008E100E096
:103F90000CE100E010E100E080E100E084E100E0FD
:103FA00088E100E08CE100E090E100E000E200E068
:103FB00004E200E008E200E00CE200E010E200E0D1
:103FC00080E200E084E200E088E200E08CE200E0D1
:103FD00090E200E040420F0000201C0080841E00A0
:103FE00000802500999E36000040380000093D0001
:103FF00000803E0000004B00404B4C0000204E0073
:10400000808D5B0000C05D000080700000127A00AF
:1040100000007D0080969800001BB7000080BB0068
:10402000C0E8CE00647ADA000024F4000000FA0050
:1040300080A81201002D310100366E0140787D010B
:104040004000000000000000000100003E000800E9
:104050000000000000010000A000000002000000BD
:1040600000010000345401000000000000010000C5
:104070002B70060000000000000100002800000076
:104080000000000000010000270001000000000007
:1040900000010000200000000000000000010000FE
:1040A0005000000002000000000100001AAC0000F7
:1040B000000000000001000017940900000000004B
:1040C000000100001698050000000000000100003B
:1040D0001400000000000000000100001380080030
:1040E0000000000000010000A00000000800000027
:1040F00000010000100000000000000000010000AE
:104100002800000002000000000100004000000044
:10411000040000000001000060000000000000003A
:10412000000100005D000C00000000000001000024
:104130005000000000000000000100004E000200DE
:10414000000000000001000041AC01000000000080
:10415000000100003C000000000000000001000021
:104160003A8009000000000000010000300000005B
:104170000000000000010000280000000000000016
:104180000001000027000100000000000001000005
:10419000236006000000000000010000216008000C
:1041A00000000000000100001E00000000000000F0
:1041B000000100001DC0040000000000000100001C
:1041C0005000000002000000000100001800000084
:1041D00000000000000100001400000000000000CA
:1041E0000001000060000000040000000001000069
:1041F0000024F40030003000005A62029100910067
:1042000000879303D200D20000B4C4041301130149
:1042100000E1F50554015401000E270795019501B1
:1042200000688909001C4E0E4442000000C0004096
:1042300000D0004000E00040001800F0011800F03D
:10424000021800F030313233343536373839616294
:1042500063646566000000007842000000000020F2
:10426000A4000000A80200001C430000A4000020DD
:104270007C2F0000C40200000000000000000000CD
:10428000000000000000000000000000000000002E
:10429000000000000000000000000000000000001E
:1042A0000000000080F0FA020000000000000000A2
:1042B00000000000000000000000000000000000FE
:1042C0000000000000000000AAAAAAAA0000000046
:1042D00000000000000000000000000000000000DE
:1042E00000000000000000000000000000000000CE
:1042F00000000000000000000000000000000000BE
:1043000000000000000000000000000000000000AD
:0C431000000000000000000000000000A1
:04000005000003DD17
:00000001FF
