:020000040000FA
:1000000018300020DD030000E5030000E7030000D6
:10001000E9030000EB030000ED0300000000000016
:100020000000000000000000000000001D030000B0
:10003000F10300000000000079030000B116000089
:10004000F7030000F9030000FB030000FD030000BC
:10005000FF0300000D1B0000030400000504000066
:1000600007040000090400000B0400000D04000058
:100070000F04000011040000130400001504000028
:1000800017040000190400001B0400001D040000F8
:100090001F040000210400002304000025040000C8
:1000A00027040000290400002B0400002D04000098
:1000B0002F04000031040000330400003504000068
:1000C00037040000390400003B0400003D04000038
:1000D0003F04000041040000430400004504000008
:1000E0004704000049040000000000004B04000029
:1000F0004D0400004F0400005104000053040000B0
:100100005504000057040000590400005B0400007F
:1001100000000000000000005D0400005F0400001B
:10012000610400006304000065040000670400002F
:10013000690400006B0400006D0400006F040000FF
:1001400000000000000000000000000000000000AF
:1001500071040000730400007504000077040000BF
:10016000000000000000000000000000000000008F
:10017000000000000000000000000000000000007F
:10018000000000000000000000000000000000006F
:10019000000000000000000000000000000000005F
:1001A000000000000000000000000000000000004F
:1001B000790400007B0400007D0400007F0400003F
:1001C000810400008304000085040000870400000F
:1001D000890400008B0400008D0400008F040000DF
:1001E000910400009304000095040000000000004A
:1001F0000000000097040000990400009B04000028
:100200009D0400009F0400000000000000000000AA
:10021000A1040000A3040000A5040000A70400003E
:10022000A9040000AB040000AD040000AF0400000E
:10023000B1040000B3040000B5040000B7040000DE
:10024000B9040000BB040000BD040000BF040000AE
:10025000C1040000C3040000C5040000C70400007E
:10026000C9040000CB040000CD04000000F002F837
:1002700000F03CF80AA090E8000C82448344AAF104
:100280000107DA4501D100F031F8AFF2090EBAE802
:100290000F0013F0010F18BFFB1A43F001031847BA
:1002A000884B0000A84B0000103A24BF78C878C1E2
:1002B000FAD8520724BF30C830C144BF04680C606C
:1002C000704700000023002400250026103A28BFB4
:1002D00078C1FBD8520728BF30C148BF0B607047B8
:1002E0001FB504F09DFA1FBD10B510BD00F0CBF98D
:1002F000114603B401F0A4FE03BCFFF7F1FF01F0C7
:1003000047FF00F0E5F903B4FFF7EEFF03BC00F090
:10031000EDF900000138FDD1704700002C4B196841
:100320000868B0E8F04F80F30988BFF36F8F4FF093
:10033000000080F311887047000000000848006842
:10034000006880F308884FF0000080F3148862B6DC
:1003500061B6BFF34F8FBFF36F8F00DF00BF00BFE9
:1003600008ED00E0DFF80C00016841F47001016065
:10037000704700BF88ED00E0EFF30980BFF36F8F97
:10038000134B1A681EF0100F08BF20ED108A20E9E9
:10039000F04F106009B44FF0100080F31188BFF3E4
:1003A0004F8FBFF36F8F03F04BFA4FF0000080F3D5
:1003B000118809BC19680868B0E8F04F1EF0100FEA
:1003C00008BFB0EC108A80F30988BFF36F8F7047C5
:1003D0004C000020EFF30580704700003F48804745
:1003E0003F480047FEE7FEE7FEE7FEE7FEE7FEE7E1
:1003F000FEE7FEE7FEE7FEE7FEE7FEE7FEE7FEE7D5
:10040000FEE7FEE7FEE7FEE7FEE7FEE7FEE7FEE7C4
:10041000FEE7FEE7FEE7FEE7FEE7FEE7FEE7FEE7B4
:10042000FEE7FEE7FEE7FEE7FEE7FEE7FEE7FEE7A4
:10043000FEE7FEE7FEE7FEE7FEE7FEE7FEE7FEE794
:10044000FEE7FEE7FEE7FEE7FEE7FEE7FEE7FEE784
:10045000FEE7FEE7FEE7FEE7FEE7FEE7FEE7FEE774
:10046000FEE7FEE7FEE7FEE7FEE7FEE7FEE7FEE764
:10047000FEE7FEE7FEE7FEE7FEE7FEE7FEE7FEE754
:10048000FEE7FEE7FEE7FEE7FEE7FEE7FEE7FEE744
:10049000FEE7FEE7FEE7FEE7FEE7FEE7FEE7FEE734
:1004A000FEE7FEE7FEE7FEE7FEE7FEE7FEE7FEE724
:1004B000FEE7FEE7FEE7FEE7FEE7FEE7FEE7FEE714
:1004C000FEE7FEE7FEE7FEE7FEE7FEE7FEE70000E9
:1004D00004480549034A054B70470000C91600004F
:1004E0006D020000182E002018300020182E002069
:1004F000032A40F2308010F0030C00F0158011F850
:10050000013BBCF1020F624498BF11F801CB00F827
:10051000013B38BF11F8013BA2F1040298BF00F87B
:1005200001CB38BF00F8013B11F0030300F030802D
:10053000083AC0F0088051F8043B083A51F804CB5F
:10054000A0E80810F5E7121D5CBF51F8043B40F825
:10055000043BAFF30080D20724BF11F8013B11F830
:1005600001CB48BF11F8012B24BF00F8013B00F874
:1005700001CB48BF00F8012B704702F0FF0343EAAC
:10058000032242EA024200F037B8704770477047D2
:1005900010B5203AC0F00B80B1E81850203AA0E81E
:1005A0001850B1E81850A0E81850BFF4F5AF5FEA52
:1005B000027C24BFB1E81850A0E8185044BF18C905
:1005C00018C0BDE810405FEA827C24BF51F8043BAC
:1005D00040F8043B08BF7047D20728BF31F8023B00
:1005E00048BF11F8012B28BF20F8023B48BF00F894
:1005F000012B70474FF000020429C0F0128010F068
:10060000030C00F01B80CCF1040CBCF1020F18BFEE
:1006100000F8012BA8BF20F8022BA1EB0C0100F081
:100620000DB85FEAC17C24BF00F8012B00F8012B54
:1006300048BF00F8012B70474FF0000200B5134689
:1006400094469646203922BFA0E80C50A0E80C50F2
:10065000B1F12001BFF4F7AF090728BFA0E80C50A3
:1006600048BF0CC05DF804EB890028BF40F8042B9C
:1006700008BF704748BF20F8022B11F0804F18BF09
:1006800000F8012B7047754600F02CF8AE460500C7
:100690006946534620F00700854618B020B5FFF79D
:1006A00017FFBDE820404FF000064FF000074FF065
:1006B00000084FF0000B21F00701AC46ACE8C00980
:1006C000ACE8C009ACE8C009ACE8C0098D46704789
:1006D00010B50446AFF300802046BDE81040FFF798
:1006E00012BE000000487047B42D002001491820B8
:1006F000ABBEFEE7260002007047000010B51048B0
:1007000000F0A0FF0F4800F09DFF0F4800F060F9D7
:100710000E4800F05DF904210D4800F09FF9082112
:100720000B4800F08CF900F041FE044600222146FF
:10073000084800F0DDF9074800F0D5F910BD0000C9
:10074000010800F0002000F003080100030C010084
:10075000005000400000024010B5054800F072FF54
:100760000320FFF7D7FD3021024800F059F910BDF2
:10077000020800F00060004010B5114800F062FF70
:10078000104800F05FFF012000F022F940F2014024
:1007900000F01EF903214FF0402000F06EF9052112
:1007A000094801F002FA094A4FF41651002001F0FD
:1007B0004FFA00221146044801F03AFA10BD000039
:1007C000000800F0001800F000C000400024F40011
:1007D00010B50121074800F0CEF9064800F0BAF93B
:1007E0003C21044800F0BEF900223C21014800F001
:1007F000ADF910BD0000024010B5152000F0C2F99F
:100800001021024801F01AFA10BD000000C000409B
:1008100002F001031BB1D0F800340B4302E0D0F822
:1008200000348B43C0F8003402F002031BB1D0F84F
:1008300020340B4302E0D0F820348B43C0F820343E
:1008400070470000F0B55F4D2D685F4E35405F4E3C
:10085000B5421AD0002416E00125A5400D4085B10F
:10086000D0F8C45F67000326BE40B543C0F8C45F3C
:10087000D0F8C45F6700C2F34116BE403543C0F8EC
:10088000C45F651CECB2082CE6DB02F001051DB16B
:10089000D0F800550D4302E0D0F800558D43C0F864
:1008A000005502F002051DB1D0F804550D4302E0D9
:1008B000D0F804558D43C0F8045502F004051DB16D
:1008C000D0F808550D4302E0D0F808558D43C0F824
:1008D000085502F008051DB1D0F818550D4302E087
:1008E000D0F818558D43C0F81855364D2D68364E42
:1008F0003540364EB5420BD002F010051DB1D0F890
:100900003C550D4302E0D0F83C558D43C0F83C55B2
:1009100003F001051DB1D0F80C550D4302E0D0F8ED
:100920000C558D43C0F80C5503F002051DB1D0F8ED
:1009300010550D4302E0D0F810558D43C0F8105506
:1009400003F004051DB1D0F814550D4302E0D0F8B2
:1009500014558D43C0F8145503F008051DB1D0F8A7
:100960001C550D4302E0D0F81C558D43C0F81C55B2
:10097000144D2D68144E3540144EB54217D003F473
:1009800000751DB1D0F844550D4302E0D0F8445530
:100990008D43C0F8445503F440751DB1D0F840555F
:1009A0000D4302E0D0F840558D43C0F840551BB9C7
:1009B000D0F828550D4302E0D0F828558D43C0F8F3
:1009C0002855F0BD00E00F400000FF70000005104A
:1009D00010B50146C1F307400F4BDB6E0124844084
:1009E000234033B1012303EB40030C4C54F82300A4
:1009F00003E04300094C54F82300C1F30722D0F868
:100A00002C350F249440A34301F00F04944023435A
:100A1000C0F82C3510BD000000E00F40E049000098
:100A200030B504460D460823012229462046FFF72B
:100A300009FF012229462046FFF7EAFE30BD30B506
:100A400004460D46022229462046FFF7E1FE09230F
:100A5000012229462046FFF7F5FE30BD30B5044699
:100A60000D46022229462046FFF7D2FE0823012226
:100A700029462046FFF7E6FE30BD30B504460D4658
:100A8000022229462046FFF7C3FE082301222946F9
:100A90002046FFF7D7FE30BD002303EB8103C25091
:100AA000704710B50024532000F0DBF904435320B5
:100AB00000F0C2F944EA0024532000F0C4F944EAEB
:100AC0000044204610BD0146486800F0010008B10E
:100AD000012070470020FCE74160704701468868AC
:100AE000704781607047016A41F0100101627047F0
:100AF00070B503460C4616461846FFF7F4FF012E64
:100B000001D10F4A00E00F4A142000FB0240401EB2
:100B100002EB82018900B0FBF1F0451EDD60D3F8E5
:100B2000C00F00F0010048B107482044401E0649AC
:100B3000B0FBF1F0451E45F08000D86070BD0000AC
:100B4000801A0600A08601008047370142EA41036F
:100B500003607047016A41F0200101620121C0F881
:100B60000418704700B502460B461046FFF7F2FF27
:100B7000C2F8003800BDD0F80C280A43C0F80C2891
:100B800070470000042806D11949096841F48031F2
:100B9000174A11602BE0052806D11549096841F470
:100BA0000031134A116022E0062806D11049096875
:100BB00041F480210E4A116019E00F2808D14FF04E
:100BC000E021096941F002014FF0E02211610EE0DD
:100BD00010280CD3A0F1100101F01F020121914057
:100BE000A0F110025209034B53F822201160704704
:100BF00024ED00E02C4B000010B50021084600F069
:100C000065F8642001F0A0F90121002000F05EF8F1
:100C1000642001F099F90021012000F057F86420C8
:100C200001F092F90121084600F050F8642001F02B
:100C30008BF90021084600F049F810BD10B50021DD
:100C4000084600F043F8642001F07EF901210846CF
:100C500000F03CF8642001F077F90021084600F02C
:100C600035F8642001F070F90121084600F02EF8F3
:100C7000642001F069F90021084600F027F810BD52
:100C800070B50446002504F11300C1B2532000F0F2
:100C9000ADFA054604F11400C1B2532000F0A6FAE3
:100CA000050205A000F0FCFF284602F021FE06A088
:100CB00000F0F6FF284670BD0A52454144204F55CA
:100CC000545055543A0000002000000070B505460D
:100CD0000C462DB1102211460A48FFF7DDFE04E054
:100CE000002210210748FFF7D7FE2CB12022114621
:100CF0000448FFF7D1FE04E0002220210148FFF75D
:100D0000CBFE70BD0060004010B5532000F0B0F87D
:100D100030A000F0C5FF0B21532000F067FA044615
:100D200002F0E6FD2EA000F0BBFF0A21532000F0E8
:100D30005DFA044602F0DCFD2CA000F0B1FF1121A9
:100D4000532000F053FA044602F0D2FD2BA000F02D
:100D5000A7FF2CA000F0A4FF0121532000F090F881
:100D6000044602F0C5FD2BA000F09AFF23A000F07E
:100D700097FF07220121532000F05CF927A000F023
:100D80008FFF0121532000F07BF8044602F0B0FDF4
:100D900020A000F085FF00220221532000F04AF934
:100DA00040220521532000F045F90122062153205D
:100DB00000F040F980220921532000F03BF9022283
:100DC0000A21532000F036F9C0220D21532000F0F3
:100DD00031F910BD0A434F4D4D414E44203D0000B6
:100DE0000A484F5354494E30203D00000A524553A3
:100DF000504F4E534530203D000000000A55534FE0
:100E00003A0000000A506172616D20726561643AB7
:100E1000000000000A50524F534F3A000A506172CE
:100E2000616D20726561642028524553504F4E53C6
:100E30004531203D2000000010B504460121204628
:100E400000F0D4F910BD10B504460021204600F092
:100E5000CDF910BD10B504461121204600F0C6F9A9
:100E600010BD10B504460221204600F0BFF910BDA8
:100E700010B504460021204601F0E4F810BD000042
:100E80002DE9F04106460D4643A000F009FF11216F
:100E9000304600F0ABF9044646A000F001FF2046C2
:100EA00002F026FD07E01121304600F09FF90446CC
:100EB00044A000F0F5FE04F020000028F3D03DA08F
:100EC00000F0EEFE204602F013FD04F01000A0B189
:100ED00041A000F0E5FE00220B21304600F0D0F9E1
:100EE00007E041A000F0DCFE1121304600F07EF961
:100EF000044604F0DF000028F3D12EA000F0D0FE5D
:100F0000204602F0F5FC05F03F0000F140053BA053
:100F100000F0C6FE0B21532000F068F9074602F0EE
:100F2000E7FC39A000F0BCFE0A21532000F05EF976
:100F3000074602F0DDFC2A460B21304600F0A0F9FE
:100F40002EA000F0ADFE0B21532000F04FF9074614
:100F500002F0CEFC2CA000F0A3FE0A21532000F0EA
:100F600045F9074602F0C4FC12A000F099FE2046A5
:100F700002F0BEFC00BF1121304600F037F9C00678
:100F8000B0EBC46FF7D023A000F08AFE10213046EA
:100F900000F02CF9BDE8F0810A2D2D2D2D2D555393
:100FA0004F20506172616D20524541442D2D2D2DF1
:100FB0002D2D00000A524553504F4E5345203020EE
:100FC0003D2000000A55534F20752070727669202D
:100FD0007768696C653A00000A55534F2075207098
:100FE0007276692069663A000A55534F207520646D
:100FF00072756769207768696C653A000A434F4DDE
:101000004D414E44203D00000A484F5354494E3054
:10101000203D00000A2D2D2D2D495A4153414F20CE
:10102000495A20504152414D20524541442D2D2DC9
:101030002D0000002DE9F04106460D46174644A05C
:1010400000F02EFE1121304600F0D0F8044647A0F3
:1010500000F026FE204602F04BFC07E047A000F01F
:101060001FFE1121304600F0C1F8044604F02000B4
:101070000028F3D03DA000F013FE204602F038FC1B
:1010800004F01000A0B142A000F00AFE00220B21E3
:10109000304600F0F5F807E041A000F001FE112114
:1010A000304600F0A3F8044604F0DF000028F3D136
:1010B0002EA000F0F5FD204602F01AFC05F03F00DE
:1010C00040F080053BA000F0EBFD0B21532000F029
:1010D0008DF8804602F00CFC39A000F0E1FD0A21F9
:1010E000532000F083F8804602F002FC3A460A21C1
:1010F000304600F0C5F82A460B21304600F0C0F813
:101100002CA000F0CDFD0B21532000F06FF880469D
:1011100002F0EEFB2AA000F0C3FD0A21532000F0EC
:1011200065F8804602F0E4FB10A000F0B9FD20460F
:1011300002F0DEFB00BF1121304600F057F8C00678
:10114000B0EBC46FF7D021A000F0AAFDBDE8F0819C
:101150000A2D2D2D2D2D2055534F20506172616D7C
:1011600020536574202D2D2D2D2D00000A5245533E
:10117000504F4E53452030203D2000000A55534F1C
:1011800020752070727669207768696C653A000076
:101190000A55534F207520707276692069663A00AF
:1011A0000A55534F20752064727567692077686906
:1011B0006C653A000A434F4D4D414E44203D0000BE
:1011C0000A484F5354494E30203D00000A2D2D2D22
:1011D0002D495A4153414F20495A20504152414DC7
:1011E000205345542D2D2D2D0000000070B50446D0
:1011F0000D460026002221461C48FFF7A7FC0321CC
:101200001A48FFF769FC00BF1848FFF75CFC00288C
:10121000FAD10A20FFF77EF829461448FFF761FC4F
:1012200007211248FFF758FC00BF1048FFF74BFC9E
:101230000028FAD10A20FFF76DF8012221460B4859
:10124000FFF784FC07210948FFF746FC00BF074869
:10125000FFF739FC0028FAD10A20FFF75BF80348B2
:10126000FFF73CFCC6B2304670BD000000000240F3
:1012700010B504461321204600F0E4FE10BD000026
:1012800070B504460E461546002221461248FFF767
:101290005DFC31461048FFF724FC03210E48FFF7A0
:1012A0001BFC00BF0C48FFF70EFC0028FAD10A20F7
:1012B000FFF730F829460848FFF713FC05210648D8
:1012C000FFF70AFC00BF0448FFF7FDFB0028FAD136
:1012D0000A20FFF71FF870BD0000024010B5532030
:1012E000FFF7C6FF10BD000010B52E2109A000F0C9
:1012F0000DFE1A2113A000F009FE1B2118A000F01A
:1013000005FE2F211DA000F001FE2E2101A000F0FE
:10131000FDFD10BD2A2A2A2A2A2A2A2A2A2A2A2A0E
:101320002A2A2A2A2A2A2A2A2A2A2A2A2A2A2A2A1D
:101330002A2A2A2A2A2A2A2A2A2A2A2A2A2A2A2A0D
:101340000A00000050726F6772616D3A205377692E
:101350007065206465746563746F720A0000000034
:10136000417574686F723A2055726F732043766AC4
:101370006574696E6F7669630A0000004861726483
:10138000776172653A20544D3443313233474836E1
:10139000504D20616E642050726F78696D69747968
:1013A000436C69636B31330A00000000F0B55048AC
:1013B000036E026F02F0004010B102F0700001E015
:1013C00003F03000202811D003DC38B1102815D1EB
:1013D0000AE030280CD0702810D10CE04548C3F347
:1013E000841750F827100BE0434909E0434907E010
:1013F00047F2305104E04FF4004101E00020F0BD1D
:1014000000BF4FF0FF3402F0004010B102F4006062
:1014100028B102F0004090BB03F4006078BB38486C
:1014200005683348D0F8646106F01F00401CC6F31D
:1014300004277F1C10FB07F04000B1FBF0F1C5F35F
:1014400009004843C5F389274F4300EB972143F434
:1014500080032748006900F47040B0F5804F13D036
:1014600006DCB0F5005F0BD0B0F5405F12D109E0AB
:10147000B0F5E04F0AD0B0F5104F0BD108E00BE00B
:10148000204C08E0204C06E0204C04E0204C02E018
:10149000204C00E000BF00BF03F4800018B302F04E
:1014A0000040D8B102F0804090B102F0004010B18D
:1014B00002F4006028B102F0004048B903F4006073
:1014C00030B94F00C2F38650401CB7FBF0F10AE080
:1014D000C2F3C550401CB1FBF0F104E0C3F3C350AC
:1014E000401CB1FBF0F18C4200D22146084686E751
:1014F00000E00F407C4B00000024F40000093D0098
:1015000060E10F4000B4C40480F0FA02005A6202A5
:1015100040787D01002D31012DE9F0410646444817
:10152000046E056F44F4006424F4800445F40065FF
:101530000466056704F00100D8B106F00100C0B9E7
:1015400066F0010004404FF4807039498865084610
:1015500004664FF4002702E07F1E07B905E0344817
:10156000006D00F480700028F6D000BF0FB9BDE810
:10157000F08124F4FE6406F4FE6004432D48054027
:101580002C49A13106EA0100054306F0080045EAAE
:10159000C00527480466056724F4005406F400508B
:1015A000044325F4005506F400500543402020492B
:1015B000886505F0004018B108460567046602E03A
:1015C0001B48046605671C480440C14306EA010045
:1015D000044325F0FC5506F0FC50054306F080401E
:1015E00040B144F4800425F48005144906EA010062
:1015F000054301E025F0804506F4006080B94FF412
:10160000004706E00E48006800F0010000B102E06B
:101610007F1E002FF6D100BF24F4006425F400657E
:101620000348046605671020FEF774FE00BF9EE7BE
:1016300000E00F408FFFFF7FFEFF3FF800004040BB
:1016400068E10F4010B50121C0F30722094B1A448D
:1016500002F0704242F00072C0F30723054C2344AD
:10166000C3F3130342EA4312C3B242EA8302116096
:1016700010BD000000E60F400146C1F307200B4AF1
:10168000104400F0704040F00070C1F30722074B97
:101690001A44C2F3130240EA4210CAB240EA82007E
:1016A000006808B1012070470020FCE700E30F400C
:1016B00010B54FF0E020006902F024FE012801D0AF
:1016C00002F0D6F910BD00001B49096841F4700111
:1016D000194A116019491A4A11671A4911661A49BB
:1016E00011661A491167002000E0401CB0F57A7FAE
:1016F000FBD31749124A116616491167002000E012
:10170000401CB0F57A7FFBD313490D4A116600BF28
:101710000B49096D01F040014029F9D10F49084AF0
:1017200011664FF0C0711167002000E0401C42F2CA
:1017300010718842FAD3704788ED00E010288007C6
:1017400000E00F40D13A8E07422D9E010028800113
:10175000420D9E0100088001420DDE014205DE01BE
:1017600008B520213B48006801F04AF805461DB144
:10177000192139A000F0CAFB6AE019213DA000F050
:10178000C5FB3C213D4800F0C1FB0E213CA000F010
:10179000BDFB4FF0FF33002269463E48006800F071
:1017A0000DFE0546002D51D19DF80000612825D081
:1017B00063283DD0702802D0732841D129E0FFF77B
:1017C00070F90446142134A000F0A0FB142138A0C5
:1017D00000F09CFBC4F3074002F08AF8142138A003
:1017E00000F094FBC4F3072002F082F8142139A022
:1017F00000F08CFBE0B202F07BF826E0142139A067
:1018000000F084FBFFF780FA14213CA000F07EFB7F
:101810001BE014213EA000F079FBFFF75FFD0120E3
:101820004149087001214148006800F0ADFE0CE01C
:1018300014213FA000F06AFB00203B49087004E03F
:10184000142140A000F062FB00BF00BF01F000F8CF
:1018500093E70000080000205468726561642070FE
:1018600072696F72697479206E6F74207365740A7F
:1018700000000000436F6D6D0A000000D04D0000B5
:101880000A456E74657220636F6D6D616E643A20F7
:1018900000000000040000200A53656E736F722080
:1018A000696E666F726D6174696F6E3A0000000058
:1018B0000A504152542049442069733A20000000E4
:1018C0000A48415244574152452049442069733ADD
:1018D000200000000A5245562049442069733A20EE
:1018E000000000000A534554494E472055502053EC
:1018F000454E534F522E2E2E000000000A2E2E2E43
:1019000053454E534F522052454144590000000068
:101910000A50524F4752414D20535441525445446E
:101920002E2E2E2000000000140000200C000020AD
:101930000A2E2E2E50524F4752414D2053544F5095
:10194000454400000A4E6F20636F6D6D616E642028
:101950007265676973746572656400008AB00020FF
:1019600009900024002508212948006800F048FF5C
:1019700006461EB1192127A000F0C8FA47E02C48FE
:101980000078002841D019212AA000F0BFFA4FF0BA
:10199000FF33002209A92B48006800F00FFD06461E
:1019A000192129A000F0B2FA192122A000F0AEFA04
:1019B0005EBB24B1012C0DD0022C20D115E0BDF866
:1019C00024202846691CCDB206A921F81020601CED
:1019D000C4B216E0BDF824202846691CCDB203A984
:1019E00021F81020601CC4B20BE0BDF8242028466A
:1019F000691CCDB22DF81020601CC4B201E0002497
:101A000000BF00BF042D00DD002500F021FFB6E778
:101A100010000020546872656164207072696F72F2
:101A2000697479206E6F74207365740A0000000079
:101A300014000020546872656164204765737475F2
:101A400072650A00000000205061737365642055C0
:101A500041525420525820626C6F636B200A000080
:101A600008B500240020009018211A48006800F0F2
:101A7000C7FE05461DB1192117A000F047FA27E05F
:101A800019211CA000F042FA4FF0FF320021012082
:101A900000F0C6FD192117A000F038FA2046621C9C
:101AA000D4B2FFF7EDF8C0B200904FF0FF33002240
:101AB00069461448006800F019FD3CB112480078EE
:101AC00020B101210348006800F05EFD00F0C0FE77
:101AD000D6E700000C000020546872656164207035
:101AE00072696F72697479206E6F74207365740AFD
:101AF0000000000054687265616420526561640AE8
:101B000000000000000000201400002038B5012172
:101B1000124800F097F804462146104800F08CF86F
:101B200004F01000C8B10D4800F039F8A8B10B4816
:101B300000F01AF8C0B200900121684600F0E6F902
:101B400000231A4669460648006800F0CFFC0548A5
:101B500000F036FE014800F010F838BD00C000402B
:101B60000400002061170000014600BF886900F0F2
:101B700010000028FAD1086870470146886900F013
:101B8000100008B9086870474FF0FF30FBE700BF4E
:101B9000826902F02002002AFAD1016070470146F2
:101BA0008869012222EA10107047C0F8C81F7047E8
:101BB000F0B504460E4615461F46204600F01EF8B6
:101BC000B6EB051F05D2206B40F0200020636D08A6
:101BD00003E0206B20F020002063F000B0FBF5F064
:101BE000401C43089809606203F03F00A062E7626E
:101BF0000020A061204600F011F8F0BD00BF81690F
:101C000001F008010029FAD1C16A21F01001C16276
:101C1000016B40F20132914301637047C16A41F0A8
:101C20001001C162016B40F2013211430163704740
:101C300041EA02034363704741647047826B0A4381
:101C400082637047024609B1106C7047D06BFCE7A5
:101C500070B504460D4616460E4951F82400FFF7AC
:101C60000BFD00B970BD0C4850F824000B4908600A
:101C7000084951F82400FFF7E5FC60232A46314665
:101C800006480068FFF794FF04480068FFF7C6FFA6
:101C900000BFE7E73C480000304800001800002083
:101CA0000FB408B503A800900099029800F006F858
:101CB0000020009001B05DF814FB00002DE9F34F07
:101CC00085B0064612E1002400E0641C305D252842
:101CD00002D0305D0028F8D12146304600F016F9D8
:101CE000264430782528EDD1761C00254FF0200BB6
:101CF00000BF16F8011B382932D014DC33292AD052
:101D000008DC25296FD0302922D0312921D0322971
:101D10006AD11FE034291FD035291ED036291DD0A5
:101D20003729F5D11BE0692935D008DC392918D0CD
:101D3000582972D0632922D06429E9D12AE0702978
:101D40006CD073293CD0752958D07829E0D163E054
:101D500000BF00BF00BF00BF00BF00BF00BF00BF8B
:101D600000BF16F8010C302801D105B9834605EBF8
:101D70008500450016F8010C30380544B9E706988F
:101D8000006804900698001D0690012104A800F048
:101D9000BDF8AAE000BF0698006804900698001DF0
:101DA00006904FF000080498002805DA0498404295
:101DB00004904FF0010901E04FF000090A2739E0D3
:101DC000069850F804AB0690002400E0641C1AF852
:101DD00004000028FAD12146504600F097F8A542A9
:101DE0000BD92D1B05E076E07AE0012143A000F03D
:101DF0008DF8281EA5F10105F7D176E00698006858
:101E000004900698001D06904FF000080A274FF036
:101E100000090FE001E001E000BF00BF0698006884
:101E200004900698001D06904FF0000810274FF010
:101E3000000900BF012401E07C436D1E04FB07F094
:101E40000499884205D804FB07F0B0FBF7F0A042E4
:101E5000F2D0B9F1000F00D06D1EB9F1000F0AD019
:101E6000BBF1300F07D12D22404608F101080DF8D3
:101E700000204FF00009012D0BD9102D09D26D1E45
:101E800005E0404608F101080DF800B06D1E002D78
:101E9000F7D1B9F1000F05D02D22404608F1010815
:101EA0000DF8002010E00498B0FBF4F0B0FBF7F15F
:101EB00007FB1100124909680A5C404608F1010855
:101EC0000DF80020B4FBF7F4002CECD14146684635
:101ED00000F01CF809E0701E012100F017F804E082
:101EE000052108A000F012F800BF00BF30780028DC
:101EF0007FF4E9AE07B0BDE8F08F000020000000DD
:101F00002C4800004552524F5200000070B5054663
:101F10000E46002411E0285D0A2805D10D2109484C
:101F20000068FFF734FE02E0285D00B907E0295D94
:101F300004480068FFF72BFE641CB442EBD300BFDB
:101F4000204670BD1800002070B50446FFF72EFA39
:101F50000321B0FBF1F04FF47A71B0FBF1F000FB1C
:101F600004F52846FEF7D6F970BDEFF311807047EF
:101F7000EFF305807047EFF31080704710B504460B
:101F800000F086FC20B14FF0FF31206801F0BAFF6D
:101F900010BD000070B50546286801F0A7FA0024BE
:101FA0000BE0084951F824102868884204D1002029
:101FB000044941F8240002E0641C052CF1D300BF61
:101FC00070BD00001C04002070B50546002028608C
:101FD000002415E0124850F8240080B904EB840076
:101FE000104A02EB0011012001F06DFD0C4941F88F
:101FF0002400084650F824002860012070BD641CAD
:10200000052CE7D300F044FC18B1012001F04AFD93
:102010002860286808B90020F0E70120EEE70000FA
:102020001C0400208C02002010B5044600F030FC97
:1020300028B100231A461946206801F0CDFD10BDD5
:10204000704700002DE9F04780460E46002734A077
:10205000FFF726FE4046FEF7FDFE054636A0FFF7D9
:102060001FFE284601F044FC002D02DA2846BDE898
:10207000F08705F01F0530A0FFF712FE284601F09B
:1020800037FC1AE0404600F069F840B2041E01D067
:102090002046ECE706B912E04046FEF7DBFE44B20C
:1020A00004F01F00A84200D109E0002C01DA20460C
:1020B000DDE704F01F05781CC7B2052FE2DB00BF87
:1020C0001DA0FFF7EDFD4046FEF7C4FE814601F07E
:1020D0000FFC1DA0FFF7E4FD32460B214046FFF741
:1020E000CFF8002716E006B916E04046FEF7B2FE2C
:1020F00044B211A0FFF7D4FD204601F0F9FB04F033
:102100001F00A84200D007E0002C01DA2046AEE70D
:10211000781CC7B2052FE6DB00BF0020A7E7000050
:102120000A2D2D2D2D2D2073656E6420434D4420E6
:102130002D2D2D2D2D0000000A524553504F4E538A
:10214000452030203D2000000A3D3D5570697375E3
:102150006A656D206B6F6D616E64750070B50646C3
:102160004FF0FF3400250EE03046FEF773FE0446C4
:1021700004F0E000202800D107E0002C01DA20461E
:1021800070BD681CC5B2052DEEDB00BF0020F7E76F
:102190001048FFF7C1F9FEF7DFFAFEF74FFDFEF733
:1021A000EBFAFEF729FBFEF727FD17210AA0FFF740
:1021B000ADFEFFF799F8FEF7A1FAFEF709FBFEF76F
:1021C0001BFD16210AA0FFF7A1FE00F01BF800BFBF
:1021D000FEE70000400500C15541525420697320BC
:1021E000636F6E66696775726564200A000000009F
:1021F00049324320697320636F6E66696775726543
:1022000064200A0010B500F07FF80022114627482C
:1022100000F06CFA264908600846006810B94FF0D3
:10222000FF3010BD00221146224800F05FFA22491B
:1022300008600846006810B94FF0FF30F1E700224F
:1022400011461E4800F052FA1D4908600846006811
:1022500010B94FF0FF30E4E7FEF7CEFC162119A0CD
:10226000FFF754FE00220221102000F0F3F81B4972
:1022700008600846006810B94FF0FF30D1E700222F
:102280000121102000F0E6F81549086008460068B2
:1022900010B94FF0FF30C4E7FEF7AEFC1B2111A0D0
:1022A000FFF734FE00F050F800BFFEE761170000B2
:1022B00008000020611A00000C0000205D190000D9
:1022C000100000205468726561647320696E69743F
:1022D00069616C697A65640A0000000000000020F2
:1022E00004000020434D5349532052544F53322091
:1022F0006F626A6563747320696E697469616C6981
:102300007A65640A0000000010B5FFF731FE48B995
:10231000FFF731FE10B9FFF728FE30B10948006819
:10232000022802D16FF0050409E00648006820B9D0
:10233000012004490860002401E04FF0FF342046EA
:1023400010BD00002000002070B5FFF711FE48B955
:10235000FFF711FE10B9FFF708FE30B1144800680E
:10236000022802D16FF005041FE01148006801281F
:1023700019D100BF801F0021002804DB4A07130E7B
:102380000C4A135406E04A07150E0B4A00F00F03DF
:102390001B1FD55400BF00BF02200549086001F093
:1023A000FDF9002401E04FF0FF34204670BD00002D
:1023B0002000002000E400E018ED00E02DE9F843E3
:1023C00007460D4691461C463E464FF00008FFF773
:1023D000CFFD48B9FFF7CFFD10B9FFF7C6FD00B339
:1023E0001A48006802281CD10EB105B114B16FF073
:1023F000030828E0002000906A462946304601F094
:102400003FFD012802D06FF002081CE00098D0B117
:102410004FF080500E490860BFF34F8FBFF36F8FAE
:1024200011E006B115B96FF003080CE02246294609
:10243000304601F0A3FC012805D014B16FF001086B
:1024400001E06FF002084046BDE8F883200000205C
:1024500004ED00E02DE9F84305460E4614464FF022
:102460000008FFF785FD00283AD1FFF784FD10B979
:10247000FFF77BFD18B11C480068022830D03DB33F
:1024800036B34FF0FF37BCB1A06858B1E0685028B0
:1024900008D3206930B105FB06F06169814201D3A0
:1024A00001270AE0A06840B9E06830B9206920B986
:1024B000606910B9002700E00027012F09D1002032
:1024C000009031462846A368226901F02EFB804621
:1024D00006E02FB900223146284601F009FB80466C
:1024E0004046BDE8F8830000200000202DE9F843B5
:1024F00007460D4691461C463E464FF00008FFF742
:1025000037FD48B9FFF737FD10B9FFF72EFD08B3C7
:102510001B48006802281DD10EB105B114B16FF03F
:1025200003082AE00020009000236A46294630462E
:1025300001F0DEFB012802D06FF002081DE00098D8
:10254000D8B14FF080500F490860BFF34F8FBFF3F1
:102550006F8F12E006B115B96FF003080DE000238C
:1025600022462946304601F037FB012805D014B138
:102570006FF0010801E06FF002084046BDE8F88303
:102580002000002004ED00E0FEB504460D4626467E
:1025900016B105F0004018B16FF00300029038E06A
:1025A0004FF0FF300290FFF7E3FC48B9FFF7E3FC80
:1025B00010B9FFF7DAFC00B31748006802281CD1F5
:1025C0000020019001A800230122294600903046F6
:1025D00001F01AFE002002AB024601460090304690
:1025E00001F012FE0198A0B14FF080500B49086035
:1025F000BFF34F8FBFF36F8F0BE0002301222946FB
:10260000304601F09FFD02AB00221146304601F03A
:1026100099FD0298FEBD00002000002004ED00E0BE
:102620002DE9FC5F054689461646FFF7A1FC48B92F
:10263000FFF7A1FC10B9FFF798FC30B12A480068F9
:10264000022802D16FF005044AE005F0004010B105
:102650006FF0030444E009F00200022802D14FF0B9
:10266000000A00E0AA460024374601F05BFE009015
:1026700000BF3B4601AA5146002001F0E5FE80461E
:10268000B8F1010F22D12C400198044309F0010058
:1026900040B105EA0400A84200D120E056B96FF02D
:1026A00002041CE005EA040000B118E016B96FF05E
:1026B000020414E001F036FE0099A0EB010BBB45CB
:1026C00001D9002708E0A7EB0B0705E016B96FF06A
:1026D000020401E06FF00104B8F1000FC9D100BF9E
:1026E0002046BDE8FC9F0000200000202DE9FF47A8
:1026F00080468946144600200390FFF739FC0028E5
:102700005AD1FFF738FC10B9FFF72FFC18B12B484E
:102710000068022850D0B8F1000F4DD0802618254F
:102720004FF0000A4FF0FF3744B3206808B1D4F8E7
:1027300000A0A06900B1A5692DB1382D03D820797A
:1027400000F0010018B1002004B0BDE8F087606916
:1027500008B160698608A06840B1E0685C2805D3CC
:10276000206918B1606908B1012708E0A06830B994
:10277000E06820B9206910B9002700E00027012F88
:102780000CD12169A0684B463246CDE90051029038
:102790005146404601F0AEFC03900DE067B903A836
:1027A000B2B24B465146CDE90050404601F070FCB4
:1027B000012801D0002003900398C5E720000020E5
:1027C00070B505462E46FFF7D3FB48B9FFF7D3FB9C
:1027D00010B9FFF7CAFB30B108480068022802D1DF
:1027E0006FF0050407E016B96FF0030403E000245E
:1027F000304600F097FF204670BD0000200000200A
:102800002DE9F04106460D463746FFF7B1FB48B9C2
:10281000FFF7B1FB10B9FFF7A8FB30B10B48006818
:10282000022802D16FF005040CE01FB1012D01DB7D
:10283000382D02DD6FF0030404E0002429463846F9
:1028400000F000FF2046BDE8F081000020000020DD
:1028500010B5FFF78DFB48B9FFF78DFB10B9FFF7F7
:1028600084FB30B108480068022802D16FF00504EB
:1028700008E000244FF0805004490860BFF34F8FF8
:10288000BFF36F8F204610BD2000002004ED00E054
:1028900010B50748007848B901F034FD012803D08D
:1028A00001200349087010BD0020FCE70120FAE771
:1028B0001D0000202DE9F04105460E461648076828
:1028C00016480068001D00F04BFD681C38B936B191
:1028D00012480168091D124800F099FD1AE07C19A0
:1028E0000E4800684460BC4207D20C480168091DCC
:1028F0000C48006800F071FD0CE008480168091DF3
:102900000948006800F069FD08480068844201D267
:1029100006480460BDE8F081600000204C00002003
:10292000D82C002054000020500000207C00002003
:1029300010B5044600F078FD24480068401C234987
:1029400008602348006840B92148046008460068D0
:1029500001280DD100F0E4F90AE01E48006838B9FA
:102960001B480068C06AE16A884201D818480460C0
:1029700019480068401C18490860084600686064EF
:102980001649E06A0968884202D91449E06A086079
:10299000E16A01EB8101124A02EB8100211D00F086
:1029A00036FD00F053FD0B48006868B10848006828
:1029B000C06AE16A884207D24FF080500949086036
:1029C000BFF34F8FBFF36F8F10BD00005C0000207E
:1029D0004C000020680000207800002064000020E7
:1029E0002828002004ED00E008B500F01DFD0E4889
:1029F0000068A8B90D4800F0E0FC0D4800F0DDFCCF
:102A00000A480C4908600A480B49086000200B4B33
:102A10000B4A10210090052001F087F80249086058
:102A200000F014FD08BD000090000020EC2C0020F8
:102A3000002D0020880000208C000020142D002094
:102A4000642D002010B516E000F0EEFC0C48C068C4
:102A5000C468201D00F084FC0A480068401E094933
:102A6000086009480068401E0749086000F0EEFC55
:102A7000204600F05FF8044800680028E4D110BD4B
:102A8000C42C00205C0000205800002070B50446D3
:102A90000D46206C70B1216CE0680144E160D4E91E
:102AA0000210884201D32168E1602846226CE16867
:102AB000FDF71EFD70BD2DE9F04104460F46154699
:102AC0004FF00008A66B206C48B9206800282CD174
:102AD000A06801F009FD80460020A06025E07DB9D6
:102AE0003946226C6068FDF703FD216C606808447C
:102AF0006060D4E90101884217D32068606014E067
:102B00003946226CE068FDF7F3FC216CE068411A5D
:102B1000E1602168E068884203D2216CA068411A14
:102B2000E160022D01D106B1761E701CA063404603
:102B3000BDE8F08110B5044694F8590030B9206B17
:102B400000F094FC204600F091FC06E094F8590057
:102B5000012802D1204600F089FC10BD01464A6AD6
:102B600022B10A6B1268C2F1380000E00020704701
:102B70000146084A126812680AB9012200E00022E0
:102B80000A600A6822B9034A1268D268106800E035
:102B9000002070478800002030B54FF400531748DC
:102BA00000F007042CB1C01D20F00700134C041BDB
:102BB0001B1B0246124C22600024114D6C60D01881
:102BC000083820F007000F4C206000240D4D2D68C0
:102BD0006C600C4D2D682C601146441A4C60094CF9
:102BE00024680C60084D4C682C60084D4C682C60C3
:102BF0004FF00044064D2C6030BD00002808002036
:102C00002800002030000020380000203400002080
:102C10004400002000BFFFF715FF064800680128A8
:102C2000F9D94FF0805004490860BFF34F8FBFF3CC
:102C30006F8FF0E72828002004ED00E010B504466F
:102C400054B10020A06020600021E16000231A46FA
:102C50001946204600F0C0FF10BD2DE9F0410646A0
:102C60000D4617469846069C0DB9246000E0276083
:102C7000E66325640121204600F06EFF84F84C8055
:102C8000BDE8F0812DE9F05F81460E4690469A46F8
:102C90000A9F0C9C4FEA8801A522206BFDF76DFC72
:102CA000A8F10100216B01EB800B2BF0070B86B123
:102CB000002507E0715D04F134004155705D00B9F5
:102CC00002E06D1C102DF5D300BF002143200155FB
:102CD00002E0002084F83400382F00D33727E76261
:102CE000E76400202065201D00F074FB04F118004B
:102CF00000F070FB2461C7F13800A061646200201D
:102D0000606584F8580052464946584600F012FB68
:102D100020600B9808B10B980460BDE8F09F00009C
:102D200010B5002407E004EB84010F4A02EB810098
:102D300000F043FB641C382CF5D30C4800F03DFB3D
:102D40000B4800F03AFB0B4800F037FB0A4800F054
:102D500034FB0A4800F031FB044809490860044884
:102D60000849086010BD000028280020882C002099
:102D70009C2C0020B02C0020C42C0020D82C00203B
:102D8000500000205400002010B50146164800E015
:102D9000006803688B42FBD30246436813448B42AE
:102DA00004D143684C682344436001460A464B689B
:102DB00013440468A34211D10C4C03682468A34255
:102DC00008D04B680468646823444B6003681B6840
:102DD0000B6005E0054B1B680B6001E003680B60AE
:102DE000884200D0016010BD280000203000002083
:102DF0002DE9F04104460D4616461F464FF00008E7
:102E000065602461B5420CD8F01BA169884202D3E9
:102E10004FF0010811E0211D0948006800F0DDFABB
:102E20000BE0BE4204D2BD4202D34FF0010804E0E1
:102E3000211D0448006800F0D0FA4046BDE8F0814A
:102E40008C0000208800002070B5054600F0ECFAE8
:102E5000A86B08B9012400E0002400F0F7FA20462E
:102E600070BD70B5054600F0DFFAA86BE96B8842CB
:102E700001D1012400E0002400F0E8FA204670BDF2
:102E8000F8B505460E4614480068C068C468201DA1
:102E900000F066FA94F8280000F0040088B1A069F8
:102EA00041192B4632462046FFF7A2FF78B1002099
:102EB00003462A4601460090204601F07BFC074667
:102EC00005E094F8280020F0010084F8280020464E
:102ED000216A8847F8BD000088000020F0B587B05F
:102EE00076E00398002805DA04AED6E90020B16840
:102EF000904700BF039800286ADB059C606908B909
:102F0000012000E0002010B9201D00F029FA02A8DD
:102F100000F0BEF8054603980A2857D2DFE800F013
:102F20000905072D354606082E3600BF00BF00BF35
:102F300000BF94F8280040F0010084F828000498AD
:102F4000A269811803462A462046FFF751FF98B12F
:102F50002046216A884794F8280000F0040058B100
:102F6000002000900498A1694218002319462046C9
:102F700001F020FC074600BF29E000BF94F82800BC
:102F800020F0010084F8280021E000BF94F8280018
:102F900040F0010084F828000498A061A06941195C
:102FA0002B462A462046FFF723FF10E094F828001E
:102FB00000F0020018B9204600F058FA05E094F835
:102FC000280020F0010084F8280000E000BF00BFC6
:102FD000002203A90348006800F0D0FE002880D139
:102FE00007B0F0BD90000020F8B505460C4600F093
:102FF0001FFC684600F04CF80646009820BB44B918
:10300000B54206D801F032FB31462846FFF738FFBB
:103010001CE03CB10E480068006808B9012000E0DF
:1030200000200446A91B22460A48006800F068FAFE
:1030300001F01CFB50B94FF0805007490860BFF306
:103040004F8FBFF36F8F01E001F010FBF8BD000060
:103050008C0000209000002004ED00E00A4909687F
:10306000096809B9012100E0002121B14FF0FF31C9
:10307000064A116006E004490968C968C868034A3D
:103080004168116070470000500000207C00002063
:1030900070B5044601F046F90546074800688542C8
:1030A00004D200F00BF80120206001E00020206035
:1030B00001480560284670BD980000202DE9F843BE
:1030C00028E01E480068C06805681C480068C068A1
:1030D000C468201D00F044F92046216A884794F80E
:1030E000280000F00400A8B1A0694619AE4207D933
:1030F00066602461211D1148006800F06EF909E046
:10310000002003462A4601460090204601F052FB6B
:10311000804600BF09480068006808B9012000E047
:1031200000200028CDD005480768054800680349FD
:10313000086003480760BDE8F883000088000020AD
:103140008C00002000BF102080F31188BFF34F8F48
:10315000BFF36F8F00BF00BFFEE7000010B5014650
:1031600000200A460B4C5369A34201D1012300E021
:10317000002373B1084C936AA34201D1012300E0FC
:10318000002333B9936A0BB9012300E0002303B194
:10319000012010BDD82C0020B02C002008B500BFA5
:1031A0006846FFF7E5FC044620460099FFF71CFF40
:1031B000FFF794FEF4E770B5044600F035F994F992
:1031C000455010E0606A08B9012000E0002038B9DD
:1031D00004F1240001F00AFA18B100F0C3F900E08C
:1031E00003E0681E45B2002DECDC00BFFF2084F830
:1031F000450000F02BF900F017F994F9445010E065
:10320000206908B9012000E0002048B904F110004D
:1032100001F0ECF908B100F0A5F9681E45B200E034
:1032200001E0002DECDC00BFFF2084F8440000F03A
:103230000DF970BD2DE9F04105464FF0000800F092
:10324000F7FA2E48006808B9FFF7A6FC2C4800687A
:10325000284000284CD145B1083505F0070020B1C1
:1032600005F00700C0F108000544002D40D02548B6
:10327000006885423CD8244E3046046801E026466A
:1032800024686068A84202D220680028F7D11B4851
:10329000006884422CD0306800F108082068306053
:1032A0006068401B102807D967196068401B786068
:1032B00065603846FFF768FD124960680968081ABA
:1032C000104908600846006810490968884203D21E
:1032D0000C4800680D49086009496068096808439E
:1032E0006060002020600A480068401C08490860AF
:1032F00001F0BCF94046BDE8F0810000300000203C
:103300004400002034000020280000203800002065
:103310003C0000200648006830B10549096801F109
:103320005000096D491C01600148006870470000A9
:103330004C000020001F4FF080730360001F21F03D
:1033400001030360001F054B036014380260001F77
:103350006FF0020303602038704700004531000021
:1033600001460A69D1E901309860D1E9010358604A
:103370005068884201D18868506000200861106858
:10338000401E106010687047034B0360034B0B60D6
:103390008023136070470000300400208C0400205C
:1033A000034B0360034B0B60502313607047000016
:1033B0008C060020E8060020704700F108014160FB
:1033C0004FF0FF31816000F10801C160016100210F
:1033D0000160704700210161704710B502460B681B
:1033E0005C1C0CB9106907E002F1080000E04068BD
:1033F000446824689C42FAD944684C604C68A160D7
:10340000886041600A611468641C146010BD4268E1
:103410004A6093688B6093685960916008610368A3
:103420005B1C03607047000000BF102080F3118810
:10343000BFF34F8FBFF36F8F00BF03480068401C7E
:1034400001490860704700004800002006480068F5
:10345000401E054908600846006820B9002080F336
:10346000118800BF00BF70474800002070B50646B5
:103470003546FEB1083D2C460F4960680968084092
:10348000C0B12068B0B90C496068096888436060C1
:1034900000F0CEF9094960680968084407490860E6
:1034A0002046FFF771FC06480068401C044908608C
:1034B00001F0DCF870BD0000440000203400002062
:1034C0004000002000204FF0E0210861886106489C
:1034D00000684FF47A71B0FBF1F0401E4FF0E0212C
:1034E00048610720086170472400002070B5044639
:1034F000254695F8460010B92846FFF7B7FF70BD7E
:103500002DE9F04105460E4617462C46FFF78CFF85
:1035100094F94400401C10B9002084F8440094F948
:103520004500401C10B9002084F84500FFF78EFFCD
:10353000A06B28B93A46314604F1240000F028F87F
:103540002046FFF738FEBDE8F08100000349096816
:103550000160034909684160704700007400002061
:1035600060000020012001490860704770000020C1
:1035700070B505460C460548016818312846FFF726
:103580002CFF01212046FFF795F970BD4C0000206B
:1035900070B506460D461446064801681831304697
:1035A000FFF735FF0CB14FF0FF3521462846FFF7F6
:1035B00081F970BD4C0000202DE9F04706460F460A
:1035C00034464FF00109002E35D0E06CB84201D2EC
:1035D0003D4600E0E56CE06AA8422CD0206D012851
:1035E00029D1D4F82C80E562A06900F0004010B920
:1035F000C5F13800A06108EB8801104A02EB810197
:103600006069884201D1012000E0002098B1201DAE
:10361000FFF7A6FE0A49E06A0968884202D908490C
:10362000E06A0860E16A01EB8101044A02EB810073
:10363000211DFFF7ECFEBDE8F087000028280020E0
:10364000640000202DE9F04707460D464FF00009C1
:10365000382D00D33725FFF7E7FE17B92D4800684E
:1036600000E038460446E66CAE424ED0B5420BD977
:103670002848006884420DD026480068C06AA842E5
:1036800008D84FF0010905E022480068844201D1C2
:103690004FF00109D4F82C80E16AE06C884200D137
:1036A000E562E564A06900F0004010B9C5F138009A
:1036B000A06108EB8801184A02EB81016069884229
:1036C00001D1012000E0002098B1201DFFF748FE45
:1036D0001249E06A0968884202D91049E06A086024
:1036E000E16A01EB81010C4A02EB8100211DFFF729
:1036F0008EFEB9F1000F07D04FF0805008490860E6
:10370000BFF34F8FBFF36F8F00BFFFF79FFEBDE882
:10371000F08700004C0000202828002064000020D2
:1037200004ED00E070B505462C4618480068844258
:103730002AD04CB3FFF778FE2046FFF70FFD08B301
:10374000201DFFF70DFE1249E06A0968884202D980
:103750000F49E06A0860E16A01EB81010D4A02EB62
:103760008100211DFFF753FE0849E06A0968C96A14
:10377000884207D34FF0805007490860BFF34F8F4E
:10378000BFF36F8FFFF762FE70BD00004C0000209A
:10379000640000202828002004ED00E010B586B069
:1037A00000200590049003AA04A905A8FFF7ECFDEA
:1037B0000022DDE904101346CDE90021029015A195
:1037C0001648039A00F096FC154908600846006800
:1037D00008B1012400E00024012C02D100F0BAFF5E
:1037E0000446012C14D100BF102080F31188BFF3D0
:1037F0004F8FBFF36F8F00BF4FF0FF300949086054
:1038000001200949086000200849086000F00CF90F
:1038100006B010BD49444C4500000000152C0000C6
:10382000800000207C000020680000206000002054
:1038300002480068401C014908607047840000206D
:1038400070B52648006818B101202549086043E09A
:1038500000202349086023480068046B4FF0A53519
:103860002068B0F1A53F0BD16068B0F1A53F07D14A
:10387000A068B0F1A53F03D1E068B0F1A53F05D045
:103880001848016834310068FFF796FD1648016852
:1038900000E0491E01EB8100144A52F8200008B9EB
:1038A000012000E000200028F3D101EB81020F4B42
:1038B00003EB820042685268426000F108024368EC
:1038C000934202D14268526842604268D268054B16
:1038D0001A600548016000BF70BD00008400002030
:1038E000700000204C0000206400002028280020E8
:1038F00038B504463020009001216846FEF706FBEB
:103900007820009001216846FEF700FB24F0FF00BC
:10391000002866D0200C0004002840D004F07F402E
:10392000E8B1302000909DF80000392804DD9DF8B2
:103930000000C01DC0B2009001216846FEF7E6FA03
:10394000302000909DF80000392804DD9DF800002B
:10395000C01DC0B2009001216846FEF7D7FA3020A2
:1039600000909DF80000392804DD9DF80000C01D7E
:10397000C0B2009001216846FEF7C8FAC4F30340C4
:10398000303000909DF80000392804DD9DF80000DB
:10399000C01DC0B2009001216846FEF7B7FAC4F31B
:1039A0000330303000909DF80000392804DD9DF888
:1039B0000000C01DC0B2009001216846FEF7A6FAC3
:1039C000C4F30320303000909DF80000392804DD56
:1039D0009DF80000C01DC0B2009001216846FEF7AE
:1039E00095FAC4F30310303000909DF80000392898
:1039F00004DD9DF80000C01DC0B2009001216846A2
:103A0000FEF784FA04F00F00303000909DF80000BB
:103A1000392804DD9DF80000C01DC0B200900121CE
:103A20006846FEF773FA38BD10B50E48006840F4DA
:103A30007F000C4908600846006840F07F4008603D
:103A4000FFF740FD002008490860FCF78BFC0748A1
:103A5000006840F0404005490860FCF76FFC00201A
:103A600010BD000020ED00E04800002034EF00E031
:103A700010B500BF102080F31188BFF34F8FBFF344
:103A80006F8F00BF00F054FC18B14FF08050044914
:103A9000086000BF002080F3118800BF10BD000047
:103AA00004ED00E02DE9F0410446012600272246FE
:103AB0000021012000F01CF805462846FFF7BEF85B
:103AC0002846BDE8F0812DE9F84304460D4601275C
:103AD0004FF000082B46002211460120009400F010
:103AE00024F806463046FFF7A9F83046BDE8F883CB
:103AF0002DE9F84305460E46174605FB06F909F180
:103B00005000FFF797FB044664B1A04608F1500847
:103B1000002084F846003B46424631462846009441
:103B2000FFF79BF82046BDE8F8832DE9F8430646E9
:103B30000F4690461D46DDF820902C464CB10120E2
:103B400084F846004B464246394630460094FFF71B
:103B500084F82046BDE8F88370B505460E462C462D
:103B6000FFF762FCD4E90F12206801FB0200A0609D
:103B70000020A06320686060E06B401E226C21681A
:103B800000FB0211E160FF2084F8440084F8450046
:103B90009EB9206908B9012000E00020A8B904F10D
:103BA000100000F023FD80B14FF0805009490860FB
:103BB000BFF34F8FBFF36F8F07E004F11000FFF7E3
:103BC000FCFB04F12400FFF7F8FBFFF73FFC0120AA
:103BD00070BD000004ED00E02DE9FF4383B007460F
:103BE00088461D464FF000093C4600BFFFF71CFC0D
:103BF000A06BE16B884201D3022D28D12A464146B1
:103C00002046FEF758FF0646606A08B9012000E02A
:103C1000002068B904F1240000F0E8FC88B14FF0FE
:103C2000805032490860BFF34F8FBFF36F8F08E0B9
:103C30003EB14FF080502D490860BFF34F8FBFF366
:103C40006F8FFFF703FC012007B0BDE8F0830598F4
:103C500018B9FFF7FBFB0020F6E7B9F1000F04D11C
:103C600001A8FFF773FC4FF00109FFF7EFFBFFF727
:103C7000DFFDFFF7D9FB94F94400401C10B9002088
:103C800084F8440094F94500401C10B9002084F8E1
:103C90004500FFF7DBFB05A901A800F0CBF9F0B95F
:103CA0002046FFF7DEF8A0B104F110000599FFF7F8
:103CB0005FFC2046FFF77FFA00F0D8FC002895D182
:103CC0004FF0805009490860BFF34F8FBFF36F8FEB
:103CD0008CE72046FFF76FFA00F0C8FC86E7204625
:103CE000FFF769FA00F0C2FC0020ADE704ED00E048
:103CF0002DE9F84F05468A4616461F462C4600BF5A
:103D00001021EFF3118081F31188BFF34F8FBFF3C0
:103D10006F8F00BF8146A06BE16B884201D3022FF9
:103D200022D194F945B0A06B00903A465146204606
:103D3000FEF7C1FE0BF1010070B9606A08B90120FD
:103D400000E0002038B904F1240000F04FFC10B16D
:103D50000EB10120306004E00BF1010040B284F8A4
:103D600045004FF0010801E04FF0000800BF89F363
:103D7000118800BF4046BDE8F88F00002DE9F741EB
:103D800083B005460F464FF000082C4600BFFFF7F2
:103D90004BFBA66BF6B139462046FEF777FE701E48
:103DA000A063206908B9012000E0002060B904F197
:103DB000100000F01BFC38B14FF080502F49086014
:103DC000BFF34F8FBFF36F8FFFF740FB012006B0AB
:103DD000BDE8F081059818B9FFF738FB0020F6E739
:103DE000B8F1000F04D101A8FFF7B0FB4FF00108B4
:103DF000FFF72CFBFFF71CFDFFF716FB94F94400BF
:103E0000401C10B9002084F8440094F94500401C7F
:103E100010B9002084F84500FFF718FB05A901A898
:103E200000F008F9F0B92046FFF70EF8A0B104F150
:103E300024000599FFF79CFB2046FFF7BCF900F032
:103E400015FC0028A3D14FF080500C490860BFF347
:103E50004F8FBFF36F8F9AE72046FFF7ACF900F062
:103E600005FC94E72046FFF7A6F900F0FFFB20468B
:103E7000FEF7EAFF00288AD00020A8E704ED00E062
:103E80002DE9F05F05468A4616462C4600BF1021F4
:103E9000EFF3118081F31188BFF34F8FBFF36F8F62
:103EA00000BF8046D4F83890B9F1000F21D094F9C2
:103EB00044B051462046FEF7E9FDA9F10100A06398
:103EC0000BF1010070B9206908B9012000E0002061
:103ED00068B904F1100000F089FB40B13EB1012047
:103EE000306004E00BF1010040B284F84400012787
:103EF00000E0002700BF88F3118800BF3846BDE806
:103F0000F09F00002DE9F34182B0054600272C46C2
:103F1000B84600BFFFF788FAA66BFEB1701EA0631B
:103F2000206810B9FFF7F6F9A060206908B90120F0
:103F300000E0002060B904F1100000F057FB38B138
:103F40004FF080503A490860BFF34F8FBFF36F8F37
:103F5000FFF77CFA012004B0BDE8F081039818B99E
:103F6000FFF774FA0020F6E71FB96846FFF7EEFA8C
:103F70000127FFF76BFAFFF75BFCFFF755FA94F99F
:103F80004400401C10B9002084F8440094F9450016
:103F9000401C10B9002084F84500FFF757FA03A928
:103FA000684600F047F840BB2046FEF74DFFF0B1F1
:103FB000206838B9FFF738FAA06800F0C5FA8046E3
:103FC000FFF744FA04F124000399FFF7D1FA2046E1
:103FD000FFF7F1F800F04AFB00289BD14FF080502A
:103FE00013490860BFF34F8FBFF36F8F92E72046EE
:103FF000FFF7E1F800F03AFB8CE72046FFF7DBF82B
:1040000000F034FB2046FEF71FFF002882D0B8F1F5
:10401000000F0BD0FFF708FA2046FEF79FFD06467B
:104020003146A068FFF7C8FAFFF710FA002092E7C0
:1040300004ED00E070B506460C46FFF7F5F91248AE
:1040400002687068131A2068401C08B9002517E040
:104050000E4930680968884204D07068904201D8DF
:1040600001250DE02068984207D92068C01A206019
:104070003046FFF76BFA002502E0002020600125A2
:10408000FFF7E4F9284670BD6000002074000020AE
:104090002DE9FF4F85B0804689461746DDE912AB12
:1040A000B800FFF7C7F8064656B15C20FFF7C2F824
:1040B00004460CB1266304E03046FFF7D7F900E070
:1040C00000248CB1002084F85900CDE900ABCDE983
:1040D00002403A4649464046089BFEF7D3FD20463B
:1040E000FEF726FC012501E04FF0FF35284609B018
:1040F000BDE8F08F2DE9F04F85B007468846914620
:104100009A46DDE90EB6109CACB1A6B125462E63E9
:10411000022085F85900002004A953464A46CDE9FB
:1041200000B1CDE9025041463846FEF7ABFD2846C6
:10413000FEF7FEFB01E000200490049805B0BDE806
:10414000F08F00002DE9F04781460D4616461F46C8
:104150004FF0010A4C46FFF767F90FB1606D386008
:1041600094F85880022084F85800052E17D2DFE812
:1041700006F01503070B0D00606D284360650FE026
:10418000606D401C60650BE0656509E0B8F1020FE9
:1041900001D0656501E04FF0000A01E000E000BFDA
:1041A00000BFB8F1010F21D1201DFFF7D9F8124946
:1041B000E06A0968884202D90F49E06A0860E16A4A
:1041C00001EB81010D4A02EB8100211DFFF71FF970
:1041D0000B49E06A0968C96A884207D94FF08050E4
:1041E00008490860BFF34F8FBFF36F8FFFF72EF9B9
:1041F0005046BDE8F0870000640000202828002019
:104200004C00002004ED00E02DE9F84F82460D46F9
:1042100016461F46DDF828B001200090544600BF26
:104220001021EFF3118081F31188BFF34F8FBFF39B
:104230006F8F00BF81460FB1606D386094F8588071
:10424000022084F85800052E17D2DFE806F0150387
:10425000070B0D00606D284360650FE0606D401C2A
:1042600060650BE0656509E0B8F1020F01D0656596
:1042700001E00020009001E000E000BF00BFB8F1C5
:10428000010F2BD119480068A0B9201DFFF768F86D
:104290001749E06A0968884202D91549E06A08604E
:1042A000E16A01EB8101134A02EB8100211DFFF756
:1042B000AEF804E004F118010F48FFF7A8F80F4921
:1042C000E06A0968C96A884208D9BBF1000F02D0C8
:1042D0000120CBF8000001200949086000BF89F3E4
:1042E000118800BF0098BDE8F88F0000840000200E
:1042F0006400002028280020B02C00204C00002062
:10430000700000200549096809B9012005E0044949
:10431000096809B9022000E0002070476800002009
:1043200084000020014908687047000060000020F8
:104330002DE9F041002739480068002866D1384847
:104340000068451C364805608DB93648D0F80080B5
:1043500035480068334908603348C0F80080334866
:104360000068401C31490860FEF778FE00BF304805
:10437000006885423AD300BF2A480068006808B93F
:10438000012000E0002020B14FF0FF3028490860F4
:104390002BE024480068C068C4686668B54202D251
:1043A0002348066021E0201DFEF7DAFFA06A18B15D
:1043B00004F11800FEF7D4FF1E49E06A096888423C
:1043C00002D91C49E06A0860E16A01EB81011A4ADE
:1043D00002EB8100211DFFF71AF81849E06A09680D
:1043E000C96A8842C8D30127C6E700BF13480068DE
:1043F000C06A00EB8000104951F82000012800D964
:1044000001270F48006800B1012704E00D4800684B
:10441000401C0C4908603846BDE8F081840000204B
:104420006000002050000020540000207400002094
:104430007C00002064000020282800204C00002080
:10444000700000206C0000202DE9F04107468846EE
:1044500014461D46FEF7E8FF2148006890F8580012
:10446000022818D01E49096801F15400496DB9436A
:10447000016001201A49096881F858005DB10121E5
:104480002846FEF717FA4FF0805016490860BFF330
:104490004F8FBFF36F8FFEF7D9FFFEF7C5FF1CB13B
:1044A0000F480068406D20600D48006890F8580083
:1044B000022801D0002608E00949096801F15400EA
:1044C000496D21EA080101600126002004490968BC
:1044D00081F85800FEF7BAFF3046BDE8F0810000D1
:1044E0004C00002004ED00E070B505462C46002687
:1044F0001DB3206D401E2065E16CE06A88421CD02F
:10450000206DD0B9201DFEF72BFFE06CE062E06A61
:10451000C0F13800A0610A49E06A0968884202D9FE
:104520000749E06A0860E16A01EB8101054A02EB94
:104530008100211DFEF76BFF0126304670BD000093
:10454000640000202828002070B505462C4600266F
:10455000002D42D02249E06A0968C96A884235D2F2
:10456000A06900F0004028B91D480068C06AC0F189
:104570003800A061E16A01EB81011A4A02EB810176
:104580006069884201D1012000E00020C0B1201DF7
:10459000FEF7E6FE12480068C06AE0621249E06A6F
:1045A0000968884202D91049E06A0860E16A01EBB3
:1045B00081010C4A02EB8100211DFEF728FF03E078
:1045C00007480068C06AE062012606E00449E06C22
:1045D0000968C96A884200D20126304670BD0000D1
:1045E0004C000020282800206400002070B50646FA
:1045F000F068C46804F11800FEF7B2FE15480068C0
:10460000A0B9201DFEF7ACFE1349E06A0968884294
:1046100002D91149E06A0860E16A01EB81010F4AA1
:1046200002EB8100211DFEF7F2FE04E004F1180107
:104630000B48FEF7ECFE0B49E06A0968C96A88423C
:1046400004D9012501200849086000E0002528461A
:1046500070BD000084000020640000202828002095
:10466000B02C00204C0000207000002070B5002409
:104670000026FEF7D9FE2E480068401E2C4908602F
:104680000846006800284ED12A48006800284AD011
:1046900023E02948C068C46804F11800FEF760FEF2
:1046A000201DFEF75DFE2549E06A0968884202D9AF
:1046B0002249E06A0860E16A01EB8101204A02EBCD
:1046C0008100211DFEF7A3FE1E49E06A0968C96A40
:1046D000884202D301201C4908601748006808B9C5
:1046E000012000E000200028D3D00CB1FEF7B6FC7A
:1046F0001648056865B100BFFFF71AFE10B101202A
:10470000114908606D1E002DF6D100200F49086088
:104710000D48006838B1012630070D490860BFF325
:104720004F8FBFF36F8FFEF791FE304670BD0000D4
:10473000840000205C000020B02C002064000020D9
:10474000282800204C000020700000206C00002071
:1047500004ED00E010B586B00024FEF745F91048DE
:104760000068D0B100200590049003AA04A905A810
:10477000FEF716FE2822DDE904100023CDE9002112
:10478000029008A10948039AFFF7B4FC08490860A1
:104790000846006800B1012400BF204606B010BDE5
:1047A00090000020546D7220537663009D3100000C
:1047B000940000202DE9FF4705460C4616461F468B
:1047C000DDF830804FF000091448006810B3009401
:1047D00001960295062C15DAFFF794FD022808D100
:1047E0000023424669460D480068FFF7F5F9814607
:1047F00010E000231A46694608480068FFF7ECF904
:10480000814607E000233A46694604480068FFF7FE
:104810006FFA8146484604B0BDE8F087900000205A
:104820004FF04070E1EE100A70470000144E000097
:1048300000C0004000D0004000E00040001800F040
:10484000011800F0021800F00040004010000000C5
:1048500000800540100000000050004011000000E2
:1048600000900540110000000060004012000000B0
:1048700000A005401200000000700040130000007E
:1048800000B005401300000000400240140000008A
:1048900000C0054014000000005002402E0000003F
:1048A00000D005402E000000006002402F000000F4
:1048B00000E005402F0000000070024030000000C2
:1048C00000F005403000000000D00340460000002A
:1048D00000000640460000000010064047000000AF
:1048E0000020064048000000003006407F00000025
:1048F0000040064080000000005006408400000098
:10490000006006408C0000000040004010000000E5
:104910000080054010000000005000401100000021
:1049200000900540110000000060004012000000EF
:1049300000A00540120000000070004013000000BD
:1049400000B00540130000000040024014000000C9
:1049500000C0054014000000005002402E0000007E
:1049600000D005402E000000006002402F00000033
:1049700000E005402F000000007002403000000001
:1049800000F005403000000000D00340430000006C
:1049900000000640430000000010064044000000F4
:1049A000002006404500000000300640580000008E
:1049B0000040064059000000005006405C00000026
:1049C0000060064064000000007006406C000000BB
:1049D000008006406D000000009006407F0000004F
:1049E000004000400080054000500040009005401D
:1049F0000060004000A005400070004000B005408D
:104A00000040024000C005400050024000D0054078
:104A10000060024000E005400070024000F00540E8
:104A200000D0034000000640001006400010064081
:104A300000200640002006400030064000300640BE
:104A4000004006400040064000500640005006402E
:104A5000006006400060064000700640007006409E
:104A6000008006400080064000900640009006400E
:104A70000007000000060000000500000004000020
:104A80000003000000020000000100000000000020
:104A90000000000018ED00E01CED00E020ED00E05B
:104AA00000E400E004E400E008E400E00CE400E0DE
:104AB00010E400E014E400E018E400E01CE400E08E
:104AC00020E400E024E400E028E400E02CE400E03E
:104AD00030E400E034E400E038E400E03CE400E0EE
:104AE00040E400E044E400E048E400E04CE400E09E
:104AF00050E400E054E400E058E400E05CE400E04E
:104B000060E400E064E400E068E400E06CE400E0FD
:104B100070E400E074E400E078E400E07CE400E0AD
:104B200080E400E084E400E088E400E000E100E0EC
:104B300004E100E008E100E00CE100E010E100E049
:104B400080E100E084E100E088E100E08CE100E049
:104B500090E100E000E200E004E200E008E200E0B2
:104B60000CE200E010E200E080E200E084E200E01D
:104B700088E200E08CE200E090E200E040420F00BA
:104B800000201C0080841E0000802500999E3600B5
:104B90000040380000093D0000803E0000004B004E
:104BA000404B4C0000204E00808D5B0000C05D003B
:104BB0000080700000127A0000007D00809698004E
:104BC000001BB7000080BB00C0E8CE00647ADA00AA
:104BD0000024F4000000FA0080A81201002D310129
:104BE00000366E0140787D014000000000000000AA
:104BF000000100003E00080000000000000100006D
:104C0000A000000002000000000100003454010078
:104C100000000000000100002B70060000000000F2
:104C2000000100002800000000000000000100005A
:104C3000270001000000000000010000200000002B
:104C40000000000000010000500000000200000011
:104C5000000100001AAC000000000000000100008C
:104C600017940900000000000001000016980500DC
:104C7000000000000001000014000000000000001F
:104C80000001000013800800000000000001000087
:104C9000A00000000800000000010000100000005B
:104CA00000000000000100002800000002000000D9
:104CB00000010000400000000400000000010000AE
:104CC0006000000000000000000100005D000C001A
:104CD0000000000000010000500000000000000083
:104CE000000100004E000200000000000001000072
:104CF00041AC010000000000000100003C00000089
:104D000000000000000100003A80090000000000DF
:104D10000001000030000000000000000001000061
:104D20002800000000000000000100002700010032
:104D300000000000000100002360060000000000E9
:104D400000010000216008000000000000010000D8
:104D50001E00000000000000000100001DC0040053
:104D600000000000000100005000000002000000F0
:104D70000001000018000000000000000001000019
:104D800014000000000000000001000060000000AE
:104D900004000000000100000024F4003000300096
:104DA000005A62029100910000879303D200D20062
:104DB00000B4C4041301130100E1F50554015401CA
:104DC000000E27079501950100688909001C4E0E09
:104DD0000A0A436F6D6D616E647320282070202D68
:104DE0002073656E736F7220696E666F3B20612061
:104DF0002D2061726D2F73657475703B2073202DAB
:104E00002073746172743B2063202D2073746F7063
:104E10002029000030313233343536373839616279
:104E20006364656600000000484E0000000000203A
:104E30009C000000A8020000E44E00009C0000203E
:104E40007C2F0000C40200000000000000000000F1
:104E50000000000000000000000000000000000052
:104E600000000000000000000000000080F0FA02D6
:104E70000000000000000000000000000000000032
:104E80000000000000000000000000000000000022
:104E9000AAAAAAAA0000000000000000000000006A
:104EA0000000000000000000000000000000000002
:104EB00000000000000000000000000000000000F2
:104EC00000000000000000000000000000000000E2
:104ED00000000000000000000000000000000000D2
:044EE00000000000CE
:04000005000003DD17
:00000001FF
