:020000040000FA
:1000000018300020DD030000E5030000E7030000D6
:10001000E9030000EB030000ED0300000000000016
:100020000000000000000000000000001D030000B0
:10003000F10300000000000079030000A914000093
:10004000F7030000F9030000FB030000FD030000BC
:10005000FF0300000D190000030400000504000068
:1000600007040000090400000B0400000D04000058
:100070000F04000011040000130400001504000028
:1000800017040000190400001B0400001D040000F8
:100090001F040000210400002304000025040000C8
:1000A00027040000290400002B0400002D04000098
:1000B0002F04000031040000330400003504000068
:1000C00037040000390400003B0400003D04000038
:1000D0003F04000041040000430400004504000008
:1000E0004704000049040000000000004B04000029
:1000F0004D0400004F0400005104000053040000B0
:100100005504000057040000590400005B0400007F
:1001100000000000000000005D0400005F0400001B
:10012000610400006304000065040000670400002F
:10013000690400006B0400006D0400006F040000FF
:1001400000000000000000000000000000000000AF
:1001500071040000730400007504000077040000BF
:10016000000000000000000000000000000000008F
:10017000000000000000000000000000000000007F
:10018000000000000000000000000000000000006F
:10019000000000000000000000000000000000005F
:1001A000000000000000000000000000000000004F
:1001B000790400007B0400007D0400007F0400003F
:1001C000810400008304000085040000870400000F
:1001D000890400008B0400008D0400008F040000DF
:1001E000910400009304000095040000000000004A
:1001F0000000000097040000990400009B04000028
:100200009D0400009F0400000000000000000000AA
:10021000A1040000A3040000A5040000A70400003E
:10022000A9040000AB040000AD040000AF0400000E
:10023000B1040000B3040000B5040000B7040000DE
:10024000B9040000BB040000BD040000BF040000AE
:10025000C1040000C3040000C5040000C70400007E
:10026000C9040000CB040000CD04000000F002F837
:1002700000F03CF80AA090E8000C82448344AAF104
:100280000107DA4501D100F031F8AFF2090EBAE802
:100290000F0013F0010F18BFFB1A43F001031847BA
:1002A000C4480000E4480000103A24BF78C878C170
:1002B000FAD8520724BF30C830C144BF04680C606C
:1002C000704700000023002400250026103A28BFB4
:1002D00078C1FBD8520728BF30C148BF0B607047B8
:1002E0001FB504F030F91FBD10B510BD00F0CBF9FB
:1002F000114603B401F06AFC03BCFFF7F1FF01F003
:10030000CDFC00F0E5F903B4FFF7EEFF03BC00F00D
:10031000EDF900000138FDD1704700002C4B196841
:100320000868B0E8F04F80F30988BFF36F8F4FF093
:10033000000080F311887047000000000848006842
:10034000006880F308884FF0000080F3148862B6DC
:1003500061B6BFF34F8FBFF36F8F00DF00BF00BFE9
:1003600008ED00E0DFF80C00016841F47001016065
:10037000704700BF88ED00E0EFF30980BFF36F8F97
:10038000134B1A681EF0100F08BF20ED108A20E9E9
:10039000F04F106009B44FF0100080F31188BFF3E4
:1003A0004F8FBFF36F8F03F085F84FF0000080F39D
:1003B000118809BC19680868B0E8F04F1EF0100FEA
:1003C00008BFB0EC108A80F30988BFF36F8F7047C5
:1003D0004C000020EFF30580704700003F48804745
:1003E0003F480047FEE7FEE7FEE7FEE7FEE7FEE7E1
:1003F000FEE7FEE7FEE7FEE7FEE7FEE7FEE7FEE7D5
:10040000FEE7FEE7FEE7FEE7FEE7FEE7FEE7FEE7C4
:10041000FEE7FEE7FEE7FEE7FEE7FEE7FEE7FEE7B4
:10042000FEE7FEE7FEE7FEE7FEE7FEE7FEE7FEE7A4
:10043000FEE7FEE7FEE7FEE7FEE7FEE7FEE7FEE794
:10044000FEE7FEE7FEE7FEE7FEE7FEE7FEE7FEE784
:10045000FEE7FEE7FEE7FEE7FEE7FEE7FEE7FEE774
:10046000FEE7FEE7FEE7FEE7FEE7FEE7FEE7FEE764
:10047000FEE7FEE7FEE7FEE7FEE7FEE7FEE7FEE754
:10048000FEE7FEE7FEE7FEE7FEE7FEE7FEE7FEE744
:10049000FEE7FEE7FEE7FEE7FEE7FEE7FEE7FEE734
:1004A000FEE7FEE7FEE7FEE7FEE7FEE7FEE7FEE724
:1004B000FEE7FEE7FEE7FEE7FEE7FEE7FEE7FEE714
:1004C000FEE7FEE7FEE7FEE7FEE7FEE7FEE70000E9
:1004D00004480549034A054B70470000C114000059
:1004E0006D020000182E002018300020182E002069
:1004F000032A40F2308010F0030C00F0158011F850
:10050000013BBCF1020F624498BF11F801CB00F827
:10051000013B38BF11F8013BA2F1040298BF00F87B
:1005200001CB38BF00F8013B11F0030300F030802D
:10053000083AC0F0088051F8043B083A51F804CB5F
:10054000A0E80810F5E7121D5CBF51F8043B40F825
:10055000043BAFF30080D20724BF11F8013B11F830
:1005600001CB48BF11F8012B24BF00F8013B00F874
:1005700001CB48BF00F8012B704702F0FF0343EAAC
:10058000032242EA024200F037B8704770477047D2
:1005900010B5203AC0F00B80B1E81850203AA0E81E
:1005A0001850B1E81850A0E81850BFF4F5AF5FEA52
:1005B000027C24BFB1E81850A0E8185044BF18C905
:1005C00018C0BDE810405FEA827C24BF51F8043BAC
:1005D00040F8043B08BF7047D20728BF31F8023B00
:1005E00048BF11F8012B28BF20F8023B48BF00F894
:1005F000012B70474FF000020429C0F0128010F068
:10060000030C00F01B80CCF1040CBCF1020F18BFEE
:1006100000F8012BA8BF20F8022BA1EB0C0100F081
:100620000DB85FEAC17C24BF00F8012B00F8012B54
:1006300048BF00F8012B70474FF0000200B5134689
:1006400094469646203922BFA0E80C50A0E80C50F2
:10065000B1F12001BFF4F7AF090728BFA0E80C50A3
:1006600048BF0CC05DF804EB890028BF40F8042B9C
:1006700008BF704748BF20F8022B11F0804F18BF09
:1006800000F8012B7047754600F02CF8AE460500C7
:100690006946534620F00700854618B020B5FFF79D
:1006A00017FFBDE820404FF000064FF000074FF065
:1006B00000084FF0000B21F00701AC46ACE8C00980
:1006C000ACE8C009ACE8C009ACE8C0098D46704789
:1006D00010B50446AFF300802046BDE81040FFF798
:1006E00012BE000000487047B42D002001491820B8
:1006F000ABBEFEE7260002007047000010B51048B0
:1007000000F09CFE0F4800F099FE0F4800F060F9E1
:100710000E4800F05DF904210D4800F09FF9082112
:100720000B4800F08CF900F03DFD04460022214604
:10073000084800F0DDF9074800F0D5F910BD0000C9
:10074000010800F0002000F003080100030C010084
:10075000005000400000024010B5054800F06EFE59
:100760000320FFF7D7FD3021024800F059F910BDF2
:10077000020800F00060004010B5114800F05EFE75
:10078000104800F05BFE012000F022F940F2014029
:1007900000F01EF903214FF0402000F06EF9052112
:1007A000094801F0FEF8094A4FF41651002001F003
:1007B0004BF900221146044801F036F910BD000043
:1007C000000800F0001800F000C000400024F40011
:1007D00010B50121074800F0CEF9064800F0BAF93B
:1007E0003C21044800F0BEF900223C21014800F001
:1007F000ADF910BD0000024010B5152000F0C2F99F
:100800001021024801F016F910BD000000C00040A0
:1008100002F001031BB1D0F800340B4302E0D0F822
:1008200000348B43C0F8003402F002031BB1D0F84F
:1008300020340B4302E0D0F820348B43C0F820343E
:1008400070470000F0B55F4D2D685F4E35405F4E3C
:10085000B5421AD0002416E00125A5400D4085B10F
:10086000D0F8C45F67000326BE40B543C0F8C45F3C
:10087000D0F8C45F6700C2F34116BE403543C0F8EC
:10088000C45F651CECB2082CE6DB02F001051DB16B
:10089000D0F800550D4302E0D0F800558D43C0F864
:1008A000005502F002051DB1D0F804550D4302E0D9
:1008B000D0F804558D43C0F8045502F004051DB16D
:1008C000D0F808550D4302E0D0F808558D43C0F824
:1008D000085502F008051DB1D0F818550D4302E087
:1008E000D0F818558D43C0F81855364D2D68364E42
:1008F0003540364EB5420BD002F010051DB1D0F890
:100900003C550D4302E0D0F83C558D43C0F83C55B2
:1009100003F001051DB1D0F80C550D4302E0D0F8ED
:100920000C558D43C0F80C5503F002051DB1D0F8ED
:1009300010550D4302E0D0F810558D43C0F8105506
:1009400003F004051DB1D0F814550D4302E0D0F8B2
:1009500014558D43C0F8145503F008051DB1D0F8A7
:100960001C550D4302E0D0F81C558D43C0F81C55B2
:10097000144D2D68144E3540144EB54217D003F473
:1009800000751DB1D0F844550D4302E0D0F8445530
:100990008D43C0F8445503F440751DB1D0F840555F
:1009A0000D4302E0D0F840558D43C0F840551BB9C7
:1009B000D0F828550D4302E0D0F828558D43C0F8F3
:1009C0002855F0BD00E00F400000FF70000005104A
:1009D00010B50146C1F307400F4BDB6E0124844084
:1009E000234033B1012303EB40030C4C54F82300A4
:1009F00003E04300094C54F82300C1F30722D0F868
:100A00002C350F249440A34301F00F04944023435A
:100A1000C0F82C3510BD000000E00F400447000076
:100A200030B504460D460823012229462046FFF72B
:100A300009FF012229462046FFF7EAFE30BD30B506
:100A400004460D46022229462046FFF7E1FE09230F
:100A5000012229462046FFF7F5FE30BD30B5044699
:100A60000D46022229462046FFF7D2FE0823012226
:100A700029462046FFF7E6FE30BD30B504460D4658
:100A8000022229462046FFF7C3FE082301222946F9
:100A90002046FFF7D7FE30BD002303EB8103C25091
:100AA000704710B50024532000F01CFA0443532073
:100AB00000F003FA44EA0024532000F005FA44EA67
:100AC0000044204610BD0146486800F0010008B10E
:100AD000012070470020FCE74160704701468868AC
:100AE000704781607047016A41F0100101627047F0
:100AF00070B503460C4616461846FFF7F4FF012E64
:100B000001D10F4A00E00F4A142000FB0240401EB2
:100B100002EB82018900B0FBF1F0451EDD60D3F8E5
:100B2000C00F00F0010048B107482044401E0649AC
:100B3000B0FBF1F0451E45F08000D86070BD0000AC
:100B4000801A0600A08601008047370142EA41036F
:100B500003607047016A41F0200101620121C0F881
:100B60000418704700B502460B461046FFF7F2FF27
:100B7000C2F8003800BDD0F80C280A43C0F80C2891
:100B800070470000042806D11949096841F48031F2
:100B9000174A11602BE0052806D11549096841F470
:100BA0000031134A116022E0062806D11049096875
:100BB00041F480210E4A116019E00F2808D14FF04E
:100BC000E021096941F002014FF0E02211610EE0DD
:100BD00010280CD3A0F1100101F01F020121914057
:100BE000A0F110025209034B53F822201160704704
:100BF00024ED00E05048000010B50021084600F048
:100C000055F8642000F066FF0121002000F04EF846
:100C1000642000F05FFF0021012000F047F864200D
:100C200000F058FF0121084600F040F8642000F071
:100C300051FF0021084600F039F810BD10B5002121
:100C4000084600F033F8642000F044FF0121084614
:100C500000F02CF8642000F03DFF0021084600F071
:100C600025F8642000F036FF0121084600F01EF848
:100C7000642000F02FFF0021084600F017F810BD97
:100C800070B50446002504F11300C1B2532000F0F2
:100C9000B1F9054604F11400C1B2532000F0AAF9DD
:100CA00000EB052085B2284670BD000070B50546F2
:100CB0000C462DB1102211460A48FFF7EDFE04E064
:100CC000002210210748FFF7E7FE2CB12022114631
:100CD0000448FFF7E1FE04E0002220210148FFF76D
:100CE000DBFE70BD0060004010B50446532000F0EC
:100CF00000F90721012002F035FC18B91A212AA0B9
:100D000000F0CAFE0221084602F02CFC18B91A2194
:100D10002AA000F0C1FEE1B2032002F023FC18B9C2
:100D20001A212EA000F0B8FE0121052002F01AFCC5
:100D300018B91A2132A000F0AFFE0221062002F0FD
:100D400011FC18B91A2137A000F0A6FEE1B2072065
:100D500002F008FC18B91A213AA000F09DFE022109
:100D6000092002F0FFFB18B91A212EA000F094FE12
:100D700002210A2002F0F6FB18B91A213AA000F06D
:100D80008BFEE1B20B2002F0EDFB18B91A213EA058
:100D900000F082FE04210D2002F0E4FB18B91A21B4
:100DA00031A000F079FE10BD4368616E206C69735C
:100DB00074206E6F742073657400000049523120F6
:100DC00064696F646520616472206E6F742073655E
:100DD0007420636F72726563746C790049523120BC
:100DE00064696F64652073656E73206E6F74207321
:100DF000657420636F72726563746C790000000023
:100E00004952312064696F646520636F6E66206E9D
:100E10006F742073657420636F72726563746C798C
:100E2000000000004952322064696F6465206164EB
:100E300072206E6F742073657420636F72726563C5
:100E4000746C79004952322064696F64652073655F
:100E50006E73206E6F742073657420636F72726599
:100E600063746C79000000004952332064696F6438
:100E70006520616472206E6F742073657420636FE7
:100E800072726563746C79004952332064696F64CF
:100E9000652073656E73206E6F74207365742063B4
:100EA0006F72726563746C790000000010B50446BF
:100EB0001121204600F08BFE10BD10B50446012123
:100EC000204600F097F810BD10B5044600212046DA
:100ED00000F090F810BD10B504461121204600F036
:100EE00089F810BD10B504460221204600F082F8B2
:100EF00010BD10B504460021204600F068FE10BD6C
:100F000070B506460D461121304600F073F80446D0
:100F100004E01121304600F06DF8044604F0200092
:100F20000028F6D004F0100070B100220B213046EA
:100F300000F0A2F804E01121304600F05BF804460E
:100F400004F0DF000028F6D105F03F0000F1400575
:100F50002A460B21304600F08FF800BF11213046A1
:100F600000F048F8C006B0EBC46FF7D0102130464F
:100F700000F040F870BD2DE9F04106460D461746D9
:100F80001121304600F036F8044604E011213046C5
:100F900000F030F8044604F020000028F6D004F0F9
:100FA000100070B100220B21304600F065F804E01B
:100FB0001121304600F01EF8044604F0DF0000283E
:100FC000F6D105F03F0040F080053A460A21304650
:100FD00000F052F82A460B21304600F04DF800BFD1
:100FE0001121304600F006F8C006B0EBC46FF7D010
:100FF000BDE8F08170B504460D460026002221466A
:101000001C48FFF7A3FD03211A48FFF765FD00BF49
:101010001848FFF758FD0028FAD10A20FFF77AF99F
:1010200029461448FFF75DFD07211248FFF754FDDC
:1010300000BF1048FFF747FD0028FAD10A20FFF74C
:1010400069F9012221460B48FFF780FD0721094875
:10105000FFF742FD00BF0748FFF735FD0028FAD132
:101060000A20FFF757F90348FFF738FDC6B23046AC
:1010700070BD00000000024070B504460E461546E3
:10108000002221461248FFF761FD31461048FFF764
:1010900028FD03210E48FFF71FFD00BF0C48FFF796
:1010A00012FD0028FAD10A20FFF734F92946084832
:1010B000FFF717FD05210648FFF70EFD00BF0448A6
:1010C000FFF701FD0028FAD10A20FFF723F970BDD0
:1010D0000000024010B55320FFF7E8FE10BD0000ED
:1010E00010B52E2109A000F0D7FC1A2113A000F0A2
:1010F000D3FC1B2118A000F0CFFC2F211DA000F075
:10110000CBFC2E2101A000F0C7FC10BD2A2A2A2A00
:101110002A2A2A2A2A2A2A2A2A2A2A2A2A2A2A2A2F
:101120002A2A2A2A2A2A2A2A2A2A2A2A2A2A2A2A1F
:101130002A2A2A2A2A2A2A2A0A00000050726F67BD
:1011400072616D3A205377697065206465746563D8
:10115000746F720A00000000417574686F723A2063
:1011600055726F732043766A6574696E6F76696332
:101170000A00000048617264776172653A20544D3C
:101180003443313233474836504D20616E6420502D
:10119000726F78696D697479436C69636B31330A76
:1011A00000000000F0B55048036E026F02F00040EE
:1011B00010B102F0700001E003F03000202811D0DF
:1011C00003DC38B1102815D10AE030280CD0702883
:1011D00010D10CE04548C3F3841750F827100BE0FA
:1011E000434909E0434907E047F2305104E04FF436
:1011F000004101E00020F0BD00BF4FF0FF3402F0DD
:10120000004010B102F4006028B102F0004090BB31
:1012100003F4006078BB384805683348D0F864614F
:1012200006F01F00401CC6F304277F1C10FB07F0CC
:101230004000B1FBF0F1C5F309004843C5F389272D
:101240004F4300EB972143F480032748006900F4E3
:101250007040B0F5804F13D006DCB0F5005F0BD0C6
:10126000B0F5405F12D109E0B0F5E04F0AD0B0F51B
:10127000104F0BD108E00BE0204C08E0204C06E0BA
:10128000204C04E0204C02E0204C00E000BF00BFF6
:1012900003F4800018B302F00040D8B102F080409F
:1012A00090B102F0004010B102F4006028B102F0E9
:1012B000004048B903F4006030B94F00C2F38650D3
:1012C000401CB7FBF0F10AE0C2F3C550401CB1FB73
:1012D000F0F104E0C3F3C350401CB1FBF0F18C42C9
:1012E00000D22146084686E700E00F40A0480000F3
:1012F0000024F40000093D0060E10F4000B4C40484
:1013000080F0FA02005A620240787D01002D31011E
:101310002DE9F04106464448046E056F44F400642C
:1013200024F4800445F400650466056704F00100B8
:10133000D8B106F00100C0B966F0010004404FF4D6
:10134000807039498865084604664FF4002702E03A
:101350007F1E07B905E03448006D00F48070002856
:10136000F6D000BF0FB9BDE8F08124F4FE6406F4A6
:10137000FE6004432D4805402C49A13106EA0100D6
:10138000054306F0080045EAC005274804660567DE
:1013900024F4005406F40050044325F4005506F4E8
:1013A0000050054340202049886505F0004018B1F1
:1013B00008460567046602E01B48046605671C488A
:1013C0000440C14306EA0100044325F0FC5506F041
:1013D000FC50054306F0804040B144F4800425F4FD
:1013E0008005144906EA0100054301E025F0804527
:1013F00006F4006080B94FF4004706E00E4800682C
:1014000000F0010000B102E07F1E002FF6D100BF06
:1014100024F4006425F40065034804660567102081
:10142000FEF778FF00BF9EE700E00F408FFFFF7FD1
:10143000FEFF3FF80000404068E10F4010B5012179
:10144000C0F30722094B1A4402F0704242F00072C6
:10145000C0F30723054C2344C3F3130342EA4312AA
:10146000C3B242EA8302116010BD000000E60F40E3
:101470000146C1F307200B4A104400F0704040F0D1
:101480000070C1F30722074B1A44C2F3130240EA6B
:101490004210CAB240EA8200006808B101207047D9
:1014A0000020FCE700E30F4010B54FF0E02000699A
:1014B00002F076FD012801D002F028F910BD0000ED
:1014C0001B49096841F47001194A116019491A4A07
:1014D00011671A4911661A4911661A4911670020E5
:1014E00000E0401CB0F57A7FFBD31749124A116621
:1014F00016491167002000E0401CB0F57A7FFBD34D
:1015000013490D4A116600BF0B49096D01F04001F6
:101510004029F9D10F49084A11664FF0C07111678F
:10152000002000E0401C42F210718842FAD370475C
:1015300088ED00E01028800700E00F40D13A8E07C8
:10154000422D9E0100288001420D9E01000880016D
:10155000420DDE014205DE0108B520214248006847
:1015600000F0C0FE05461DB1192140A000F094FA1C
:1015700079E05F21444800F08FFA102143A000F089
:101580008BFA4FF0FF33002269464548006800F0AF
:10159000A7FC0546002D64D19DF800006E2835D0CB
:1015A00004DC632849D0642855D123E0702802D098
:1015B000732850D136E0FFF774FA0446142139A09D
:1015C00000F06AFA14213DA000F066FAC4F3074067
:1015D00001F0DCFF14213DA000F05EFAC4F3072007
:1015E00001F0D4FF14213EA000F056FAE0B201F061
:1015F000CDFF35E014213EA000F04EFA0720FFF7A2
:1016000073FB142140A000F047FA29E0142138A010
:1016100000F042FA0A20FFF767FB14213AA000F01D
:101620003BFA1DE014213DA000F036FA322141487A
:10163000006800F039FF054612E014213EA000F0DA
:101640002BFA3C48006800F095FE3A48006800F02C
:1016500055FF054604E014213CA000F01DFA00BF30
:1016600000BF00F067FE84E7080000205468726540
:101670006164207072696F72697479206E6F742072
:101680007365740A00000000F44A00000A456E7495
:10169000657220636F6D6D616E643A20000000001A
:1016A000040000200A53656E736F7220696E666FC6
:1016B000726D6174696F6E3A000000000A50415209
:1016C000542049442069733A200000000A484152DE
:1016D00044574152452049442069733A2000000094
:1016E0000A5245562049442069733A200000000000
:1016F0000A534554494E472055502053454E534FA9
:10170000522E2E2E000000000A2E2E2E53454E5330
:101710004F52205245414459000000000A50524F98
:101720004752414D20535441525445442E2E2E20B1
:1017300000000000140000200A2E2E2E50524F47A9
:1017400052414D2053544F50454400000A4E6F20E3
:10175000636F6D6D616E6420726567697374657225
:10176000656400008CB000BF002408212848006890
:1017700000F0B8FD05461DB1192126A000F08CF936
:1017800045E04FF0FF3300220AA92948006800F025
:10179000A7FB0546002D35D1192126A000F07CF9C4
:1017A000BDF8280001F0F2FE032126A000F074F934
:1017B000BDF8280007A921F81400192122A000F083
:1017C0006BF9BDF82A0001F0E1FE03211DA000F035
:1017D00063F9BDF82A0004A921F8140019211DA0FD
:1017E00000F05AF9BDF82C0001F0D0FE032115A03D
:1017F00000F052F9BDF82C202046611CCCB201A9A2
:1018000021F81020042C00DD002400F093FDB8E73F
:1018100010000020546872656164207072696F72F4
:10182000697479206E6F74207365740A000000007B
:10183000000000204952312064696F6465203D201A
:10184000000000000A0000004952322064696F6401
:1018500065203D004952332064696F6465203D2056
:10186000000000001CB5002418211948006800F091
:1018700039FD05461DB1192116A000F00DF926E02D
:101880004FF0FF320021012000F05CFCFFF722FC4A
:10189000322000F01FF90020FFF7F2F90446ADF8FE
:1018A00000400220FFF7ECF90446ADF802400420A6
:1018B000FFF7E6F90446ADF804404FF0FF3300228D
:1018C00069460B48006800F0A3FB00F033FDD7E742
:1018D0000C000020546872656164207072696F7238
:1018E000697479206E6F74207365740A00000000BB
:1018F0000000002070B50546284601F087FB04462D
:1019000014B1D4E90010884770BD000038B501213A
:10191000114800F093F8044621460F4800F088F87B
:1019200004F01000B0B10C4800F035F890B10A484E
:1019300000F016F8C0B200900121684600F0ACF843
:1019400000231A4669460548006800F061FB02481A
:1019500000F00FF838BD000000C000400400002077
:10196000014600BF886900F010000028FAD108681D
:1019700070470146886900F0100008B90868704790
:101980004FF0FF30FBE700BF826902F02002002A1F
:10199000FAD10160704701468869012222EA1010DD
:1019A0007047C0F8C81F7047F0B504460E4615468C
:1019B0001F46204600F01EF8B6EB051F05D2206B2F
:1019C00040F0200020636D0803E0206B20F0200031
:1019D0002063F000B0FBF5F0401C430898096062FA
:1019E00003F03F00A062E7620020A061204600F003
:1019F00011F8F0BD00BF816901F008010029FAD19A
:101A0000C16A21F01001C162016B40F201329143C1
:101A100001637047C16A41F01001C162016B40F27D
:101A2000013211430163704741EA02034363704787
:101A300041647047826B0A4382637047024609B172
:101A4000106C7047D06BFCE770B504460D46164627
:101A50000E4951F82400FFF70BFD00B970BD0C488A
:101A600050F824000B490860084951F82400FFF79A
:101A7000E5FC60232A46314606480068FFF794FFDC
:101A800004480068FFF7C6FF00BFE7E760450000B5
:101A9000544500001800002070B505460E4600248D
:101AA00011E0285D0A2805D10D2109480068FFF7DB
:101AB0006AFF02E0285D00B907E0295D044800687C
:101AC000FFF761FF641CB442EBD300BF204670BD3A
:101AD0001800002070B50446FFF764FB0321B0FB3B
:101AE000F1F04FF47A71B0FBF1F000FB04F52846F9
:101AF000FEF710FC70BDEFF311807047EFF3058027
:101B00007047EFF31080704710B5044600F026FDD3
:101B100020B14FF0FF31206802F042F810BD000004
:101B200070B50546286801F057FB00240BE0084912
:101B300051F824102868884204D10020044941F853
:101B4000240002E0641C052CF1D300BF70BD00002E
:101B50001C04002070B5054600202860002415E014
:101B6000124850F8240080B904EB8400104A02EBBC
:101B70000011012001F0F5FD0C4941F82400084650
:101B800050F824002860012070BD641C052CE7D3A8
:101B900000F0E4FC18B1012001F0D2FD28602868B3
:101BA00008B90020F0E70120EEE700001C04002047
:101BB0008C02002010B5044600F0D0FC28B10023B0
:101BC0001A461946206801F055FE10BD70472DE9F0
:101BD000F04180460E4600274046FFF77CF9054657
:101BE000002D02DA2846BDE8F08105F01F051AE055
:101BF000404600F038F840B2041E01D02046F2E71B
:101C000006B912E04046FFF766F944B204F01F003F
:101C1000A84200D109E0002C01DA2046E3E704F0F5
:101C20001F05781CC7B2052FE2DB00BF32460B212F
:101C30004046FFF721FA002710E006B910E04046C1
:101C4000FFF749F944B204F01F00A84200D007E0B2
:101C5000002C01DA2046C6E7781CC7B2052FECDB62
:101C600000BF0020BFE770B506464FF0FF340025E7
:101C70000EE03046FFF72FF9044604F0E00020287C
:101C800000D107E0002C01DA204670BD681CC5B207
:101C9000052DEEDB00BF0020F7E700001048FFF73E
:101CA00037FBFEF759FDFEF7C9FFFEF765FDFEF7AE
:101CB000A3FDFEF7A1FF17210AA0FFF7EDFEFFF736
:101CC0000FFAFEF71BFDFEF783FDFEF795FF1621C9
:101CD0000AA0FFF7E1FE00F01BF800BFFEE70000DE
:101CE000400500C15541525420697320636F6E66F0
:101CF000696775726564200A00000000493243205C
:101D0000697320636F6E66696775726564200A0087
:101D100010B50023052201212B4800F05BFB2B4965
:101D2000086000F083F800221146294800F070FA9C
:101D3000284908600846006810B94FF0FF3010BD10
:101D400000221146244800F063FA2449086008463E
:101D5000006810B94FF0FF30F1E70022114620482B
:101D600000F056FA1F4908600846006810B94FF0A5
:101D7000FF30E4E7FEF740FF16211BA0FFF78CFEC3
:101D800000220621102000F0F7F81D4908600846DF
:101D9000006810B94FF0FF30D1E700220121102078
:101DA00000F0EAF8174908600846006810B94FF0DB
:101DB000FF30C4E7FEF720FF202113A0FFF76CFEE1
:101DC00000F054F800BFFEE7812500001400002059
:101DD0005915000008000020651800000C000020C4
:101DE000651700001000002054687265616473205C
:101DF000696E697469616C697A65640A0000000043
:101E00000000002004000020434D53495320525449
:101E10004F5332206F626A6563747320696E697410
:101E200069616C697A65640A0000000010B5FFF70B
:101E300065FE48B9FFF765FE10B9FFF75CFE30B1EB
:101E400009480068022802D16FF0050409E006483D
:101E5000006820B9012004490860002401E04FF027
:101E6000FF34204610BD00002000002070B5FFF7B1
:101E700045FE48B9FFF745FE10B9FFF73CFE30B10B
:101E800014480068022802D16FF005041FE01148D1
:101E90000068012819D100BF801F0021002804DB41
:101EA0004A07130E0C4A135406E04A07150E0B4A54
:101EB00000F00F031B1FD55400BF00BF02200549CF
:101EC000086001F0A5FA002401E04FF0FF3420463D
:101ED00070BD00002000002000E400E018ED00E0EC
:101EE0002DE9F84307460D4691461C463E464FF005
:101EF0000008FFF703FE48B9FFF703FE10B9FFF72C
:101F0000FAFD00B31A48006802281CD10EB105B1D1
:101F100014B16FF0030828E0002000906A462946BB
:101F2000304601F0FBFD012802D06FF002081CE0F2
:101F30000098D0B14FF080500E490860BFF34F8F2A
:101F4000BFF36F8F11E006B115B96FF003080CE015
:101F500022462946304601F05FFD012805D014B124
:101F60006FF0010801E06FF002084046BDE8F88319
:101F70002000002004ED00E02DE9F84305460E4660
:101F800014464FF00008FFF7B9FD00283AD1FFF7DB
:101F9000B8FD10B9FFF7AFFD18B11C480068022862
:101FA00030D03DB336B34FF0FF37BCB1A06858B165
:101FB000E068502808D3206930B105FB06F061695C
:101FC000814201D301270AE0A06840B9E06830B936
:101FD000206920B9606910B9002700E00027012FAF
:101FE00009D10020009031462846A368226901F0FB
:101FF000EAFB804606E02FB900223146284601F070
:10200000C5FB80464046BDE8F88300002000002064
:102010002DE9F84307460D4691461C463E464FF0D3
:102020000008FFF76BFD48B9FFF76BFD10B9FFF72C
:1020300062FD08B31B48006802281DD10EB105B12E
:1020400014B16FF003082AE00020009000236A46D4
:102050002946304601F09AFC012802D06FF00208B0
:102060001DE00098D8B14FF080500F490860BFF3D1
:102070004F8FBFF36F8F12E006B115B96FF00308F1
:102080000DE0002322462946304601F0F3FB0128EB
:1020900005D014B16FF0010801E06FF0020840466E
:1020A000BDE8F8832000002004ED00E0FEB5044602
:1020B0000D46264616B105F0004018B16FF003003A
:1020C000029038E04FF0FF300290FFF717FD48B95B
:1020D000FFF717FD10B9FFF70EFD00B317480068B2
:1020E00002281CD10020019001A8002301222946CA
:1020F0000090304601F0D6FE002002AB02460146B9
:102100000090304601F0CEFE0198A0B14FF0805013
:102110000B490860BFF34F8FBFF36F8F0BE00023B5
:1021200001222946304601F05BFE02AB0022114637
:10213000304601F055FE0298FEBD00002000002050
:1021400004ED00E02DE9FC5F054689461646FFF7E1
:10215000D5FC48B9FFF7D5FC10B9FFF7CCFC30B17E
:102160002A480068022802D16FF005044AE005F011
:10217000004010B16FF0030444E009F002000228AF
:1021800002D14FF0000A00E0AA460024374601F0D1
:1021900017FF009000BF3B4601AA5146002001F006
:1021A000A1FF8046B8F1010F22D12C4001980443D1
:1021B00009F0010040B105EA0400A84200D120E086
:1021C00056B96FF002041CE005EA040000B118E003
:1021D00016B96FF0020414E001F0F2FE0099A0EBD2
:1021E000010BBB4501D9002708E0A7EB0B0705E071
:1021F00016B96FF0020401E06FF00104B8F1000FAE
:10220000C9D100BF2046BDE8FC9F0000200000208F
:102210002DE9FF4780468946144600200390FFF7CA
:102220006DFC00285AD1FFF76CFC10B9FFF763FC76
:1022300018B12B480068022850D0B8F1000F4DD0DB
:10224000802618254FF0000A4FF0FF3744B320686E
:1022500008B1D4F800A0A06900B1A5692DB1382D4E
:1022600003D8207900F0010018B1002004B0BDE8C7
:10227000F087606908B160698608A06840B1E068CD
:102280005C2805D3206918B1606908B1012708E00E
:10229000A06830B9E06820B9206910B9002700E0D3
:1022A0000027012F0CD12169A0684B463246CDE9A9
:1022B000005102905146404601F06AFD03900DE046
:1022C00067B903A8B2B24B465146CDE9005040462B
:1022D00001F02CFD012801D0002003900398C5E7F0
:1022E000200000202DE9F04106460D463746FFF755
:1022F00005FC48B9FFF705FC10B9FFF7FCFB30B14E
:102300000B480068022802D16FF005040CE01FB1F1
:10231000012D01DB382D02DD6FF0030404E0002401
:102320002946384601F004F82046BDE8F081000057
:102330002000002010B5FFF7E1FB48B9FFF7E1FBF3
:1023400010B9FFF7D8FB30B108480068022802D165
:102350006FF0050408E000244FF080500449086045
:10236000BFF34F8FBFF36F8F204610BD20000020BA
:1023700004ED00E0F8B505462E46FFF7BFFB48B96F
:10238000FFF7BFFB10B9FFF7B6FB30B1104800688C
:10239000022802D16FF0050418E016B96FF00304AB
:1023A00014E0304600F032FE0746002003460246A5
:1023B00005210090304602F07FF8012804D138460C
:1023C00000F0CAFE002401E06FF002042046F8BDD0
:1023D000200000202DE9FE4F0646894692461C4605
:1023E00000200290FFF78AFB002855D1FFF789FBF8
:1023F00010B9FFF780FB18B12948006802284BD0BC
:10240000002E49D0082000F081FD0546002D43D064
:102410002E60C5F804A0B9F1000F01D1002700E03B
:1024200001274FF0FF384FF0000B94B1206808B13E
:10243000D4F800B0A06828B1E0682C2802D34FF08F
:10244000010808E0A06830B9E06820B94FF0000842
:1024500001E04FF00008B8F1010F0BD11149A0685D
:102460002B463A46CDE900100121584601F0DBFF2A
:1024700002900BE0B8F1000F08D10A482B463A460B
:1024800001210090584601F0B3FF0290029818B95C
:1024900015B1284600F060FE0298BDE8FE8F0000EE
:1024A00020000020F5180000F8B505460E462F461E
:1024B000FFF724FB48B9FFF724FB10B9FFF71BFB1C
:1024C00030B10D480068022802D16FF0050411E018
:1024D00017B96FF003040DE00020034632460421D3
:1024E0000090384601F0E8FF012801D1002401E006
:1024F0006FF002042046F8BD20000020F8B5054624
:102500002E46FFF7FBFA48B9FFF7FBFA10B9FFF7C1
:10251000F2FA30B110480068022802D16FF00504C9
:1025200018E016B96FF0030414E0304601F0FAFF2A
:1025300010B96FF002040DE00020034602460321AB
:102540000090304601F0B8FF012801D1002401E0DD
:102550004FF0FF342046F8BD2000002010B507489A
:10256000007848B901F01CFD012803D0012003497F
:10257000087010BD0020FCE70120FAE71D000020D4
:1025800010B50446012102480068FFF78FFD10BD19
:102590000C0000202DE9F04105460E46164807685C
:1025A00016480068001D00F051FD681C38B936B1AE
:1025B00012480168091D124800F09FFD1AE07C19BD
:1025C0000E4800684460BC4207D20C480168091DEF
:1025D0000C48006800F077FD0CE008480168091D10
:1025E0000948006800F06FFD08480068844201D285
:1025F00006480460BDE8F081600000204C00002027
:10260000D82C002054000020500000207C00002026
:1026100010B5044600F07EFD24480068401C2349A4
:1026200008602348006840B92148046008460068F3
:1026300001280DD100F000FA0AE01E48006838B900
:102640001B480068C06AE16A884201D818480460E3
:1026500019480068401C1849086008460068606412
:102660001649E06A0968884202D91449E06A08609C
:10267000E16A01EB8101124A02EB8100211D00F0A9
:102680003CFD00F059FD0B48006868B1084800683F
:10269000C06AE16A884207D24FF080500949086059
:1026A000BFF34F8FBFF36F8F10BD00005C000020A1
:1026B0004C0000206800002078000020640000200A
:1026C0002828002004ED00E008B500F023FD0E48A6
:1026D0000068A8B90D4800F0E6FC0D4800F0E3FCE6
:1026E0000A480C4908600A480B49086000200B4B57
:1026F0000B4A10210090052001F065F8024908609E
:1027000000F01AFD08BD000090000020EC2C002015
:10271000002D0020880000208C000020142D0020B7
:10272000642D002010B516E000F0F4FC0C48C068E1
:10273000C468201D00F08AFC0A480068401E094950
:10274000086009480068401E0749086000F0F4FC72
:10275000204600F05FF8044800680028E4D110BD6E
:10276000C42C00205C0000205800002070B50446F6
:102770000D46206C70B1216CE0680144E160D4E941
:102780000210884201D32168E1602846226CE1688A
:10279000FDF7AEFE70BD2DE9F04104460F4615462B
:1027A0004FF00008A66B206C48B9206800282CD197
:1027B000A06801F0E7FC80460020A06025E07DB91C
:1027C0003946226C6068FDF793FE216C606808440E
:1027D0006060D4E90101884217D32068606014E08A
:1027E0003946226CE068FDF783FE216CE068411AEF
:1027F000E1602168E068884203D2216CA068411A38
:10280000E160022D01D106B1761E701CA063404626
:10281000BDE8F08110B5044694F8590030B9206B3A
:1028200000F09AFC204600F097FC06E094F859006E
:10283000012802D1204600F08FFC10BD01464A6AF3
:1028400022B10A6B1268C2F1380000E00020704724
:102850000146084A126812680AB9012200E0002203
:102860000A600A6822B9034A1268D268106800E058
:10287000002070478800002030B54FF400531748FF
:1028800000F007042CB1C01D20F00700134C041BFE
:102890001B1B0246124C22600024114D6C60D018A4
:1028A000083820F007000F4C206000240D4D2D68E3
:1028B0006C600C4D2D682C601146441A4C60094C1C
:1028C00024680C60084D4C682C60084D4C682C60E6
:1028D0004FF00044064D2C6030BD00002808002059
:1028E00028000020300000203800002034000020A4
:1028F0004400002000BFFFF715FF064800680128CC
:10290000F9D94FF0805004490860BFF34F8FBFF3EF
:102910006F8FF0E72828002004ED00E010B5044692
:1029200054B10020A06020600021E16000231A461D
:102930001946204600F09EFF10BD2DE9F0410646E5
:102940000D4617469846069C0DB9246000E02760A6
:10295000E66325640121204600F04CFF84F84C809A
:10296000BDE8F0812DE9F05F81460E4690469A461B
:102970000A9F0C9C4FEA8801A522206BFDF7FDFD04
:10298000A8F10100216B01EB800B2BF0070B86B146
:10299000002507E0715D04F134004155705D00B918
:1029A00002E06D1C102DF5D300BF0021432001551E
:1029B00002E0002084F83400382F00D33727E76284
:1029C000E76400202065201D00F07AFB04F1180068
:1029D00000F076FB2461C7F13800A061646200203A
:1029E000606584F8580052464946584600F018FB86
:1029F00020600B9808B10B980460BDE8F09F2DE9AA
:102A0000F04705460E4617469846DDE908948CB116
:102A1000FFF75AFE2560A661C4F81C80C4F8209018
:102A2000201D00F04DFB2FB194F8280040F0040069
:102A300084F82800BDE8F08710B5002407E004EB17
:102A400084010F4A02EB810000F02DFB641C382C3E
:102A5000F5D30C4800F027FB0B4800F024FB0B4893
:102A600000F021FB0A4800F01EFB0A4800F01BFBA7
:102A700004480949086004480849086010BD00007E
:102A800028280020882C00209C2C0020B02C00201E
:102A9000C42C0020D82C002050000020540000201E
:102AA00010B50146164800E0006803688B42FBD36E
:102AB0000246436813448B4204D143684C68234464
:102AC000436001460A464B6813440468A34211D18F
:102AD0000C4C03682468A34208D04B6804686468FF
:102AE00023444B6003681B680B6005E0054B1B68C3
:102AF0000B6001E003680B60884200D0016010BDEC
:102B000028000020300000202DE9F04104460D4649
:102B100016461F464FF0000865602461B5420CD888
:102B2000F01BA169884202D34FF0010811E0211D7A
:102B30000948006800F0C7FA0BE0BE4204D2BD426B
:102B400002D34FF0010804E0211D0448006800F0A2
:102B5000BAFA4046BDE8F0818C00002088000020D1
:102B600070B5054600F0D6FAA86B08B9012400E05C
:102B7000002400F0E1FA204670BD70B5054600F073
:102B8000C9FAA86BE96B884201D1012400E0002456
:102B900000F0D2FA204670BDF8B505460E4614483E
:102BA0000068C068C468201D00F050FA94F828003E
:102BB00000F0040088B1A06941192B463246204636
:102BC000FFF7A2FF78B1002003462A460146009095
:102BD000204601F071FC074605E094F8280020F03B
:102BE000010084F828002046216A8847F8BD0000CB
:102BF00088000020F0B587B076E00398002805DA59
:102C000004AED6E90020B168904700BF03980028C1
:102C10006ADB059C606908B9012000E0002010B95A
:102C2000201D00F013FA02A800F0BEF80546039834
:102C30000A2857D2DFE800F00905072D35460608B7
:102C40002E3600BF00BF00BF00BF94F8280040F040
:102C5000010084F828000498A269811803462A46D6
:102C60002046FFF751FF98B12046216A884794F823
:102C7000280000F0040058B1002000900498A169D9
:102C8000421800231946204601F016FC074600BFF3
:102C900029E000BF94F8280020F0010084F8280003
:102CA00021E000BF94F8280040F0010084F82800DB
:102CB0000498A061A06941192B462A462046FFF7D7
:102CC00023FF10E094F8280000F0020018B9204615
:102CD00000F042FA05E094F8280020F0010084F8A2
:102CE000280000E000BF00BF002203A903480068DD
:102CF00000F092FE002880D107B0F0BD90000020C7
:102D0000F8B505460C4600F0CDFB684600F04CF8DF
:102D10000646009820BB44B9B54206D801F0F4FA43
:102D200031462846FFF738FF1CE03CB10E480068EA
:102D3000006808B9012000E000200446A91B2246D3
:102D40000A48006800F052FA01F0DEFA50B94FF07C
:102D5000805007490860BFF34F8FBFF36F8F01E0CA
:102D600001F0D2FAF8BD00008C0000209000002095
:102D700004ED00E00A490968096809B9012100E089
:102D8000002121B14FF0FF31064A116006E00449ED
:102D90000968C968C868034A416811607047000043
:102DA000500000207C00002070B5044601F008F9B6
:102DB000054607480068854204D200F00BF8012060
:102DC000206001E00020206001480560284670BDB9
:102DD000980000202DE9F84328E01E480068C068EC
:102DE00005681C480068C068C468201D00F02EF902
:102DF0002046216A884794F8280000F00400A8B112
:102E0000A0694619AE4207D966602461211D1148A8
:102E1000006800F058F909E0002003462A46014600
:102E20000090204601F048FB804600BF094800683A
:102E3000006808B9012000E000200028CDD0054836
:102E40000768054800680349086003480760BDE853
:102E5000F8830000880000208C00002000BF1020B4
:102E600080F31188BFF34F8FBFF36F8F00BF00BF98
:102E7000FEE708B500BF6846FFF7EAFC04462046B7
:102E80000099FFF73DFFFFF7B5FEF4E770B5044684
:102E900000F040F994F9455010E0606A08B901204B
:102EA00000E0002038B904F1240001F0EDF918B178
:102EB00000F0CEF900E003E0681E45B2002DECDC26
:102EC00000BFFF2084F8450000F036F900F022F939
:102ED00094F9445010E0206908B9012000E0002076
:102EE00048B904F1100001F0CFF908B100F0B0F9D1
:102EF000681E45B200E001E0002DECDC00BFFF20C1
:102F000084F8440000F018F970BD00002DE9F0418C
:102F100005464FF0000800F0C5FA2E48006808B9D1
:102F2000FFF7AAFC2C480068284000284CD145B186
:102F3000083505F0070020B105F00700C0F10800D2
:102F40000544002D40D02548006885423CD8244ED9
:102F50003046046801E0264624686068A84202D230
:102F600020680028F7D11B48006884422CD03068C4
:102F700000F10808206830606068401B102807D9FD
:102F800067196068401B786065603846FFF788FD08
:102F9000124960680968081A104908600846006804
:102FA00010490968884203D20C4800680D4908603E
:102FB00009496068096808436060002020600A4889
:102FC0000068401C0849086001F09EF94046BDE8D1
:102FD000F081000030000020440000203400002078
:102FE00028000020380000203C000020064800682F
:102FF00030B10549096801F15000096D491C0160B3
:1030000001480068704700004C00002070B504467D
:10301000264600F07FF8F56900F08EF8284670BD6E
:10302000001F4FF080730360001F21F00103036055
:10303000001F054B036014380260001F6FF002038D
:1030400003602038704700005D2E000001460A69C9
:10305000D1E901309860D1E9010358605068884295
:1030600001D188685060002008611068401E10601F
:1030700010687047034B0360034B0B6080231360A1
:1030800070470000300400208C040020034B0360D4
:10309000034B0B6050231360704700008C06002028
:1030A000E8060020704700F1080141604FF0FF3151
:1030B000816000F10801C160016100210160704779
:1030C00000210161704710B502460B685C1C0CB909
:1030D000106907E002F1080000E0406844682468D5
:1030E0009C42FAD944684C604C68A1608860416099
:1030F0000A611468641C146010BD42684A609368D9
:103100008B60936859609160086103685B1C036081
:103110007047000000BF102080F31188BFF34F8F6D
:10312000BFF36F8F00BF03480068401C014908606F
:10313000704700004800002006480068401E05490E
:1031400008600846006820B9002080F3118800BF9D
:1031500000BF70474800002070B506463546FEB1F6
:10316000083D2C460F49606809680840C0B12068D6
:10317000B0B90C49606809688843606000F092F952
:103180000949606809680844074908602046FFF754
:1031900087FC06480068401C0449086001F0B4F848
:1031A00070BD0000440000203400002040000020DA
:1031B00000204FF0E02108618861064800684FF464
:1031C0007A71B0FBF1F0401E4FF0E021486107201A
:1031D000086170472400002070B50446254695F824
:1031E000460010B92846FFF7B7FF70BD2DE9F04142
:1031F00005460E4617462C46FFF78CFF94F944000F
:10320000401C10B9002084F8440094F94500401C8B
:1032100010B9002084F84500FFF78EFFA06B28B995
:103220003A46314604F1240000F028F82046FFF722
:103230002DFEBDE8F08100000349096801600349E3
:1032400009684160704700007400002060000020A1
:1032500001200149086070477000002070B50546E4
:103260000C460548016818312846FFF72CFF01215C
:103270002046FFF78FF970BD4C00002070B5064660
:103280000D4614460648016818313046FFF735FFF1
:103290000CB14FF0FF3521462846FFF77BF970BD92
:1032A0004C0000202DE9F04706460F4634464FF00B
:1032B0000109002E35D0E06CB84201D23D4600E055
:1032C000E56CE06AA8422CD0206D012829D1D4F801
:1032D0002C80E562A06900F0004010B9C5F138000B
:1032E000A06108EB8801104A02EB81016069884205
:1032F00001D1012000E0002098B1201DFFF7A6FEBB
:103300000A49E06A0968884202D90849E06A086007
:10331000E16A01EB8101044A02EB8100211DFFF704
:10332000ECFEBDE8F08700002828002064000020A3
:103330002DE9F04707460D464FF00009382D00D320
:103340003725FFF7E7FE17B92D48006800E038463B
:103350000446E66CAE424ED0B5420BD92848006810
:1033600084420DD026480068C06AA84208D84FF0B1
:10337000010905E022480068844201D14FF00109AB
:10338000D4F82C80E16AE06C884200D1E562E56403
:10339000A06900F0004010B9C5F13800A06108EB49
:1033A0008801184A02EB81016069884201D101203D
:1033B00000E0002098B1201DFFF748FE1249E06AA6
:1033C0000968884202D91049E06A0860E16A01EBA5
:1033D00081010C4A02EB8100211DFFF78EFEB9F13D
:1033E000000F07D04FF0805008490860BFF34F8F9F
:1033F000BFF36F8F00BFFFF79FFEBDE8F0870000AF
:103400004C000020282800206400002004ED00E08B
:1034100010B586B000200590049003AA04A905A861
:10342000FFF728FE0022DDE904101346CDE9002154
:10343000029015A11648039A00F0AAFC15490860ED
:103440000846006808B1012400E00024012C02D1E4
:1034500001F002F80446012C14D100BF102080F3C3
:103460001188BFF34F8FBFF36F8F00BF4FF0FF3056
:1034700009490860012009490860002008490860DE
:1034800000F020F906B010BD49444C450000000092
:10349000F5280000800000207C000020680000204B
:1034A0006000002002480068401C01490860704725
:1034B0008400002070B52648006818B10120254915
:1034C000086043E000202349086023480068046B3B
:1034D0004FF0A5352068B0F1A53F0BD16068B0F181
:1034E000A53F07D1A068B0F1A53F03D1E068B0F1D6
:1034F000A53F05D01848016834310068FFF7D2FDB8
:103500001648016800E0491E01EB8100144A52F898
:10351000200008B9012000E000200028F3D101EBD1
:1035200081020F4B03EB820042685268426000F157
:1035300008024368934202D142685268426042687E
:10354000D268054B1A600548016000BF70BD0000DD
:1035500084000020700000204C0000206400002047
:103560002828002070B505460C460026224629462C
:103570005320FDF700FD29465320FDF7C1FC064608
:10358000A64201D1012070BD0020FCE738B50446F9
:103590003020009001216846FEF77EFA78200090E6
:1035A00001216846FEF778FA24F0FF00002866D073
:1035B000200C0004002840D004F07F40E8B1302007
:1035C00000909DF80000392804DD9DF80000C01D22
:1035D000C0B2009001216846FEF75EFA30200090EC
:1035E0009DF80000392804DD9DF80000C01DC0B220
:1035F000009001216846FEF74FFA302000909DF8B8
:103600000000392804DD9DF80000C01DC0B2009004
:1036100001216846FEF740FAC4F3034030300090C1
:103620009DF80000392804DD9DF80000C01DC0B2DF
:10363000009001216846FEF72FFAC4F303303030C2
:1036400000909DF80000392804DD9DF80000C01DA1
:10365000C0B2009001216846FEF71EFAC4F30320B1
:10366000303000909DF80000392804DD9DF80000FE
:10367000C01DC0B2009001216846FEF70DFAC4F3E8
:103680000310303000909DF80000392804DD9DF8CB
:103690000000C01DC0B2009001216846FEF7FCF991
:1036A00004F00F00303000909DF80000392804DD50
:1036B0009DF80000C01DC0B2009001216846FEF7D1
:1036C000EBF938BD10B50E48006840F47F000C4996
:1036D00008600846006840F07F400860FFF768FD1A
:1036E000002008490860FCF73DFE0748006840F0EC
:1036F000404005490860FCF721FE002010BD000095
:1037000020ED00E04800002034EF00E010B500BFDD
:10371000102080F31188BFF34F8FBFF36F8F00BF6E
:1037200000F054FC18B14FF080500449086000BF0D
:10373000002080F3118800BF10BD000004ED00E000
:103740002DE9F041044601260027224600210120F0
:1037500000F01CF805462846FFF7E0F82846BDE8CB
:10376000F0812DE9F84304460D4601274FF000088B
:103770002B46002211460120009400F024F8064652
:103780003046FFF7CBF83046BDE8F8832DE9F84323
:1037900005460E46174605FB06F909F15000FFF7EE
:1037A000B5FB044664B1A04608F15008002084F837
:1037B00046003B464246314628460094FFF7BDF896
:1037C0002046BDE8F8832DE9F84306460F469046AB
:1037D0001D46DDF820902C464CB1012084F84600AF
:1037E0004B464246394630460094FFF7A6F820463D
:1037F000BDE8F88370B505460E462C46FFF78AFCF7
:10380000D4E90F12206801FB0200A0600020A06331
:1038100020686060E06B401E226C216800FB021192
:10382000E160FF2084F8440084F845009EB92069D7
:1038300008B9012000E00020A8B904F1100000F050
:1038400023FD80B14FF0805009490860BFF34F8FCE
:10385000BFF36F8F07E004F11000FFF724FC04F1C1
:103860002400FFF720FCFFF767FC012070BD00007B
:1038700004ED00E02DE9FF4383B0074688461D466E
:103880004FF000093C4600BFFFF744FCA06BE16B22
:10389000884201D3022D28D12A4641462046FEF710
:1038A0007AFF0646606A08B9012000E0002068B986
:1038B00004F1240000F0E8FC88B14FF08050324958
:1038C0000860BFF34F8FBFF36F8F08E03EB14FF03A
:1038D00080502D490860BFF34F8FBFF36F8FFFF704
:1038E0002BFC012007B0BDE8F083059818B9FFF75D
:1038F00023FC0020F6E7B9F1000F04D101A8FFF77F
:103900009BFC4FF00109FFF717FCFFF7CBFDFFF71A
:1039100001FC94F94400401C10B9002084F84400D4
:1039200094F94500401C10B9002084F84500FFF7C9
:1039300003FC05A901A800F0CBF9F0B92046FFF778
:103940001CF9A0B104F110000599FFF787FC20468F
:10395000FFF79CFA00F0D8FC002895D14FF080507A
:1039600009490860BFF34F8FBFF36F8F8CE7204684
:10397000FFF78CFA00F0C8FC86E72046FFF786FACE
:1039800000F0C2FC0020ADE704ED00E02DE9F84FA7
:1039900005468A4616461F462C4600BF1021EFF307
:1039A000118081F31188BFF34F8FBFF36F8F00BF7A
:1039B0008146A06BE16B884201D3022F22D194F99A
:1039C00045B0A06B00903A4651462046FEF7E3FE14
:1039D0000BF1010070B9606A08B9012000E0002015
:1039E00038B904F1240000F04FFC10B10EB10120F1
:1039F000306004E00BF1010040B284F845004FF064
:103A0000010801E04FF0000800BF89F3118800BFF2
:103A10004046BDE8F88F00002DE9F74183B0054628
:103A20000F464FF000082C4600BFFFF773FBA66B54
:103A3000F6B139462046FEF799FE701EA063206954
:103A400008B9012000E0002060B904F1100000F086
:103A50001BFC38B14FF080502F490860BFF34F8FE7
:103A6000BFF36F8FFFF768FB012006B0BDE8F08160
:103A7000059818B9FFF760FB0020F6E7B8F1000FD2
:103A800004D101A8FFF7D8FB4FF00108FFF754FB62
:103A9000FFF708FDFFF73EFB94F94400401C10B906
:103AA000002084F8440094F94500401C10B900201F
:103AB00084F84500FFF740FB05A901A800F008F9CC
:103AC000F0B92046FFF74CF8A0B104F124000599A5
:103AD000FFF7C4FB2046FFF7D9F900F015FC0028DA
:103AE000A3D14FF080500C490860BFF34F8FBFF354
:103AF0006F8F9AE72046FFF7C9F900F005FC94E7BD
:103B00002046FFF7C3F900F0FFFB2046FFF728F837
:103B100000288AD00020A8E704ED00E02DE9F05F3E
:103B200005468A4616462C4600BF1021EFF3118049
:103B300081F31188BFF34F8FBFF36F8F00BF8046B3
:103B4000D4F83890B9F1000F21D094F944B051461F
:103B50002046FEF70BFEA9F10100A0630BF1010066
:103B600070B9206908B9012000E0002068B904F1AB
:103B7000100000F089FB40B13EB10120306004E04C
:103B80000BF1010040B284F84400012700E0002757
:103B900000BF88F3118800BF3846BDE8F09F0000E1
:103BA0002DE9F34182B0054600272C46B84600BFF8
:103BB000FFF7B0FAA66BFEB1701EA063206810B9C3
:103BC000FFF714FAA060206908B9012000E0002086
:103BD00060B904F1100000F057FB38B14FF080508D
:103BE0003A490860BFF34F8FBFF36F8FFFF7A4FA16
:103BF000012004B0BDE8F081039818B9FFF79CFAE2
:103C00000020F6E71FB96846FFF716FB0127FFF70C
:103C100093FAFFF747FCFFF77DFA94F94400401C44
:103C200010B9002084F8440094F94500401C10B9F4
:103C3000002084F84500FFF77FFA03A9684600F0EA
:103C400047F840BB2046FEF78BFFF0B1206838B93B
:103C5000FFF760FAA06800F0C5FA8046FFF76CFA3B
:103C600004F124000399FFF7F9FA2046FFF70EF953
:103C700000F04AFB00289BD14FF0805013490860A8
:103C8000BFF34F8FBFF36F8F92E72046FFF7FEF829
:103C900000F03AFB8CE72046FFF7F8F800F034FB21
:103CA0002046FEF75DFF002882D0B8F1000F0BD050
:103CB000FFF730FA2046FEF7C1FD06463146A06800
:103CC000FFF7F0FAFFF738FA002092E704ED00E082
:103CD00070B506460C46FFF71DFA12480268706878
:103CE000131A2068401C08B9002517E00E493068F7
:103CF0000968884204D07068904201D801250DE01F
:103D00002068984207D92068C01A20603046FFF723
:103D100093FA002502E0002020600125FFF70CFA4D
:103D2000284670BD60000020740000202DE9FF4F80
:103D300085B0804689461746DDE912ABB800FFF72B
:103D4000E5F8064656B15C20FFF7E0F804460CB1F2
:103D5000266304E03046FFF7FFF900E000248CB151
:103D6000002084F85900CDE900ABCDE902403A4685
:103D700049464046089BFEF7F5FD2046FEF748FC05
:103D8000012501E04FF0FF35284609B0BDE8F08F6E
:103D90002DE9F04F85B00746884691469A46DDE901
:103DA0000EB6109CACB1A6B125462E63022085F854
:103DB0005900002004A953464A46CDE900B1CDE997
:103DC000025041463846FEF7CDFD2846FEF720FC5E
:103DD00001E000200490049805B0BDE8F08F0000D9
:103DE0002DE9F04781460D4616461F464FF0010A61
:103DF0004C46FFF78FF90FB1606D386094F858802A
:103E0000022084F85800052E17D2DFE806F01503CB
:103E1000070B0D00606D284360650FE0606D401C6E
:103E200060650BE0656509E0B8F1020F01D06565DA
:103E300001E04FF0000A01E000E000BF00BFB8F170
:103E4000010F21D1201DFFF701F91249E06A09682D
:103E5000884202D90F49E06A0860E16A01EB8101FA
:103E60000D4A02EB8100211DFFF747F90B49E06A7B
:103E70000968C96A884207D94FF08050084908602C
:103E8000BFF34F8FBFF36F8FFFF756F95046BDE872
:103E9000F087000064000020282800204C0000204B
:103EA00004ED00E02DE9F84F82460D4616461F4608
:103EB000DDF828B001200090544600BF1021EFF338
:103EC000118081F31188BFF34F8FBFF36F8F00BF55
:103ED00081460FB1606D386094F85880022084F8F4
:103EE0005800052E17D2DFE806F01503070B0D006A
:103EF000606D284360650FE0606D401C60650BE0FD
:103F0000656509E0B8F1020F01D0656501E00020A8
:103F1000009001E000E000BF00BFB8F1010F2BD11D
:103F200019480068A0B9201DFFF790F81749E06A0A
:103F30000968884202D91549E06A0860E16A01EB24
:103F40008101134A02EB8100211DFFF7D6F804E03E
:103F500004F118010F48FFF7D0F80F49E06A09682B
:103F6000C96A884208D9BBF1000F02D00120CBF802
:103F7000000001200949086000BF89F3118800BFD3
:103F80000098BDE8F88F0000840000206400002045
:103F900028280020B02C00204C00002070000020B9
:103FA0000549096809B9012005E00449096809B90A
:103FB000022000E0002070476800002084000020FC
:103FC0000149086870470000600000202DE9F041B9
:103FD000002739480068002866D138480068451C29
:103FE000364805608DB93648D0F8008035480068FD
:103FF000334908603348C0F8008033480068401CEB
:1040000031490860FEF7B6FE00BF304800688542BF
:104010003AD300BF2A480068006808B9012000E0D0
:10402000002020B14FF0FF30284908602BE02448E1
:104030000068C068C4686668B54202D2234806605A
:1040400021E0201DFFF702F8A06A18B104F1180062
:10405000FEF7FCFF1E49E06A0968884202D91C4944
:10406000E06A0860E16A01EB81011A4A02EB810013
:10407000211DFFF742F81849E06A0968C96A8842B9
:10408000C8D30127C6E700BF13480068C06A00EB29
:104090008000104951F82000012800D901270F485D
:1040A000006800B1012704E00D480068401C0C497D
:1040B00008603846BDE8F0818400002060000020E0
:1040C0005000002054000020740000207C000020DC
:1040D00064000020282800204C00002070000020F0
:1040E0006C0000202DE9F0410746884614461D4625
:1040F000FFF710F82148006890F85800022818D0FF
:104100001E49096801F15400496DB943016001205D
:104110001A49096881F858005DB101212846FEF767
:1041200039FA4FF0805016490860BFF34F8FBFF344
:104130006F8FFFF701F8FEF7EDFF1CB10F48006825
:10414000406D20600D48006890F85800022801D0AA
:10415000002608E00949096801F15400496D21EA87
:1041600008010160012600200449096881F858000F
:10417000FEF7E2FF3046BDE8F08100004C00002071
:1041800004ED00E070B505462C4600261DB3206DF9
:10419000401E2065E16CE06A88421CD0206DD0B9D9
:1041A000201DFEF753FFE06CE062E06AC0F13800CA
:1041B000A0610A49E06A0968884202D90749E06AB1
:1041C0000860E16A01EB8101054A02EB8100211DD3
:1041D000FEF793FF0126304670BD0000640000200A
:1041E0002828002070B505462C460026002D42D018
:1041F0002249E06A0968C96A884235D2A06900F09C
:10420000004028B91D480068C06AC0F13800A061AC
:10421000E16A01EB81011A4A02EB8101606988427F
:1042200001D1012000E00020C0B1201DFEF70EFFEB
:1042300012480068C06AE0621249E06A0968884270
:1042400002D91049E06A0860E16A01EB81010C4A79
:1042500002EB8100211DFEF750FF03E007480068D4
:10426000C06AE062012606E00449E06C0968C96A98
:10427000884200D20126304670BD00004C0000206C
:10428000282800206400002070B50646F068C46845
:1042900004F11800FEF7DAFE15480068A0B9201DE9
:1042A000FEF7D4FE1349E06A0968884202D9114931
:1042B000E06A0860E16A01EB81010F4A02EB8100CC
:1042C000211DFEF71AFF04E004F118010B48FEF768
:1042D00014FF0B49E06A0968C96A884204D90125BC
:1042E00001200849086000E00025284670BD000054
:1042F000840000206400002028280020B02C00202A
:104300004C0000207000002070B500240026FEF74D
:1043100001FF2E480068401E2C49086008460068CE
:1043200000284ED12A48006800284AD023E02948B6
:10433000C068C46804F11800FEF788FE201DFEF76F
:1043400085FE2549E06A0968884202D92249E06A67
:104350000860E16A01EB8101204A02EB8100211D26
:10436000FEF7CBFE1E49E06A0968C96A884202D39B
:1043700001201C4908601748006808B9012000E0C6
:1043800000200028D3D00CB1FEF7F4FC16480568D5
:1043900065B100BFFFF71AFE10B101201149086096
:1043A0006D1E002DF6D100200F4908600D480068F1
:1043B00038B1012630070D490860BFF34F8FBFF3B6
:1043C0006F8FFEF7B9FE304670BD000084000020FC
:1043D0005C000020B02C0020640000202828002071
:1043E0004C000020700000206C00002004ED00E074
:1043F0002DE9FC4705460E4617469846DDF82890FD
:104400002C20FEF783FD044654B1002084F82800D8
:1044100043463A4631462846CDE90094FEF7EFFA86
:104420002046BDE8FC872DE9FC4706460F4690462E
:104430009946DDE90AA52C4654B1022084F82800EB
:104440004B46424639463046CDE900A4FEF7D7FA3E
:104450002046BDE8FC87000010B586B00024FEF7BA
:1044600033F910480068D0B100200590049003AAE9
:1044700004A905A8FEF70AFE2822DDE9041000239E
:10448000CDE90021029008A10948039AFFF780FCBA
:10449000084908600846006800B1012400BF2046B2
:1044A00006B010BD90000020546D7220537663005A
:1044B000732E0000940000202DE9FF4705460C46AE
:1044C00016461F46DDF830804FF00009144800689A
:1044D00010B3009401960295062C15DAFFF760FDE3
:1044E000022808D10023424669460D480068FFF7BC
:1044F000C1F9814610E000231A4669460848006861
:10450000FFF7B8F9814607E000233A4669460448B8
:104510000068FFF73BFA8146484604B0BDE8F087E3
:104520009000002070B504462646FEF7F3FD96F88D
:10453000280000F0010008B9002500E00125FEF781
:10454000FBFD284670BD4FF04070E1EE100A704749
:10455000504B000000C0004000D0004000E0004090
:10456000001800F0011800F0021800F000400040B0
:1045700010000000008005401000000000500040C6
:104580001100000000900540110000000060004094
:104590001200000000A00540120000000070004062
:1045A0001300000000B0054013000000004002406E
:1045B0001400000000C0054014000000005002403C
:1045C0002E00000000D005402E00000000600240D8
:1045D0002F00000000E005402F00000000700240A6
:1045E0003000000000F005403000000000D0034023
:1045F0004600000000000640460000000010064093
:10460000470000000020064048000000003006403F
:104610007F0000000040064080000000005006407F
:1046200084000000006006408C0000000040004054
:104630001000000000800540100000000050004005
:1046400011000000009005401100000000600040D3
:104650001200000000A005401200000000700040A1
:104660001300000000B005401300000000400240AD
:104670001400000000C0054014000000005002407B
:104680002E00000000D005402E0000000060024017
:104690002F00000000E005402F00000000700240E5
:1046A0003000000000F005403000000000D0034062
:1046B00043000000000006404300000000100640D8
:1046C0004400000000200640450000000030064085
:1046D000580000000040064059000000005006400D
:1046E0005C000000006006406400000000700640AE
:1046F0006C000000008006406D0000000090064045
:104700007F00000000400040008005400050004055
:10471000009005400060004000A00540007000408F
:1047200000B005400040024000C00540005002407B
:1047300000D005400060024000E0054000700240EB
:1047400000F0054000D00340000006400010064085
:1047500000100640002006400020064000300640C1
:104760000030064000400640004006400050064031
:1047700000500640006006400060064000700640A1
:104780000070064000800640008006400090064011
:104790000090064000070000000600000005000031
:1047A00000040000000300000002000000010000FF
:1047B000000000000000000018ED00E01CED00E02B
:1047C00020ED00E000E400E004E400E008E400E0A4
:1047D0000CE400E010E400E014E400E018E400E081
:1047E0001CE400E020E400E024E400E028E400E031
:1047F0002CE400E030E400E034E400E038E400E0E1
:104800003CE400E040E400E044E400E048E400E090
:104810004CE400E050E400E054E400E058E400E040
:104820005CE400E060E400E064E400E068E400E0F0
:104830006CE400E070E400E074E400E078E400E0A0
:104840007CE400E080E400E084E400E088E400E050
:1048500000E100E004E100E008E100E00CE100E03C
:1048600010E100E080E100E084E100E088E100E0A8
:104870008CE100E090E100E000E200E004E200E012
:1048800008E200E00CE200E010E200E080E200E07C
:1048900084E200E088E200E08CE200E090E200E0E8
:1048A00040420F0000201C0080841E000080250074
:1048B000999E36000040380000093D0000803E000F
:1048C00000004B00404B4C0000204E00808D5B00F0
:1048D00000C05D000080700000127A0000007D00C2
:1048E00080969800001BB7000080BB00C0E8CE0097
:1048F000647ADA000024F4000000FA0080A81201B3
:10490000002D310100366E0140787D01400000002D
:1049100000000000000100003E0008000000000050
:1049200000010000A00000000200000000010000E3
:104930003454010000000000000100002B7006004C
:10494000000000000001000028000000000000003E
:10495000000100002700010000000000000100002D
:1049600020000000000000000001000050000000D6
:1049700002000000000100001AAC0000000000006E
:104980000001000017940900000000000001000071
:10499000169805000000000000010000140000004F
:1049A000000000000001000013800800000000006B
:1049B00000010000A000000008000000000100004D
:1049C00010000000000000000001000028000000AE
:1049D0000200000000010000400000000400000090
:1049E0000001000060000000000000000001000065
:1049F0005D000C00000000000001000050000000FD
:104A000000000000000100004E0002000000000055
:104A10000001000041AC01000000000000010000A6
:104A20003C00000000000000000100003A80090086
:104A30000000000000010000300000000000000045
:104A4000000100002800000000000000000100003C
:104A500027000100000000000001000023600600A4
:104A600000000000000100002160080000000000BC
:104A7000000100001E000000000000000001000016
:104A80001DC00400000000000001000050000000F4
:104A900002000000000100001800000000000000FB
:104AA00000010000140000000000000000010000F0
:104AB0006000000004000000000100000024F40079
:104AC00030003000005A6202910091000087930389
:104AD000D200D20000B4C4041301130100E1F505B3
:104AE00054015401000E27079501950100688909BA
:104AF000001C4E0E0A0A436F6D6D616E64732028B0
:104B00002070202D2073656E736F7220696E666F42
:104B10003B2064202D207365747570206461797466
:104B2000696D653B206E202D207365747570206E55
:104B30006967687474696D653B2073202D207374F8
:104B40006172743B2063202D2073746F70202900E4
:104B500030313233343536373839616263646566F3
:104B600000000000844B0000000000209C000000BA
:104B7000A8020000204C00009C0000207C2F0000B8
:104B8000C40200000000000000000000000000005F
:104B90000000000000000000000000000000000015
:104BA000000000000000000080F0FA020000000099
:104BB00000000000000000000000000000000000F5
:104BC000000000000000000000000000AAAAAAAA3D
:104BD00000000000000000000000000000000000D5
:104BE00000000000000000000000000000000000C5
:104BF00000000000000000000000000000000000B5
:104C000000000000000000000000000000000000A4
:104C10000000000000000000000000000000000094
:04000005000003DD17
:00000001FF
