:020000040000FA
:1000000070020020150300001D0300001F03000004
:10001000210300002303000025030000000000006E
:1000200000000000000000000000000027030000A6
:1000300029030000000000002B0300002D03000036
:100040002F030000310300003303000035030000DC
:1000500037030000390300003B0300003D030000AC
:100060003F0300004103000043030000450300007C
:1000700047030000490300004B0300004D0300004C
:100080004F0300005103000053030000550300001C
:1000900057030000590300005B0300005D030000EC
:1000A0005F030000610300006303000065030000BC
:1000B00067030000690300006B0300006D0300008C
:1000C0006F0300007103000073030000750300005C
:1000D00077030000790300007B0300007D0300002C
:1000E0007F03000081030000000000008303000084
:1000F0008503000087030000890300008B030000D4
:100100008D0300008F0300009103000093030000A3
:1001100000000000000000009503000097030000AD
:10012000990300009B0300009D0300009F03000053
:10013000A1030000A3030000A5030000A703000023
:1001400000000000000000000000000000000000AF
:10015000A9030000AB030000AD030000AF030000E3
:10016000000000000000000000000000000000008F
:10017000000000000000000000000000000000007F
:10018000000000000000000000000000000000006F
:10019000000000000000000000000000000000005F
:1001A000000000000000000000000000000000004F
:1001B000B1030000B3030000B5030000B703000063
:1001C000B9030000BB030000BD030000BF03000033
:1001D000C1030000C3030000C5030000C703000003
:1001E000C9030000CB030000CD03000000000000A5
:1001F00000000000CF030000D1030000D303000083
:10020000D5030000D703000000000000000000003C
:10021000D9030000DB030000DD030000DF03000062
:10022000E1030000E3030000E5030000E703000032
:10023000E9030000EB030000ED030000EF03000002
:10024000F1030000F3030000F5030000F7030000D2
:10025000F9030000FB030000FD030000FF030000A2
:1002600001040000030400000504000000F002F88F
:1002700000F03CF80AA090E8000C82448344AAF104
:100280000107DA4501D100F031F8AFF2090EBAE802
:100290000F0013F0010F18BFFB1A43F001031847BA
:1002A000BC0A0000DC0A0000103A24BF78C878C1FC
:1002B000FAD8520724BF30C830C144BF04680C606C
:1002C000704700000023002400250026103A28BFB4
:1002D00078C1FBD8520728BF30C148BF0B607047B8
:1002E0001FB500F009FC1FBD10B510BD00F09FF850
:1002F0001146FFF7F5FF00F0DDFB00F0BDF803B499
:10030000FFF7F2FF03BC00F0C5F800000138FDD193
:10031000704700003F4880473F480047FEE7FEE740
:10032000FEE7FEE7FEE7FEE7FEE7FEE7FEE7FEE7A5
:10033000FEE7FEE7FEE7FEE7FEE7FEE7FEE7FEE795
:10034000FEE7FEE7FEE7FEE7FEE7FEE7FEE7FEE785
:10035000FEE7FEE7FEE7FEE7FEE7FEE7FEE7FEE775
:10036000FEE7FEE7FEE7FEE7FEE7FEE7FEE7FEE765
:10037000FEE7FEE7FEE7FEE7FEE7FEE7FEE7FEE755
:10038000FEE7FEE7FEE7FEE7FEE7FEE7FEE7FEE745
:10039000FEE7FEE7FEE7FEE7FEE7FEE7FEE7FEE735
:1003A000FEE7FEE7FEE7FEE7FEE7FEE7FEE7FEE725
:1003B000FEE7FEE7FEE7FEE7FEE7FEE7FEE7FEE715
:1003C000FEE7FEE7FEE7FEE7FEE7FEE7FEE7FEE705
:1003D000FEE7FEE7FEE7FEE7FEE7FEE7FEE7FEE7F5
:1003E000FEE7FEE7FEE7FEE7FEE7FEE7FEE7FEE7E5
:1003F000FEE7FEE7FEE7FEE7FEE7FEE7FEE7FEE7D5
:10040000FEE7FEE7FEE7000004480549034A054B06
:1004100070470000D50800006D0200007000002049
:1004200070020020700000207047704770477546CA
:1004300000F02CF8AE4605006946534620F0070050
:10044000854618B020B5FFF7DFFFBDE820404FF02C
:1004500000064FF000074FF000084FF0000B21F0AE
:100460000701AC46ACE8C009ACE8C009ACE8C0097B
:10047000ACE8C0098D46704710B50446AFF3008064
:100480002046BDE81040FFF73ABF00000048704723
:100490000C00002001491820ABBEFEE72600020038
:1004A0007047000010B50E4800F0DEF90D4800F06E
:1004B000DBF9012000F0FCF840F2014000F0F8F810
:1004C00003214FF0402000F02AF90521064800F0F2
:1004D0005EFA064A4FF41651002000F09BFA10BD58
:1004E000000800F0001800F000C000400024F400F4
:1004F00002F001031BB1D0F800340B4302E0D0F846
:1005000000348B43C0F8003402F002031BB1D0F872
:1005100020340B4302E0D0F820348B43C0F8203461
:1005200070470000F0B55F4D2D685F4E35405F4E5F
:10053000B5421AD0002416E00125A5400D4085B132
:10054000D0F8C45F67000326BE40B543C0F8C45F5F
:10055000D0F8C45F6700C2F34116BE403543C0F80F
:10056000C45F651CECB2082CE6DB02F001051DB18E
:10057000D0F800550D4302E0D0F800558D43C0F887
:10058000005502F002051DB1D0F804550D4302E0FC
:10059000D0F804558D43C0F8045502F004051DB190
:1005A000D0F808550D4302E0D0F808558D43C0F847
:1005B000085502F008051DB1D0F818550D4302E0AA
:1005C000D0F818558D43C0F81855364D2D68364E65
:1005D0003540364EB5420BD002F010051DB1D0F8B3
:1005E0003C550D4302E0D0F83C558D43C0F83C55D6
:1005F00003F001051DB1D0F80C550D4302E0D0F811
:100600000C558D43C0F80C5503F002051DB1D0F810
:1006100010550D4302E0D0F810558D43C0F8105529
:1006200003F004051DB1D0F814550D4302E0D0F8D5
:1006300014558D43C0F8145503F008051DB1D0F8CA
:100640001C550D4302E0D0F81C558D43C0F81C55D5
:10065000144D2D68144E3540144EB54217D003F496
:1006600000751DB1D0F844550D4302E0D0F8445553
:100670008D43C0F8445503F440751DB1D0F8405582
:100680000D4302E0D0F840558D43C0F840551BB9EA
:10069000D0F828550D4302E0D0F828558D43C0F816
:1006A0002855F0BD00E00F400000FF70000005106D
:1006B00010B50146C1F307400F4BDB6E01248440A7
:1006C000234033B1012303EB40030C4C54F82300C7
:1006D00003E04300094C54F82300C1F30722D0F88B
:1006E0002C350F249440A34301F00F04944023437E
:1006F000C0F82C3510BD000000E00F409C0C00003D
:1007000030B504460D460823012229462046FFF74E
:1007100009FF012229462046FFF7EAFE30BD30B529
:1007200004460D46022229462046FFF7E1FE082333
:10073000012229462046FFF7F5FE30BD2DE9F041A4
:1007400006464448046E056F44F4006424F48004B3
:1007500045F400650466056704F00100D8B106F0B1
:100760000100C0B966F0010004404FF480703949BF
:100770008865084604664FF4002702E07F1E07B92B
:1007800005E03448006D00F480700028F6D000BF0A
:100790000FB9BDE8F08124F4FE6406F4FE60044362
:1007A0002D4805402C49A13106EA0100054306F019
:1007B000080045EAC00527480466056724F400548C
:1007C00006F40050044325F4005506F40050054398
:1007D00040202049886505F0004018B108460567AB
:1007E000046602E01B48046605671C480440C143D8
:1007F00006EA0100044325F0FC5506F0FC500543D1
:1008000006F0804040B144F4800425F4800514498A
:1008100006EA0100054301E025F0804506F400608A
:1008200080B94FF4004706E00E48006800F0010070
:1008300000B102E07F1E002FF6D100BF24F4006457
:1008400025F400650348046605671020FFF75EFD88
:1008500000BF9EE700E00F408FFFFF7FFEFF3FF8E5
:100860000000404068E10F4010B50121C0F30722AD
:10087000094B1A4402F0704242F00072C0F30723A1
:10088000054C2344C3F3130342EA4312C3B242EAC2
:100890008302116010BD000000E60F400146C1F365
:1008A00007200B4A104400F0704040F00070C1F384
:1008B0000722074B1A44C2F3130240EA4210CAB29D
:1008C00040EA8200006808B1012070470020FCE780
:1008D00000E30F401B49096841F47001194A116097
:1008E00019491A4A11671A4911661A4911661A49B3
:1008F0001167002000E0401CB0F57A7FFBD3174958
:10090000124A116616491167002000E0401CB0F53C
:100910007A7FFBD313490D4A116600BF0B49096D5D
:1009200001F040014029F9D10F49084A11664FF002
:10093000C0711167002000E0401C42F21071884233
:10094000FAD3704788ED00E01028800700E00F40E0
:10095000D13A8E07422D9E0100288001420D9E0152
:1009600000088001420DDE014205DE01014600BFA4
:10097000886900F010000028FAD10868704700BFAD
:10098000826902F02002002AFAD101607047C0F8A3
:10099000C81F7047F0B504460E4615461F46204650
:1009A00000F01EF8B6EB051F05D2206B40F02000CA
:1009B00020636D0803E0206B20F020002063F0002E
:1009C000B0FBF5F0401C43089809606203F03F005B
:1009D000A062E7620020A061204600F011F8F0BD9F
:1009E00000BF816901F008010029FAD1C16A21F034
:1009F0001001C162016B40F2013291430163704703
:100A0000C16A41F01001C162016B40F20132114331
:100A10000163704770B504460D4616460E4951F8FD
:100A20002400FFF73BFF00B970BD0C4850F82400CC
:100A30000B490860084951F82400FFF715FF6023AF
:100A40002A46314606480068FFF7A4FF04480068BC
:100A5000FFF7D6FF00BFE7E73C0D0000300D0000B8
:100A60000400002010B503480068FFF77FFFC0B204
:100A700010BD00000400002070B505460E4600249D
:100A800011E0285D0A2805D10D2109480068FFF70B
:100A900076FF02E0285D00B907E0295D04480068A0
:100AA000FFF76DFF641CB442EBD300BF204670BD5E
:100AB000040000200C48FFF741FE0C48FFF7D4FE6D
:100AC0000320FFF723FC30210948FFF719FEFFF749
:100AD000E9FC07E0FFF7C6FF064908700121054859
:100AE000FFF7CAFFF6E70000400500C1020800F06A
:100AF00000600040000000204FF04070E1EE100A5E
:100B000070470000004000401000000000800540D9
:100B1000100000000050004011000000009005404F
:100B200011000000006000401200000000A005401D
:100B300012000000007000401300000000B00540EB
:100B400013000000004002401400000000C00540F7
:100B500014000000005002402E00000000D00540AC
:100B60002E000000006002402F00000000E0054061
:100B70002F000000007002403000000000F005402F
:100B80003000000000D00340460000000000064096
:100B9000460000000010064047000000002006400C
:100BA00048000000003006407F0000000040064082
:100BB00080000000005006408400000000600640F5
:100BC0008C00000000400040100000000080054044
:100BD000100000000050004011000000009005408F
:100BE00011000000006000401200000000A005405D
:100BF00012000000007000401300000000B005402B
:100C000013000000004002401400000000C0054036
:100C100014000000005002402E00000000D00540EB
:100C20002E000000006002402F00000000E00540A0
:100C30002F000000007002403000000000F005406E
:100C40003000000000D003404300000000000640D8
:100C50004300000000100640440000000020064051
:100C600045000000003006405800000000400640EB
:100C700059000000005006405C0000000060064083
:100C800064000000007006406C0000000080064018
:100C90006D000000009006407F0000000040004012
:100CA000008005400050004000900540006000407A
:100CB00000A005400070004000B005400040024028
:100CC00000C005400050024000D0054000600240D6
:100CD00000E005400070024000F0054000D00340F5
:100CE00000000640001006400010064000200640AC
:100CF000002006400030064000300640004006401C
:100D0000004006400050064000500640006006408B
:100D100000600640007006400070064000800640FB
:100D2000008006400090064000900640480D0000FC
:100D300000C0004000D0004000E00040001800F07B
:100D4000011800F0021800F03031323334353637F4
:100D50003839616263646566000000007C0D000044
:100D6000000000200C000000A8020000880D000018
:100D70000C00002064020000C4020000000000001B
:080D800000000000000000006B
:0400000500000315DF
:00000001FF
